:020000040000fa
:080000000002040000000000f2
:020000040000fa
:0400080004030000ed
:020000040000fa
:04000c0004030000e9
:020000040000fa
:0400100004030000e5
:020000040000fa
:0400140004030000e1
:020000040000fa
:0400180004030000dd
:020000040000fa
:04001c0004030000d9
:020000040000fa
:0400200004030000d5
:020000040000fa
:0400240004030000d1
:020000040000fa
:0400280004030000cd
:020000040000fa
:04002c0004030000c9
:020000040000fa
:0400300004030000c5
:020000040000fa
:0400340004030000c1
:020000040000fa
:0400380004030000bd
:020000040000fa
:04003c0004030000b9
:020000040000fa
:0400400004030000b5
:020000040000fa
:0400440004030000b1
:020000040000fa
:040048009c750000a3
:020000040000fa
:04004c0004030000a9
:020000040000fa
:0400500004030000a5
:020000040000fa
:0400540004030000a1
:020000040000fa
:04005800040300009d
:020000040000fa
:04005c000403000099
:020000040000fa
:040060000403000095
:020000040000fa
:040064000403000091
:020000040000fa
:04006800040300008d
:020000040000fa
:04006c000403000089
:020000040000fa
:040070000403000085
:020000040000fa
:040074000403000081
:020000040000fa
:04007800ba73000057
:020000040000fa
:04007c000403000079
:020000040000fa
:040080000403000075
:020000040000fa
:040084000403000071
:020000040000fa
:04008800040300006d
:020000040000fa
:04008c000403000069
:020000040000fa
:040090000403000065
:020000040000fa
:040094000403000061
:020000040000fa
:04009800040300005d
:020000040000fa
:04009c000403000059
:020000040000fa
:0400a000cc7500001b
:020000040000fa
:0400a4000403000051
:020000040000fa
:0400a800040300004d
:020000040000fa
:0400ac000403000049
:020000040000fa
:0400b0000403000045
:020000040000fa
:0400b4000403000041
:020000040000fa
:0400b800040300003d
:020000040000fa
:0400bc000403000039
:020000040000fa
:0400c0000403000035
:020000040000fa
:0400c4000403000031
:020000040000fa
:0400c800040300002d
:020000040000fa
:0400cc000403000029
:020000040000fa
:0400d0000403000025
:020000040000fa
:0400d4000403000021
:020000040000fa
:0400d800040300001d
:020000040000fa
:0400dc000403000019
:020000040000fa
:0400e0000403000015
:020000040000fa
:0400e4000403000011
:020000040000fa
:0400e800040300000d
:020000040000fa
:0400ec000403000009
:020000040000fa
:0400f0000403000005
:020000040000fa
:0400f4000403000001
:020000040000fa
:0400f80004030000fd
:020000040000fa
:0400fc0004030000f9
:020000040000fa
:0401000004030000f4
:020000040000fa
:0401040004030000f0
:020000040000fa
:0401080004030000ec
:020000040000fa
:04010c0004030000e8
:020000040000fa
:0401100004030000e4
:020000040000fa
:0401140004030000e0
:020000040000fa
:0401180004030000dc
:020000040000fa
:04011c0004030000d8
:020000040000fa
:0401200004030000d4
:020000040000fa
:0401240004030000d0
:020000040000fa
:0401280004030000cc
:020000040000fa
:04012c0004030000c8
:020000040000fa
:0401300004030000c4
:020000040000fa
:0401340004030000c0
:020000040000fa
:0401380004030000bc
:020000040000fa
:04013c0004030000b8
:020000040000fa
:0401400004030000b4
:020000040000fa
:0401440004030000b0
:020000040000fa
:0401480004030000ac
:020000040000fa
:04014c0004030000a8
:020000040000fa
:0401500004030000a4
:020000040000fa
:0401540004030000a0
:020000040000fa
:04015800040300009c
:020000040000fa
:04015c000403000098
:020000040000fa
:040160000403000094
:020000040000fa
:040164000403000090
:020000040000fa
:04016800040300008c
:020000040000fa
:04016c000403000088
:020000040000fa
:040170000403000084
:020000040000fa
:040174000403000080
:020000040000fa
:04017800040300007c
:020000040000fa
:04017c000403000078
:020000040000fa
:040180000403000074
:020000040000fa
:040184000403000070
:020000040000fa
:04018800040300006c
:020000040000fa
:04018c000403000068
:020000040000fa
:040190000403000064
:020000040000fa
:040194000403000060
:020000040000fa
:04019800040300005c
:020000040000fa
:04019c000403000058
:020000040000fa
:0401a0000403000054
:020000040000fa
:0401a4000403000050
:020000040000fa
:0401a800040300004c
:020000040000fa
:0401ac000403000048
:020000040000fa
:0401b0000403000044
:020000040000fa
:0401b4000403000040
:020000040000fa
:0401b800040300003c
:020000040000fa
:0401bc000403000038
:020000040000fa
:0401c0000403000034
:020000040000fa
:0401c4000403000030
:020000040000fa
:0401c800040300002c
:020000040000fa
:0401cc000403000028
:020000040000fa
:0401d0000403000024
:020000040000fa
:0401d4000403000020
:020000040000fa
:0401d800040300001c
:020000040000fa
:0401dc000403000018
:020000040000fa
:0401e0000403000014
:020000040000fa
:0401e4000403000010
:020000040000fa
:0401e800040300000c
:020000040000fa
:0401ec000403000008
:020000040000fa
:0401f0000403000004
:020000040000fa
:0401f4000403000000
:020000040000fa
:0401f80004030000fc
:020000040000fa
:0401fc0004030000f8
:020000040000fa
:0402080004030000eb
:020000040000fa
:04020c0004030000e7
:020000040000fa
:0402100004030000e3
:020000040000fa
:0402140004030000df
:020000040000fa
:0402180004030000db
:020000040000fa
:04021c0004030000d7
:020000040000fa
:0402200004030000d3
:020000040000fa
:0402240004030000cf
:020000040000fa
:0402280004030000cb
:020000040000fa
:04022c0004030000c7
:020000040000fa
:0402300004030000c3
:020000040000fa
:0402340004030000bf
:020000040000fa
:0402380004030000bb
:020000040000fa
:04023c0004030000b7
:020000040000fa
:0402400004030000b3
:020000040000fa
:0402440004030000af
:020000040000fa
:0402480004030000ab
:020000040000fa
:04024c0004030000a7
:020000040000fa
:0402500004030000a3
:020000040000fa
:04025400040300009f
:020000040000fa
:04025800040300009b
:020000040000fa
:04025c000403000097
:020000040000fa
:040260000403000093
:020000040000fa
:04026400040300008f
:020000040000fa
:04026800040300008b
:020000040000fa
:04026c000403000087
:020000040000fa
:040270000403000083
:020000040000fa
:04027400040300007f
:020000040000fa
:04027800040300007b
:020000040000fa
:04027c000403000077
:020000040000fa
:040280000403000073
:020000040000fa
:04028400040300006f
:020000040000fa
:04028800040300006b
:020000040000fa
:04028c000403000067
:020000040000fa
:040290000403000063
:020000040000fa
:04029400040300005f
:020000040000fa
:04029800040300005b
:020000040000fa
:04029c000403000057
:020000040000fa
:0402a0000403000053
:020000040000fa
:0402a400040300004f
:020000040000fa
:0402a800040300004b
:020000040000fa
:0402ac000403000047
:020000040000fa
:0402b0000403000043
:020000040000fa
:0402b400040300003f
:020000040000fa
:0402b800040300003b
:020000040000fa
:0402bc000403000037
:020000040000fa
:0402c0000403000033
:020000040000fa
:0402c400040300002f
:020000040000fa
:0402c800040300002b
:020000040000fa
:0402cc000403000027
:020000040000fa
:0402d0000403000023
:020000040000fa
:0402d400040300001f
:020000040000fa
:0402d800040300001b
:020000040000fa
:0402dc000403000017
:020000040000fa
:0402e0000403000013
:020000040000fa
:0402e400040300000f
:020000040000fa
:0402e800040300000b
:020000040000fa
:0402ec000403000007
:020000040000fa
:0402f0000403000003
:020000040000fa
:0402f40004030000ff
:020000040000fa
:0402f80004030000fb
:020000040000fa
:0402fc0004030000f7
:020000040000fa
:0403000004030000f2
:020000040000fa
:0403040004030000ee
:020000040000fa
:0403080004030000ea
:020000040000fa
:04030c0004030000e6
:020000040000fa
:0403100004030000e2
:020000040000fa
:0403140004030000de
:020000040000fa
:0403180004030000da
:020000040000fa
:04031c0004030000d6
:020000040000fa
:0403200004030000d2
:020000040000fa
:0403240004030000ce
:020000040000fa
:0403280004030000ca
:020000040000fa
:04032c0004030000c6
:020000040000fa
:0403300004030000c2
:020000040000fa
:0403340004030000be
:020000040000fa
:0403380004030000ba
:020000040000fa
:04033c0004030000b6
:020000040000fa
:0403400004030000b2
:020000040000fa
:0403440004030000ae
:020000040000fa
:0403480004030000aa
:020000040000fa
:04034c0004030000a6
:020000040000fa
:0403500004030000a2
:020000040000fa
:04035400040300009e
:020000040000fa
:04035800040300009a
:020000040000fa
:04035c000403000096
:020000040000fa
:040360000403000092
:020000040000fa
:04036400040300008e
:020000040000fa
:04036800040300008a
:020000040000fa
:04036c000403000086
:020000040000fa
:040370000403000082
:020000040000fa
:04037400040300007e
:020000040000fa
:04037800040300007a
:020000040000fa
:04037c000403000076
:020000040000fa
:040380000403000072
:020000040000fa
:04038400040300006e
:020000040000fa
:04038800040300006a
:020000040000fa
:04038c000403000066
:020000040000fa
:040390000403000062
:020000040000fa
:04039400040300005e
:020000040000fa
:04039800040300005a
:020000040000fa
:04039c000403000056
:020000040000fa
:0403a0000403000052
:020000040000fa
:0403a400040300004e
:020000040000fa
:0403a800040300004a
:020000040000fa
:0403ac000403000046
:020000040000fa
:0403b0000403000042
:020000040000fa
:0403b400040300003e
:020000040000fa
:0403b800040300003a
:020000040000fa
:0403bc000403000036
:020000040000fa
:0403c0000403000032
:020000040000fa
:0403c400040300002e
:020000040000fa
:0403c800040300002a
:020000040000fa
:0403cc000403000026
:020000040000fa
:0403d0000403000022
:020000040000fa
:0403d400040300001e
:020000040000fa
:0403d800040300001a
:020000040000fa
:0403dc000403000016
:020000040000fa
:0403e0000403000012
:020000040000fa
:0403e400040300000e
:020000040000fa
:0403e800040300000a
:020000040000fa
:0403ec000403000006
:020000040000fa
:0403f0000403000002
:020000040000fa
:0403f40004030000fe
:020000040000fa
:0403f80004030000fa
:020000040000fa
:0403fc0004030000f6
:020000040000fa
:100400006f5221000e7f22000e01880000000000c4
:10041000000020000000e000020032000001200087
:1004200020028800140007009a0007000000e00086
:1004300003003a0060fb27000100200002003700a3
:100440000000200001002000810f70000100320038
:1004500014000700000020000000e000020032004d
:100460000000020000000000b87802000000000058
:100470000040da000000fe004440a900000d20000a
:100480000000e000030032000020200090018800fe
:100490004440a800000006008a1f78008b1f7800e7
:1004a00000000600a1028800800478000000eb0034
:1004b0001f003700e284440054a0b4009905ba003c
:1004c000e284440054a0b4009906ba00e2844400d7
:1004d00054a0b4000006eb00476fde00fd07b20039
:1004e000ae018800636ce10003003a00eaff0700f8
:1004f0000000eb000e003700606ce10008003a00dd
:10050000004deb000a05e800020039003420ec0041
:100510000af0a0008b05e900f9ff3e000400370057
:100520006168e100010032000086eb000b0007006b
:1005300019c7ba001905ba000e04e00003003a001a
:100540000a00e000dbff3a0000000600fe07b200f0
:10055000ae0288008a047800f5ff37000cd0a300b3
:10056000e20f4d001c00390089027800354dba00b9
:100570000a05e800020039003420ec000af0a0006f
:100580008b05e9000f003200254dba000a05e8008e
:10059000020039003420ec000af0a0008b05e900cd
:1005a000080032000c00e0000600320015cdba0051
:1005b0000a05e800020039003420ec000af0a0002f
:1005c0008b05e9008984e80054a0b4000b00e0002a
:1005d000e2ff3a00000006009902ba00055d7800cb
:1005e0008b05e900f7ff3200c82ade00055d7800c0
:1005f0008b05e900f3ff32000c00e000f1ff320050
:1006000019ddba00eeff37000040da000000fe00fe
:10061000889fbe0080047800206980000000e00010
:1006200004003a000e0007000084eb000000e00028
:1006300008003500286980000900e000050032004c
:1006400009004400060007000000e00001003d0032
:100650000084eb00080078004f04be000000060094
:10066000800078000100e00003003a0060d2200022
:1006700020698800000005000080eb006252210024
:10068000828f500002003e00216988000000eb00cc
:100690000000060000000500f4ff2f0002003700f4
:1006a0006011b8001b003700889fbe008a9fbe0003
:1006b000841f78006c0007004f00780011003300a1
:1006c000f0ff2f00838f6c0006003b0004056500df
:1006d0000a00a7000800370009f0a600100020005b
:1006e00008003700820f5400838f5c00030039003c
:1006f0001000200001003e000000200009f0a700cb
:100700000000ea004f05be004f04be000000e000fc
:1007100000000600889fbe008a9fbe000082700015
:100720000402710004827100260032000004be0041
:100730000200be006011b8006b0920009502200085
:100740000182cf000a0039000541b1000082cf00cc
:10075000070039000541b1000982cf0004003900cb
:100760000541b1000882cf00010039000541b10008
:1007700005425200120032000a003b0082817100e3
:10078000610164008100d1000080d3008984d3001e
:100790000884d3008b05e8000442e800f7ff3a0024
:1007a000070037000804440089844c00000048001a
:1007b000818048008b05e9000442e900f9ff3a0016
:1007c000030007004f05be004f04be0000000600f6
:1007d00081002000618055000b003d000b002000cf
:1007e00061fe2f000100e1001d00340082817100d4
:1007f000610164008904d1000884d3000000e8008e
:10080000faff3a00710020006100640003007000ec
:10081000020060000900320061044400e0844c00e2
:100820000988a500050032008b05e8006808e10092
:1008300002003a008904d1000884d300f20f20009e
:100840000258e10005003d00c75ddd00f907b20078
:100850008980750008007800000006000bf827006a
:100860008b007800000005000004be0006000700b1
:100870000003be000405be000200be000200070027
:10088000844f750000000600c70ade00f107b200c1
:10089000f50fb20008003200e1cf42000200320042
:1008a0000170a00024000500810f700001003200db
:1008b0000408050044000500810f700002003a00a2
:1008c000140005008502e9000000400081c04800d6
:1008d000fcff3b000170a00024000500889fbe00c3
:1008e0008a9fbe008c9fbe00e1d02000726880000d
:1008f0000200e0000b003a0064814000726888004a
:10090000c2688800a1009800b16888002141900069
:100910000204a000a2409800614190000204a000df
:10092000e2409800670440004244de004244dd009b
:10093000b468800061d22000695221008184540093
:100940002d002000110009008d04d80080067800d9
:100950000886e8000c0646008001eb000200370024
:10096000130020000b027800a44090000108a300af
:10097000020032000a003700120a780014017800e1
:10098000a24090000108a300fbff32008800420053
:10099000810f5100020039000800e00042003d00d4
:1009a000940578000b00a100848f5500edff3e00f8
:1009b000e18f5100eaff3a008d0f5400020036002b
:1009c000890f5400140039006141b8006148b90032
:1009d000b4ff2f00050020000000520081805a0063
:1009e000800f5100818f59000200350064054400da
:1009f0000a00370060d220009a52210000055500fd
:100a000008054500110009000985d8000980b900d2
:100a100000057800010037000c0578000a00780016
:100a2000fbfe0700e10f400005003a0064054400aa
:100a30000a007800f6fe0700e10f40002b003200ac
:100a4000c168800080087800c1688000e4814000af
:100a500021419000830f5000020032000204a000e8
:100a6000010037000204a100a2409800640555006f
:100a70000a0540000a087800ca688800e1d0200012
:100a8000010d7800c2688000a24090000104a0001f
:100a900021419800a04090000104a100214098004d
:100aa0008001eb00afff3700b1688800810f510073
:100ab000070036001101be00d2688800e368880094
:100ac000940878000041eb00b1688000a2409800d3
:100ad000b3688000030a7800a44090000104a000dd
:100ae0002142980064004200010037000000eb0042
:100af0004f06be004f05be004f04be0000000600ba
:100b00000000e0000800320064005000b16880007e
:100b1000810f500001003100b0688800a0409000b3
:100b20000104a1002140980000000600889fbe003b
:100b30008a9fbe000004be000900e00007003a00e2
:100b40000000eb000800e0003600320008007800ea
:100b5000ebff07000000eb00320037000800e00068
:100b600003003a00090078005cff07002d00370001
:100b7000640054009005780068f897000008a3000e
:100b80000200320008007800ddff0700090078004d
:100b900052ff0700800478000000eb000900e0002d
:100ba00020003200888f54001b00320069bd97007e
:100bb0000905550042d5de0088855500c2ddde00fe
:100bc0000a0178008b0f5500010036000b017800f8
:100bd0004211dd0088007800090078002d00070030
:100be000888f54000e0031004255dd000a85440014
:100bf000880f55000a0036000804550042c4de0084
:100c00004244dd0008844400d0688000e168800030
:100c1000008cbe0002003700080078000100370099
:100c2000090078004f05be004f04be00000006001a
:100c3000e68747008e1f7800d0bf9f00e1bf9f006e
:100c40000e0037005fba970014407800efb99700a4
:100c5000934078000201e900814f50000400320007
:100c60000080fb008180fb0001005000060037007f
:100c700066875700041fe800030fe8000200e00049
:100c8000f0ff3a000000eb004f0778006f00b10062
:100c9000000006008001780002003700b15978009a
:100ca0000201e9000200e000fcff3a00000006003b
:020000040000fa
:100cb000004000008e000000000000007f000000e7
:100cc000000000001400000010c10000000000003f
:100cd0000000000000000000000a0000000000000a
:100ce00001000000020000000300000004000000fa
:100cf00005000000060000002000000021000000a8
:100d0000220000000a0000000080000001800000b6
:100d100002800000038000000480000005800000c5
:100d2000068000002080000021800000228000005a
:100d3000f000000003010000ffff000000050000bc
:100d4000070000000900000012000000130000006e
:100d5000140000000000000000000000000000007f
:100d60000000000000000000050000000500000079
:100d700006000000080000000a0000000f0000004c
:100d8000150000000000000000000000000000004e
:100d900000000000020100000f0f0000000500002d
:100da0000080000010060000780000000000000035
:100db000b4000000000000002c0100000000000052
:100dc0001c02000000000000fc0300000000000006
:100dd000bc070000000000003c0f00000000000005
:100de0003c1e0000000000003c3c00000000000031
:100df0003c780000000000003cf000000000000013
:100e00003ce00000010000003cc0000003000000c6
:100e10003c800000070000003c0000000f000000c4
:100e20003031000032330000343500003637000026
:100e300038390000414200004344000045460000ac
:100e4000001100001101000000a3000004000000d8
:020000040000fa
:100e5000605d8000f007b2000000ea004f00de0095
:100e6000000006003c48e20021003a00c0c2200019
:100e700010007800e10060000000eb003800320054
:100e8000a1cf200032c1b300914f110034003e00c9
:100e900060882000100078006200600005003a00c1
:100ea00001802000c0ba2000908060001000200067
:100eb0002b0032000000eb0031cf200042c0b30015
:100ec000914f110026003e00e880400052c0b30060
:100ed000914f110022003e0000002100c1ba200005
:100ee000110060000000e9004f00de001c00370028
:100ef0000000eb00a1cf200032c1b300914f1100e0
:100f000017003e006088200010007800620060003a
:100f100005003a0001802000c0ba200090806000e7
:100f2000100020000e0032000000eb0031cf200046
:100f300042c0b300914f110009003e00e88040001c
:100f400052c0b300914f110005003e000000210087
:100f5000c1ba2000110060000000e9004f00de006f
:100f600000000600889fbe008a1f78001608f8005f
:100f70001a08f9000044eb00c9ce20000a20200026
:100f800022c1b300d1408000e0cd2000f23807003c
:100f90001900650005003200200120001a28b40065
:100fa0000844e800f84f5400f5ff3a000840780084
:100fb0004f0578004f04be00000006000400fa0050
:100fc000889fbe008a1f780080047800805d8000c2
:100fd0000000e0000c00320000bb200018c0b3008d
:100fe000030037000844e800e74f540030003200a7
:100ff0005000e000fbff3a000040eb00e74f5400d8
:1010000002003a002b0037000044eb000885fb008b
:1010100000c3b3004d3c0700800078000a80e80060
:1010200000004000c2ba2000013178000040eb000f
:101030000100e0001f003200884c78000a85e800bb
:101040000a0545008204780069007d0080c0eb003d
:101050004148980069047d006a8057002b3c0700d6
:101060003fb89700cfb8970070049800010c980023
:10107000100c9800210c980069017d00b2089000c6
:1010800000fd2f00008060000010a00030099800d3
:1010900076004100e202b00031c0b3000168780080
:1010a000820f5000fdff3a0010c0b300010037006e
:1010b0000040eb004f0578004f04be000080fa00ae
:1010c00000000600e6874700889fbe008a9fbe009a
:1010d0008c9fbe008e1f7800000678000107780004
:1010e00082067800e1408000f140880062c0b300d1
:1010f000e0cf2000983807000c057800f0678000ea
:101100000044eb008c0f500066003a0023003700cb
:101110000844e800f1408000e6804000f14088008b
:101120000b417800090078008b380700f04f54001d
:1011300004003200990f1500f5ff3a00f04f5400fb
:1011400016003a00e1408000f140880062c0b30020
:10115000e0cf200080380700006880000044eb00ea
:10116000e30f500045003a000c0037000844e80047
:10117000f1408000e6804000f140880062c0b3008a
:101180000a00780074380700f04f54000300320062
:1011900030002000990f1000f4ff3a00884e7800cc
:1011a0000044eb004008e2000a00320018c0b3001f
:1011b0004208e2000700320028c0b3004408e20001
:1011c0000400320048c0b3004608e20001003a00c3
:1011d00038c0b300084f78000884fb0040c1b3005a
:1011e000da3b0700880044000284200000b1780048
:1011f0000045eb000000e00019003200e1cf2000c4
:101200008c0878001a0020000a68880062c0b300c9
:10121000f04080008438070008044400098420005e
:10122000888444001904780000c0eb000054980042
:1012300072805700b53b07007fb097008fb89700ca
:10124000008cbe00190078009d4678002d50980053
:101250008000eb0061009800c0ba20001010a000d0
:101260000a4078004f0778004f06be004f05be00c9
:101270004f04be006f00b10000000600f140800086
:10128000e6804000f140880062c0b300e0cf20005b
:101290003138070018c0b30009d020000985e900e3
:1012a000bbff3700f1408000e6804000f14088003d
:1012b00062c0b300e0cf20002738070018c0b30099
:1012c000e9cf20006bc0b3009aff37008040780060
:1012d000d0082000e2cf50000f00320007003e008f
:1012e000d04321000104e0000b003200d035200083
:1012f000e1cf500007003a000700370050012000fe
:10130000e3cf50000400320010002000e4cf500072
:10131000010032000000eb0000000600889fbe00c4
:101320008a9fbe008c9fbe008004780081067800f2
:10133000020678001c08f8001e08f9000044eb00c3
:101340001ac0b3008845780062c0b300f140800045
:10135000e0cf2000003807008a407800f067800066
:10136000890f5000040032000844e80060002000ab
:101370001e28b4008b407800ef4f540003003e005d
:101380000104e000f0ff3200030037000140780064
:101390000104e0000600320010688000800e780032
:1013a00000688000004e780001407800020037009d
:1013b00031c0b300014e78004f06be004f05be009d
:1013c0004f04be0000000600889fbe008a9fbe003a
:1013d0008c9fbe0083057800e38320006883410072
:1013e0000045eb0018c0b300d30278000500e00010
:1013f000090032000004e0000a003200e54b9000d2
:1014000081cf530007003a00c5029000828f52003e
:1014100004003a0002003700084578000100370058
:1014200008457800868f5100efff3a000a407800a7
:1014300089c0b3000404e00001003d0009c1b3000d
:101440000004e0001b0032001c08f8001e08f90030
:101450000045eb000904e000160032000a44780061
:101460001dc0b3000cd0200062c0b300f14080006a
:10147000e0cf2000b8370700f06780008b0f5000e6
:1014800004003200300020009c0f100004003a00dd
:10149000020037000d457800010037000d45780047
:1014a0000844e800600020001e28b40088cf5400e3
:1014b000edff3e000a4078004f06be004f05be001b
:1014c0004f04be0000000600889fbe000004be005e
:1014d00010c0b3000204e0000a0032000040eb003c
:1014e000890f5400070031000240e90077ff070030
:1014f0000804400010c0b300890f540001003e00f2
:101500000040eb004f04be0000000600889fbe00b4
:101510008a9fbe008c1f7800004678000004eb0014
:101520008044eb006ace2000eb882000b1408000b0
:1015300081004400d140880022c1b300e0cd2000ea
:10154000853707001a0078009b0f50000b003a0007
:101550000c86fb000c86e8000c064600c0ba200092
:1015600060007e008984fb0089044000795090006f
:101570000004a100f0549800040037008944e800fa
:1015800072044400f8cf5400e8ff3a004f06780098
:101590004f05be004f04be00000006003e48ec00b0
:1015a0003ee8b70002003a0010c0b3003ee8b700c2
:1015b0003ec8bf0000000600889fbe008a1f78005a
:1015c000a0ce20000008eb00301078001608f800cc
:1015d0001a08f9000044eb0029c1b3006c05500063
:1015e000094178008a007800d04080008e370700db
:1015f0000844e800200120001a28b400f84f5400e5
:10160000f7ff3a000040eb0021cf2000804878002f
:10161000e8804000804878008100e8008048780039
:101620000100e8001000a100eb805000c0532a0028
:1016300080087800e2c0b300c04080007a3707001d
:101640004f0578004f04be0000000600889fbe00d2
:101650008a1f780030002000006888000080eb00be
:10166000f06788001c08f8001e08f90008c1b300e4
:1016700069c0b300eacf2000094178008a007800f1
:10168000f040800068370700600020001e28b4008a
:101690000844e900f8ff3a004f0578004f04be0007
:1016a0000000060060882000904078000040eb00b9
:1016b0000104e00006003200608820000148e900d3
:1016c0008080e80011017800124078008208e8006c
:1016d000000006000600fa00889fbe008a9fbe0038
:1016e0008c9fbe000044780001457800205e800099
:1016f0000000e0000c00320040bc200019c0b30024
:10170000030037008944e800e8cf54004501320067
:101710005000e000fbff3a0040002000e8cf5400fa
:1017200002003a00400137008044eb008984fb004e
:10173000c0c0b300853a0700800078006c80440088
:1017400000004000c2ba20000131780040002000b3
:101750000100e000340132000804e0005e003200c5
:1017600030628000a00098006c80440000004000bf
:101770008200780061017800b34480003301980052
:101780006101780074c8b3006586200015424200ec
:1017900073862000934178008341520023419800d2
:1017a0006100780020409000683a07000000e000e7
:1017b00009003a00ec84440089844400c8ba20003f
:1017c00068807c00643a070009044400000ceb00c8
:1017d0004000200014013700ec804400818040006c
:1017e000c2ba2000e2807800800878000a85fb00f9
:1017f0004655dd00000178000a34a0000a5978003f
:10180000718820009140780001d940006189200052
:10181000115978008100e8001159780061c4200056
:10182000115978008100e80011597800e188200002
:10183000114678000c597800f28040001159780068
:101840007186200091407800e3c7b30083cf500039
:101850000c003e0068004000848a20008140e800bf
:1018600076862000014b78008180fb0064d87800e8
:1018700000017800718620009140780083cf5000ed
:10188000f6ff360066c8bf008040e90001427800dc
:1018900063862000844978000004e000580032008c
:1018a00002007800848a2000824050008180fb0082
:1018b00064d8780061862000914078008141e90079
:1018c0000343780065862000864a78000104e00022
:1018d000f5ff3a004a0037008288200012007800a5
:1018e0006402500073448000a30098006c804400a0
:1018f00000004000c1ba2000e10278000402e900c3
:10190000040978008401780023437800f6429800a7
:10191000e10278000309780093417800e3429800df
:10192000630952008281e900134278006841420055
:1019300082497800e1017800a241980061007800b6
:1019400020409000013a0700000478000800e00001
:1019500009003a00ec84440089844400c8ba20009d
:1019600068807c00fc39070009044400000ceb008f
:1019700040002000ac0037006c80440000004000b4
:10198000c1ba2000610078000808780045ff070010
:10199000f043b2000a85fb004655dd000a4c70009a
:1019a00040ff0700006c78003eff0700006c7800e5
:1019b0003cff0700006c78003aff0700006c7800dd
:1019c00038ff0700006c780036ff07000046e9008a
:1019d0000c6c780033ff0700006c780060882000f2
:1019e0001004e000060032000804e800000578005a
:1019f0002cff0700005c78001a04e000fcff3a00ae
:101a0000ec8544008b854500caba20006a847d00bd
:101a100070805700bd3907000fb897009fb8970036
:101a200040049800510498006a807d0030009000c6
:101a300071815700f2805700a2fd07000004e0000a
:101a40000a003a000a04be0068807c00100078009a
:101a5000c139070068807c00bf39070009044400d1
:101a6000000ceb00400020006f0037006a08a9005e
:101a7000f0c7b30067e8b7006668ef00efe89700cb
:101a80000180fb0000004000018420006104780018
:101a9000e0c0b300ad390700600498000000e0002a
:101aa0001e003a00100020000068880062c0b300e9
:101ab000e1cf2000f04080005b3607000884200062
:101ac0006fe997000280fb0000004000680078008a
:101ad000a1390700efe997000380fb0000004000f8
:101ae000000444000005eb000a0c7800ec8444007c
:101af00089844400c8ba200068807c001000780007
:101b00009539070068807c00933907000904440078
:101b10000a0c780040002000430037000d842000ac
:101b20006fea97008480fb0081804000ed807800a0
:101b300032bc200092427800e54898006bc4200037
:101b40001b037800c60098000045eb00fa48980097
:101b5000110a9000f38f2f008301620003a0a00000
:101b600003b0a1009308980011c0b30001487800a9
:101b70000004780000c8b300006c780012407800c0
:101b8000006c78000049e800ec844400898444003b
:101b900077005100e0807c00e1409000016c78000b
:101ba00060807c0070409000006c78000a6c7800c7
:101bb0007afe0700006c7800080078000c68780056
:101bc0008b00e800116878001b68780000e8eb00e3
:101bd000c1cfb300016878000a68780091c0b300f3
:101be000114098007080570048390700efe89700cf
:101bf0000180fb00000040006d007800d21f2c0027
:101c0000f3ff2f000fba97009fba9700040141001d
:101c100085814900220098003300980010002000c0
:101c200001003700400020004f06be004f05be00f7
:101c30004f04be000080fa0000000600889fbe002e
:101c40008a9fbe00800578001608f8001a08f9007f
:101c50000044eb00c9ce20000a20200022c1b300be
:101c6000d1408000e0cd2000bb35070019006500a1
:101c70000600320082002000e1cd20000b00780039
:101c8000ebfb07000000e000050032000844e8001c
:101c9000200120001a28b400f84f5400efff3a004a
:101ca000084078004f05be004f04be00000006004b
:101cb000889fbe008a9fbe00000578001608f800c5
:101cc0001a08f9000044eb00c9ce2000e685540054
:101cd00022c1b300d1408000e0cd20009e35070036
:101ce0000020200019006000020032009b0f150048
:101cf000050032000844e800200120001a28b40042
:101d0000f84f5400f2ff3a00084078004f05be003b
:101d10004f04be0000000600889fbe008a9fbe00e0
:101d20008c9fbe008e1f78000006780001077800a7
:101d30001608f8001a08f9000044eb00e9cd20006d
:101d40006e8544000b202000e886440022c1b300c9
:101d5000d1408000090078007f3507001a806500b7
:101d6000050032009d0f160003003a0080ce2000cf
:101d7000900f1700050032000844e8002001200001
:101d80001a28b400f84f5400f0ff3a0008407800d9
:101d90004f0778004f06be004f05be004f04be003f
:101da000000006000800fa00e880570002722800d0
:101db00007000900b258780082002000e880570030
:101dc0009bfb070000f0a7000000ea000000e9000c
:101dd0004f00de000080fa0000000600889fbe0071
:101de0008a9fbe008c1f78001608f8001a08f900b8
:101df0000044eb00c9ce20000a0c20000986e9004f
:101e00002bcf200022c1b300d1408000e0cd2000c4
:101e100051350700190078000098a3000d0032002a
:101e20000a00600001042000810f50000900320008
:101e30000000e00007003200000eeb003c167800c6
:101e40009b4de90022c1b300e1cd2000d0408000cd
:101e5000753507000844e800200120001a28b40066
:101e6000f84f5400e7ff3a00e2c0b30001cf200072
:101e7000c04080006c3507004f0678004f05be005b
:101e80004f04be00000006006a08a80023c0b3008b
:101e9000c28820000349780042c420001202780062
:101ea000544488003462800074448800d488200040
:101eb000034a780012017800f2448800b044880098
:101ec00002c420001241780082487800f3004200ea
:101ed00082487800f78050008048eb00e10f400016
:101ee0000b0032008100e9001180a00070ff0700a4
:101ef000f84f50000600320000102000c1ce200034
:101f00001100600002003a008088200010a0a000ac
:101f100011c0b3008088200001487800000006004e
:101f20000200fa00889fbe008a9fbe0082047800eb
:101f3000804578004805de00e4cf500013003200f1
:101f40008180fb0081804000008420006080780058
:101f50002050900062c0b3000440bc00e340800009
:101f600083004100f140880062c0b300e0cf200050
:101f7000f934070000d020000008eb0062c0b30075
:101f80008080e900f04080002735070066c8bf0068
:101f90008080fb00888a200022c0b30002f4780011
:101fa0000040e8008080fb001941900002f47800b6
:101fb0000040e8008080fb002941900002f4780096
:101fc0000040e8008080fb000bf478000040e8004f
:101fd0008080fb000af478000040e8008080fb006d
:101fe0004941900002f478000040e8008080fb0046
:101ff0005941900002f478000040e8008080fb0026
:10200000e944900009f478000040e80066e8b70071
:10201000798620009944780060fd07008980fb00e4
:1020200000f478000940e9008080fb00a2c0b30002
:1020300002f478000040e9008080fb0072c42000b8
:102040001241780002f478000040e9008080fb0033
:1020500062c420001241780002f478000040e900d8
:102060008080fb000af478000040e9008080fb00db
:102070000bf478000040e9008080fb000041eb0099
:1020800002f478000040e9008080fb0092c0b300b9
:1020900002f478000040e90067e8b700ea805700e2
:1020a0007044800078ff07004f05be004f04be005b
:1020b0000080fa0000000600889fbe008a9fbe00d4
:1020c0008c9fbe008e1f7800804578001608f800af
:1020d0001a08f90088c1b300c9ce20000a202000e8
:1020e0000986e800e4865400ae88200022c1b300cf
:1020f000d1408000e0cd2000973407001900650032
:10210000050032009ccf150003003a001d00780046
:102110009e0f500006003200200120001a28b40053
:102120000844e900f1ff3a000040eb0001003700ed
:1021300010c0b3004f0778004f06be004f05be0029
:102140004f04be0000000600e4874700889fbe00e1
:102150008a9fbe008c9fbe008e1f7800000678000c
:1021600081bf9f001608f8001a08f90088c1b30063
:10217000c9ce20000a2c20000b242000e686540043
:102180003ecf200022c1b300d1408000e0cd20002e
:1021900071340700190065008b0f50000d003a00e4
:1021a0009d0f5600060032001e41e8008c007800aa
:1021b0001d007800c4fc07000004e00005003200a8
:1021c000316780000fb897000108780010c0b30095
:1021d00005003700200120001a28b4000844e90057
:1021e000e8ff3a000040eb004f0778004f06be00c2
:1021f0004f05be004f04be004f00b10000000600b6
:102200000200fa00889fbe008a9fbe0080457800c9
:102210000104780002457800830478000800780003
:10222000a3fe0700f84f50000b003200000c200006
:10223000c1ce20001100600001042000810f500079
:10224000020032000000e00003003a00880c780031
:102250000000eb002800370004c8b30088017800b4
:10226000326280008040eb000140780056fc07009d
:102270000004e00016003200e24f550004003a006e
:1022800011c0b3000b40780012fd07001a003700a0
:102290006a8157000800be0020fc07000004e0002f
:1022a000050032000000eb00eff097000104e000b1
:1022b00007003a0010003700e14f550004003a00d3
:1022c00011c0b3000b40780002fd07000a00370080
:1022d0000800be009cff0700804078000000eb0073
:1022e0000104e00004003a0011cdb3006088200032
:1022f00001487800200020004f05be004f04be00ba
:102300000080fa00000006000004e0002a0032000d
:10231000d0c220000048eb0011c2b3000000e8006a
:102320000148780030cf20001040780031002000b4
:102330008100dd00f2c2200001497800a2cf200018
:1023400033c1b30092cf11001b003e006801510061
:1023500073c1b30092cf110017003e00028020002d
:10236000c3ba20001301610005003a00e44f500099
:1023700003003e00f0c220000174a0000148780074
:1023800030cf200041c0b30090cf10000a003e00c3
:102390006800400053c0b30090cf110006003e001b
:1023a00000002100c1ba20001100600002003a00c4
:1023b000f0c220001024a00000000600606780002a
:1023c00000017800020cb20001042000810f5100ce
:1023d00009003a00a1cf20009148e9000003b200b3
:1023e000f00f500002003a000100e8001048e90038
:1023f00010c0b300c4ff0700a0ce20000008eb000f
:102400003010780022c1b300ec005000d0408000b2
:102410000534070020cf20001048e900e2c0b300d7
:102420008080e900c0408000ff3307000000060004
:10243000e08820001001be00f26688000367880073
:1024400020019000b0019000126788002367880087
:102450002362800043678800e0ce200000c8eb00c4
:102460006088200010007800620060000f003a00d1
:10247000c0ce2000f1fc2f00908060000150a00031
:102480000108780060cf2000900078003167880054
:102490008100e80001087800e28f400017003a0050
:1024a000c0ba200010b0a00014003700c0ce200039
:1024b000f1fc2f00908060000140a000010878002e
:1024c00080cf20001001780032678800e3004000d0
:1024d0009148e800a2678000900041000108780060
:1024e0006611b90060c4200010014100828f5000c5
:1024f00002003600c0ba200010c0a000c0ce2000ec
:1025000031448000c508dd000110b20010017800e0
:102510000280a10082807000f2f32f0082806000b0
:102520000124b3000108780022c1b300ee0050007e
:10253000d0408000bc330700a0cf20001048e80046
:10254000680050001048e800e2c0b3008080e90055
:10255000c0408000b433070010c0b3006aff07001a
:1025600000000600889fbe008a9fbe008c1f780076
:1025700080447800300880003ee8b7006a68ef00c9
:10258000c0ba2000100178000008eb00301078007d
:1025900001002200810061001001780002d0a1003a
:1025a00001087100d0b420000206200000014100a3
:1025b0008040eb00014878000080e800820f500066
:1025c000fcff3a000904e00004003a00b05f80001c
:1025d0000000e00001003200df36070060bf20008d
:1025e0000008eb00a8fb2f00000444006e05440027
:1025f0008005eb000904e00007003a0018007800ad
:102600000000e0000400320010007800d23607001d
:1026100018007800d03607000b1c78008a0f540091
:10262000f4ff3a0048bc2000700544008005eb0030
:102630000904e00007003a00180078000000e000fc
:102640000400320010007800c3360700180078003c
:10265000c13607000b1c78008a0f5400f4ff3a00c3
:1026600008842000680544008005eb000904e000b0
:1026700004003a00180078000000e0000100320079
:10268000b53607000b1c78008a0f5400f7ff3a009c
:10269000eefb07004f0678004f05be004f04be005a
:1026a000000006002f03b000889fbe008a9fbe0076
:1026b0008c9fbe008e1f780000047800a0fd2f00c4
:1026c0000f004000913607005fa89700efa8970021
:1026d000f0b79f0081bf9f00c0ba200010007800b3
:1026e0006400600011003200e0bb20007fb2970060
:1026f0008fba970030015200a0815a006400400058
:102700001082fb008002eb0040422f000020b80046
:10271000800f5100818f590004003600c0c2200094
:102720001000a100c0ba20001020a1000800e000a5
:1027300054033a000000eb006a08ab00630f3a0054
:10274000c0ba20001000780061006000470132002c
:10275000ecba20008006eb00ddb79f000c86e80095
:10276000ecb79f001c0578000a00e0002c01320045
:102770007fb097008fb89700b0b79f00c1b79f0098
:102780001a0c9000aa0c900008045000898458008c
:102790000800be00c2f7070002a02b00b37524009a
:1027a000bdf707000000e000080034001a007800c0
:1027b00069360700efb1970013007800663607000e
:1027c0006fb29700000aeb0015013700ba089000bd
:1027d0000158a30012013a000e20a1000e10a10022
:1027e000ca4d9000f8cf550050003200e1cf4500af
:1027f00017003a007a0090008a0890003fb39700d3
:10280000cfb397000000530081805b00f7e1240004
:10281000870f5000e08f5800400036000080eb002a
:10282000a0a79f000e20a0000e10a000a0fd2f006a
:102830000f004000353607005fa89700efa897000b
:10284000100d9800210d98008045eb0033003700f3
:102850006fb497000b40780022c1b3000440bc0065
:10286000b040800080004100d140880022c1b30008
:10287000e0cd2000b8320700c1ce20001100780062
:102880000098a30005003a000b80fb0018004000f0
:102890008040eb00715098001b00370098007800d2
:1028a00041019000e40f410009003200e30f4100b4
:1028b00002003a000088a3000500320063ce200029
:1028c00013017800b1019000830f510005003a0018
:1028d0000b80fb00808040000040eb00f05098002f
:1028e000090037000088a30007003a00a2a79f0054
:1028f0000e20a0000b80fb008080400071509000f3
:102900000004a100f05098008b45e8000e28a300b9
:1029100002003a00f7cf5500ceff3600efb2970025
:10292000150078004b489800330037000e00a000d7
:1029300066882000004beb00ba0990000000eb0015
:1029400012c0b3000388a300040032000a0037005d
:102950000241e800f84f5100250032000000e80075
:1029600080014500f35190000308a300f8ff3200f6
:10297000f84f51001e00320000cfb30067882000de
:10298000804b7800ef8060001900320030422f0049
:1029900001002000800f5400818f5c00130036007e
:1029a0000e00a1000080eb00a0a79f000e20a00059
:1029b0003a089000ef404000ef80600002ff2f00d7
:1029c0000200600000807000300d9800a0fd2f0014
:1029d0000f004000cd3507005fa99700efa99700d1
:1029e000120d9800230d9800010037000e00a10081
:1029f0000e08a30025003a000e4078000e02780071
:102a00000428a30086003200dfb4970008c3b30097
:102a10000018a3002d0032000980e80000004000eb
:102a2000c1ba200061007800b000900060c42000ae
:102a3000908f500025003a00d0b420000044eb00f5
:102a40001004e00006003a00200037000844e800c7
:102a50000080e800814f540004003a00080037006d
:102a6000f0b4200018c0b30001c3b3001004e000ac
:102a7000f6ff3a0000c3b300804f540013003a0041
:102a800011cfb3006088200001487800dfb29700c2
:102a90000580e80000004000c1ba20006100780015
:102aa000018a20003043900086487800b0089000ea
:102ab0000150a000310898000000eb000148a3007d
:102ac000820e320040032000800e37007186200005
:102ad000914078000980e80000004000c2ba200060
:102ae000620178008181fb00808a2000b24390005f
:102af00007f079008140e9008181fb0042429000ab
:102b000004f079008140e9008181fb00f2429000ed
:102b100005f079008140e9008181fb00624390006b
:102b200006f079008140e9008181fb00924b900022
:102b300007f079008140e9008181fb00024a9000a2
:102b400004f079008140e9008181fb00a24a9000f5
:102b500005f079008140e9008181fb00324b900053
:102b600006f079008140e9000140780067e8b7008d
:102b70008040eb00a1c79f00120278002240900025
:102b80000004e0001000320004007800858a200074
:102b900061862000914078008181fb0030437800fd
:102ba00086f279008140e800814178006786200044
:102bb000834b780084405000a1c79f00a241900041
:102bc00081cf5100f2ff3e0021fc2f008f8040009a
:102bd0002fa09700acfc07000001200001c3b30048
:102be000814f5400390e32000884fb000804440071
:102bf000c0b420002fc2970004707c008984e800d4
:102c000089844400c0ba2000e0807c00d0b4200059
:102c1000b140900001707c00000120002b0e3700b5
:102c20008d06e800e78f5600cbfe3a00805d8000fd
:102c30000000e000050032000c0037000040e80012
:102c4000e74f500003003a000600370001bb2000a8
:102c500010c0b3005100e000f8ff3200e74f500011
:102c600002003a00c0ba20001000a100c0ba200043
:102c70001000780062006000e90132007fb2970026
:102c80008fba9700e8832000880178008000eb006d
:102c90002ce023000d002000080078000404be0092
:102ca0008005780001057800530078000000e000fe
:102cb00060003200600190000200e0005d00320020
:102cc000900a900005b8a30008003a002003900085
:102cd000b00390000603540087835c008c0f530000
:102ce0008d8f5b00530036000b00370020039000ef
:102cf000b00390000603540087835c00f4c32900ee
:102d000005002000840f5300858f5b0049003600ca
:102d10008201780001003700820178008042eb00d8
:102d2000a5c79f008303780066834100858a200041
:102d300061862000914078000182fb0032447800d7
:102d400088727a008140e80001447800648620009f
:102d5000084a780087405100a1c79f00860f5100a4
:102d6000f3ff3a00e68141000041eb00a2c79f005b
:102d700082407800858a2000728620001241780007
:102d80000282fb003343780086727a000241e90038
:102d90000244780077862000884b78008140e80064
:102da000a1c79f00e8cf5000f3ff3a0090089000c1
:102db00001b0a1004809de006741410067016100e0
:102dc0004811dd00f38f2f008380600081007100c7
:102dd000110898007fb197008fb9970022009800e2
:102de000330098000a00450001842000610078004b
:102df00010099000017020008100610007003a0076
:102e000060009000d43407000a05450000842000cb
:102e100060007d008000eb006100980021fc2f0025
:102e20008f8040000080eb0017fc070000012000ad
:102e3000a60d37008100e800e48f500099ff3a00aa
:102e40000b0478006b8420008c9628009d002000e5
:102e50000ed020000884e80088047800180078006c
:102e60000000e000210032007fb297008fba970087
:102e700030015200a0815a008c0f51008d8f5900f3
:102e80001a0036002050900062c0b3000440bc001d
:102e9000e140800081004100f140880062c0b30041
:102ea000e0cf20002c310700150020009e8f12007b
:102eb00006003a0020002000000f780062c0b30036
:102ec000e1cf2000f0408000573107001900780062
:102ed000600090000000e000010032009e34070016
:102ee000190078009c340700800ceb008b0f540015
:102ef000d8ff3a000043eb00a6c79f0006407800c9
:102f0000c8ba20000080fb006c00400000004000b8
:102f1000680078000000e0000c01320030009000f2
:102f200062fc2f000f01410041fc2f008f80400008
:102f3000faf807000004e000850032006fc0970037
:102f40000004e00076003a00afc397000780fb0062
:102f50006c00400000004000c1ba2000e101780090
:102f6000a30090000044eb0060c42000908f50004c
:102f70002d003a00d0b420001004e00006003a0012
:102f8000290037000844e8000080e800814f540021
:102f900004003a0008003700f0b4200018c0b30065
:102fa00001c3b3001004e000f6ff3a0000c3b30011
:102fb000804f54001c003a0093007800008a2000e3
:102fc000f14090000148780011cfb3007a00500022
:102fd00001487800130078005f3407002fc4970081
:102fe0000880fb006c00400000004000c8ba2000d0
:102ff0006800780058340700afc097000180fb00dc
:103000006c0040000000400000044400000ceb0095
:103010006a08a900f0c7b30067e8b7006668ef0068
:1030200040032000290d3700130278000040eb0018
:10303000b0c79f00234090000004e0001000320061
:1030400004007800858a2000618620009140780085
:103050000181fb0030437800867279008140e800ee
:103060000141780067862000824b78008440500040
:10307000b1c79f0023419000814f5100f2ff3e00f5
:1030800031fc2f008f8040002fa097007efb0700af
:10309000afc197000380fb006c00400000004000bf
:1030a000c1ba2000610078002001900061c42000b6
:1030b000910f510009003a000884fb000804440005
:1030c000c1b420003fc2970084707c0010017800da
:1030d0008100e8007241900082707c00100078004e
:1030e0001d340700afc297000580fb006c00400054
:1030f00000004000c8ba20006800780016340700bd
:103100002fc397000680fb006c00400000004000c9
:1031100000044400000ceb0000012000eb0c370021
:10312000e24f500089003a00afc397000780fb00d0
:103130006c00400000004000c1ba2000610078002f
:10314000a000900060c42000908f500020003a0042
:103150002fc497000880fb006c0040000000400076
:10316000c8ba20006800780010017800018a2000a9
:103170007241900082487800fa8050008048eb004d
:1031800010007800f4330700afc097000180fb0007
:103190006c0040000000400068007800ee3307003b
:1031a0002fc197000280fb006c004000000040002f
:1031b00000044400000ceb006a08a900f0c7b3004b
:1031c00067e8b7006668ef0040032000bf0c3700d7
:1031d0007886200018447800f0f807008880fb000b
:1031e000828a200000f178008841e9000380fb001a
:1031f000a1c0b300017178008341e9000380fb00a6
:1032000071c42000117178008341e9000380fb0044
:1032100061c42000117178008341e90021fc2f0076
:103220008f8040003180fb006c00400000004000b7
:10323000c8ba2000680078000382fb00d0429000ea
:1032400005717a008341e9000382fb00404390004e
:1032500006717a008341e9008382fb000042eb00a3
:1032600004f17a008341e9008382fb0096c0b30039
:1032700006f17a008341e9008342780077862000d6
:10328000854b780063862000934178008382fb00a1
:1032900036c0b30006f17a008341e8008382fb0068
:1032a00004f17a008341e8000382fb006043900050
:1032b00006717a008341e8000382fb00f04390002e
:1032c00007717a008341e80003427800628620009b
:1032d0000449780020009000ebfa0700afc2970085
:1032e0000580fb006c004000000040006800780092
:1032f00010007800983307002fc397000680fb006a
:103300006c00400000004000680078000005eb0001
:103310000a087800afc397000780fb006c004000ec
:1033200000004000680078008b330700afc09700b2
:103330000180fb006c0040000000400000044400dd
:103340000a0c780000012000600c37002fc19700a4
:103350000240e800a0c79f00e74f5000e9fe36009a
:103360008041eb00a3c79f001c08f8001e08f9006d
:10337000e8cf20000885e80062c0b300f14080007b
:1033800008007800f42f0700240020009a0f120094
:103390000c003a003000200000688800e1cf2000d7
:1033a0008088eb0062c0b300f04080001e30070050
:1033b00021c0b30060882000014878003007200059
:1033c000420c3700afc297008540e800a1c79f00bc
:1033d000600020001e28b400efcf5000e6ff36004a
:1033e000205e80000000e0005c0c32000c00370022
:1033f0000040e800e84f5000040032005100e000b7
:10340000fbff3200e84f500005003a004008e200a0
:103410004b0c320002003700c0ba20001010a1008f
:1034200001082000c0ba2000908060000000eb007e
:10343000260c3200c0ba20001070a10041b3200059
:1034400060882000114878008100e8000000e80052
:1034500011487800e6598000764488006f004000eb
:10346000ef80400031187800211078002101900091
:10347000b10190002200980033009800c0042000a1
:10348000120c3700f0fe2f00f1ff2f000004440063
:10349000e084480013062000830f5400e08f5c0096
:1034a000070c3e000860010061003700dc003700b7
:1034b000030c3700020c3700010c3700b806370048
:1034c000ff0b3700fe0b3700fd0b3700fc0b3700fe
:1034d000fb0b3700db063700f90b3700f80b370022
:1034e000f70b3700f60b3700f50b370041073700b5
:1034f000f30b3700f20b37004b073700f00b3700a8
:10350000ef0b3700ee0b37007c073700bc083700a5
:10351000eb0b3700ea0b3700e90b3700ca0837001e
:10352000e70b3700e60b3700e50b3700ee083700f6
:10353000fd083700e20b3700e10b3700e00b3700e6
:10354000df0b3700de0b3700dd0b3700dc0b3700fd
:10355000db0b3700da0b3700d90b3700d80b3700fd
:10356000d70b3700d60b3700060a37000b0a370097
:103570001e0a37003c0a3700400a3700460a370067
:103580005f0a37000d0b3700110b3700cc0b3700eb
:10359000cb0b3700ca0b3700c90b3700c80b3700fd
:1035a000c70b3700c60b3700c50b3700c40b3700fd
:1035b000c30b3700c20b3700c10b3700c00b3700fd
:1035c000bf0b3700be0b3700bd0b3700bc0b3700fd
:1035d000bb0b3700ba0b3700b90b3700b80b3700fd
:1035e000b70b3700b60b3700b50b3700b40b3700fd
:1035f000b30b3700b20b3700b10b3700b00b3700fd
:10360000af0b3700ae0b3700ad0b3700ac0b3700fc
:10361000ab0b3700aa0b3700a90b3700a80b3700fc
:10362000a70b3700a60b3700a50b3700fb0a3700a6
:10363000008a2000904278007a0050001043780001
:103640000041eb0002407800c3ba20008083eb0009
:1036500001003700004178000080fb00c200dd005f
:10366000a102b000e3807800e18f40004800320002
:103670006a0240004222dd000482410014429000b0
:1036800084cf520042003a000604e0003d003200c0
:10369000810178008000780003007800a2c79f00b5
:1036a0006a08a800ea814000c219dd00c8ba2000fb
:1036b0007292200068c97900a3c0b3000201e9003a
:1036c0000349780073c420000201e900134978001f
:1036d0008301e9000201e90013497800c208dd0016
:1036e000b2022000010141006841790033922000bc
:1036f00082497800a102b000e8c078008301e900a7
:10370000814978008041eb0014922000034a780040
:1037100095c0b3000402e900054a780076c7b300fb
:1037200075862000864a780035c0b300848a200060
:10373000054a78000402e800034a78008401e800a2
:10374000814978008300e8008248780042c0b300d5
:1037500067862000824b780021fc2f008f8040007c
:10376000c9f90700afc197000380fb004200dd00ec
:10377000000444000080eb00501498000001200079
:10378000520b37004200dd000080410057109800c6
:103790000240e800e74f5000aeff3600008a2000ec
:1037a00010417800c0b420008040eb00904f110021
:1037b0006e0b3a000a0037008140e8000080e80004
:1037c00083cf5000400b3200904f1100faff3a00b7
:1037d0000000eb0002c3b30082cf50003b0b32006d
:1037e0008180fb0001804000d2b42000624178005b
:1037f0000040eb000204e00003003200008a2000d9
:103800000248780040c3b30081804000d2b4200059
:10381000810041008048eb000080fb002b0b37004b
:10382000a0f70700a0ef9f0000427800c4ef9f00c0
:103830009cf7070080467800eddf9f0099f70700ae
:10384000e0e79f000086fb0096f70700c0e79f00b7
:10385000004378004830dd000c06700091f7070047
:10386000e0ef9f008085fb008ef707008044780022
:103870004848dd008b0570008af70700a0e79f002d
:1038800088f70700004778008de79f000d38a300f8
:103890000b0032000044eb00a8c79f004ac2200082
:1038a00080f707000884fb0000757c002fc097009c
:1038b0000044e800a8c79f00e74f5400f8ff360017
:1038c0008fe097000148a3000c0032000041eb009c
:1038d000a2c79f0002447800cac1200071f7070008
:1038e0000884fb0000757c00afc197000344e8002a
:1038f000a8c79f00e74f5400f8ff3600b04480008f
:10390000e10f4000f70a32000c047800e50f460092
:10391000d80236000042eb00a4c79f002fc29700d8
:103920008b027800e2ba20000040eb000100370073
:1039300000427800d20078000100e0000b00320065
:10394000b1019000838f520008003a00b14090000e
:103950008ecf500005003a00a4c79f00ebf6070089
:103960001d2107000000eb00d80a37000040e800e6
:10397000e74f5000eeff3a00a0c79f00cfea970044
:1039800063c06200e14f500052023a0045f7070061
:10399000a0c79f00e14f5000a1013a000010200095
:1039a000c1ba2000110060004702320060c420004c
:1039b000908f550003003a00072107000000eb003c
:1039c000c20a370010c0b30080cf9f0035f7070050
:1039d00090cf9f0033f70700a0cf9f0031f707007b
:1039e000c0cf9f002ff70700d0cf9f002df7070013
:1039f000804478008940e800e1cf9f00108a2000d1
:103a00001040780072cdb300824f500002003e009b
:103a10008140e800e1cf9f0031cbb300814f5000df
:103a200003003e00efc897008140e800e1cf9f000f
:103a3000f1c8b300814f500003003e00efc897006b
:103a40008140e800e1cf9f00b1c6b300814f500034
:103a500003003e00efc897008140e800e1cf9f00df
:103a600071c4b300814f500003003e00efc89700bf
:103a70008140e800e1cf9f0031c2b300814f500088
:103a800003003e006fc897000040e800e0cf9f00b1
:103a90001fca9700efa197000b017800afc89700ed
:103aa00010c0b30048f607000004e000d100320067
:103ab000b0448000e10f4000ce003a000040eb002f
:103ac000e0c79f00afca97000b02780080407800e3
:103ad0000140780003842000040037000040e80023
:103ae000e44f50000d003200804078000081fb0060
:103af00002014100630479000800e000f7ff320092
:103b000068499000854f5100f4ff3a004801900049
:103b1000840f5100f1ff3a00750a3700e0c79f009b
:103b200072fc2f000f01410061fc2f008f804000cc
:103b30006fa0970063f507000004e0002a003a0038
:103b4000260037007644800056009800714898009f
:103b500089c05000115098006fa09700316280001a
:103b6000808f50000900320051f80700f84f5000d4
:103b700057003200010c2000c0ce20009080600071
:103b800000042000808f500051003a00922007006e
:103b90000000eb006a08ab004c0a3a00efc0970047
:103ba0000180fb00000040000284200062007800d9
:103bb00010509000e0cf9f0082fc2f000f014100c9
:103bc0000b007800d6f80700000120003f0a3700fc
:103bd000812007000000eb003c0a37007e20070030
:103be0000000eb00390a37006fc097000080fb002f
:103bf000000040000184200061007800afcb9700f6
:103c0000674898004b00980078448000580098005e
:103c1000efc8970071489800080178008b0f510099
:103c20000600320090099000f28f2f00028161009f
:103c30000280a0001208980005003700900990004b
:103c4000f28f2f00028161000230b3001208980049
:103c50001009900002b0a0001208980089c050001e
:103c6000115098006fa0970031628000808f500043
:103c7000090032000ef80700f84f5000140032001f
:103c8000010c2000c0ce20009080600000042000c5
:103c9000808f50000e003a004f2007000000eb001c
:103ca0006a08ab00090a3a006fc8970089445000bf
:103cb000e9cf9f0082fc2f000f014100efc0970069
:103cc0000b00780096f8070000012000ff0937007c
:103cd0006a08ab00d2003a006fc097000080fb007a
:103ce000000040000184200061047800680090001a
:103cf0000000e0000b003a00e0c0b3001331070001
:103d0000600498006fc097000080fb000000400036
:103d10000184200061007800600090000000e00055
:103d2000310032008fc89700014878001fc9970002
:103d30000268780000047800afc99700036c78002f
:103d40004fca9700046c7800dfca9700056c7800b2
:103d50006fcb9700066c780010f60700006c7800b7
:103d600008007800afe397000768e900c858de0054
:103d7000016878000b687800c860de000168780090
:103d80000c6878006fdc970008687800cfe897002f
:103d900011409800098420006fc097000080fb004c
:103da0000000400069047800a0fd2f000f004000d3
:103db000d63007005fa99700efa99700220498006a
:103dc000330498006fc097000080fb0000004000a3
:103dd0006900780010099000f18f2f0081006100c8
:103de00001a0a00011089800fb1f07000000eb00d5
:103df000b609370070448000adf70700f84f500057
:103e000010003200010c2000c0ce20009080600025
:103e100000042000808f50000a003a0070448000a7
:103e20008b0f50001200320030cf20001041e8000c
:103e30008b00780070448000a3f507000004e000c8
:103e40000b003a0071448000e0c32000908f5000c6
:103e500070003a0030cf2000104178008b007800cd
:103e60003062800098f507000004e00069003a0025
:103e70006fa0970031628000808f500009003200ef
:103e80008bf70700f84f500014003200010f20009c
:103e9000c0ce20009080600000062000808f50007f
:103ea0000e003a00cc1f07000000eb006a08ab00d0
:103eb00086093a006fc8970089445000e9cf9f00f7
:103ec00082fc2f000f01410041c0b3000b007800bd
:103ed00013f80700000120007c09370041fc2f0087
:103ee0008f8040000c00780097f807000004e00085
:103ef000450032006a08ab0043003a0066c8bf00c4
:103f00008080fb00888a20008fc9970003f4780026
:103f10000040e8008080fb001fca970004f478008e
:103f20000040e8008080fb00afca970005f47800ed
:103f30000040e8008080fb003fcb970006f478004b
:103f40000040e8008080fb00cfcb970007f47800aa
:103f50000040e8008080fb005fc9970002f4780011
:103f60000040e80066e8b7007986200099447800b0
:103f70008af507008980fb0000f478000940e90019
:103f80008080fb00a2c0b30002f478000040e9008a
:103f90008080fb0072c420001241780002f4780097
:103fa0000040e9008080fb0062c4200012417800dc
:103fb00002f478000040e9008080fb004861de00e8
:103fc00002f478000040e9008080fb000cf47800e7
:103fd0000040e9008080fb000041eb0002f4780023
:103fe0000040e9008080fb0092c0b30002f478003a
:103ff0000040e90067e8b70021fc2f008f804000f7
:104000002fa09700a0f70700731f070000012000f2
:104010002e093700701f07000000eb002b09370046
:10402000afc19700e4cf5100a7003a009df507000b
:104030008044780060c42000908f550003003a004f
:10404000651f07000000eb00200937002fe29700f2
:10405000e14f52006200360070fc2f000f0040005c
:10406000d6f307000004e0005a0032007fc097003a
:104070008080fb008180e80081804000c8ba200079
:10408000e8807800310990000240a100b208980051
:104090001ef50700ffc097008180fb0060882000ac
:1040a000104078008180e8008180400068817800bd
:1040b0002041980068817800cfea97003549980040
:1040c000688178006fdb9700264998006881780046
:1040d0004c019800688178003b0198006881780065
:1040e000afe397008741e900434198006881780079
:1040f0003e4198006884780014300700000c780076
:104100000000e00010003a007fc097000080fb0034
:104110000080e80000004000c8ba20006800780075
:104120000d3007007fc097000080fb000080e80092
:104130000000400000044400000ceb00261f0700b4
:104140000000eb00e10837000044eb00a8c79f0027
:104150007fc097000080fb000080e8000000400066
:10416000c1ba2000610078001000780041c0b3009f
:104170000148780010c0b300a0c79f0060882000ed
:104180001004e00010003200ccba20008006780055
:104190002fc497007fc097000080fb000080e800dc
:1041a000000040006c0078000885fb001005450009
:1041b0003cf50700004d78000844e800a8c79f00c0
:1041c0001d04e000f2ff3a00c0ba20001000a00079
:1041d00003003700001f07000000eb00bb0837009a
:1041e0000b007800b2f60700a0c79f00f84f500000
:1041f0003500320071f80700f71e07000040eb00a1
:104200006188200080487800f0804000e3cd2000e5
:10421000b3187800a3107800648141001202be0038
:10422000a4009800b5009800e8805000b31878000a
:10423000a3107800a4009800b5009800a0c79f00c4
:1042400048d0200068054400a2c0b3000440bc0070
:104250001141800081004100a2c0b3000800780035
:104260003d2c07009a8f55000a003a000080eb00b1
:1042700060688800afc397000780fb006a00b90040
:104280002208b400a2c0b30041d02000662c070071
:1042900005003700afc097000140e800a0c79f00ad
:1042a000e74f5000e8ff3600c00320000968a30074
:1042b00086083a006088200002c2b30002c8640089
:1042c000d004200081083700c31e07000000eb0067
:1042d0007e083700afe19700e1cf51005c00360067
:1042e00070fc2f000f00400034f307000004e000d2
:1042f000540032007fc097008080fb008180e8007e
:1043000081804000c8ba2000e88078003109900020
:104310000240a100b20898007cf40700ffc097009b
:104320008180fb0060882000104078008180e800d8
:104330008180400068817800204198006881780081
:104340004fea97003449980068817800efda9700c7
:1043500025499800688178004c01980068817800b0
:104360003b019800688178002fe397008641e900bf
:1043700043419800688178003e4198006884780045
:10438000722f0700000c78000000e00010003a00d7
:104390007fc097000080fb000080e8000000400024
:1043a000c8ba2000680078006b2f07007fc0970014
:1043b0000080fb000080e800000040000004440092
:1043c000000ceb00841e07000000eb003f083700e4
:1043d0008043eb00a7c79f004e4480006088200008
:1043e000904678000d04e00010003200c9ba2000a9
:1043f000000678002fc497007fc097000080fb0064
:104400000080e80000004000690078000885fb009b
:1044100010054500a3f40700004d78000844e800ab
:10442000a8c79f001c04e000f2ff3a004e44880039
:10443000608820000d487800c0ba20001000a0005d
:1044400003003700641e07000000eb001f08370060
:1044500060c42000908f550003003a005e1e0700e4
:104460000000eb00190837007b448800500320004f
:1044700016083700cfe8970063c06000e14f500096
:10448000e8013a0087f40700a0c79f00e64f5000fc
:10449000ae003a0083f4070061882000804878006d
:1044a0004d1e070066c8bf008080fb0073c0b300cc
:1044b000828a200003f178000040e80066e8b70037
:1044c000c0c12000ddf50700f84f500020003a0081
:1044d00010c0b3003ce8b70062f207000004e0003f
:1044e000040032009ff20700a0c79f00f84f500061
:1044f00015003a0061862000914078000181fb00a0
:10450000808a2000d3cfb300037079008140e80097
:104510000181fb0080c1eb00037079008140e8005d
:104520000181fb0023c0b300037079008140e800e3
:104530008141780062862000034978003c68ef00e2
:104540000045eb0015003700b9f707003c68ef00a5
:1045500061862000914078000181fb00808a200064
:1045600063ce2000137079008140e8000181fb00d8
:1045700073ce2000137079008140e8000181fb00b8
:104580008041eb00037079008140e80081427800af
:1045900064862000054a78001ac0b30046ca20008d
:1045a0000772280007000900375b78007886200032
:1045b00018447800c1ca2000688250000840780082
:1045c000838a20000081fb00c14278008571790058
:1045d0000040e900848f5000faff3a00684454001c
:1045e00041c220006882500008407800838a200081
:1045f0000081fb0041437800867179000040e900aa
:10460000848f5000faff3a00e844540080c0b300a1
:10461000a0c79f0077862000894b7800dff3070052
:104620008984fb00818a200080f07c00694054006e
:104630000080fb0012c0b300827078006a40540012
:104640000080fb0072c42000927078006b40540020
:104650000080fb0062c42000927078006c4154001e
:104660004858de00804178000281fb0080707900ac
:104670006d4054000b4178000080fb008b70780087
:104680006e4054000080fb0084c1b3008470780049
:104690006f4054000080fb0094c0b3008470780029
:1046a00070445400084278007186200084487800e5
:1046b0000a04e00003003200c0ba20001070a0001d
:1046c00002003700c0ba20001070a10068882000e6
:1046d00040b320001848780011c0b3000000e80083
:1046e0000148780035678000e55988006f00400078
:1046f000e6608000f76080000688be0004618000ec
:10470000156180002400980035009800c818dd006d
:104710000280fb00010070004042880021fc2f0055
:104720008f804000d8f5070018047800ea00640084
:1047300000012000ea8f50006407320080882000ca
:1047400010a0a00000012000600737000210200028
:10475000c1ba2000110161002f013200e14f500069
:1047600098fc3200e34f500067003a006a08ab0043
:1047700029013a006b8620009b4578000b80fb00e6
:104780008a8a200031c0b300017578008b45e800ab
:10479000658620008b4a7800c2f307008b80fb00ff
:1047a00000f578008b45e8000b40780066e8b7001c
:1047b000bcf3070061862000914078000181fb0076
:1047c000007579008140e800814178006286200010
:1047d00003497800b3f30700618620009140780018
:1047e0000181fb00007579008140e800814278007a
:1047f00064862000054a7800771d070060c4200009
:10480000900f560003003a006668ef000000eb00ce
:104810002e07370071862000914078000181fb004f
:10482000808a20000e7079008140e9000181fb0040
:104830002fe397008641e900037079008140e90089
:104840000181fb00097079008140e9000181fb00d2
:10485000efeb9700077079008140e9000181fb00d0
:104860004fe49700087079008140e9000181fb0066
:10487000efe19700037079008140e9000181fb00be
:104880000d7079008140e9000181fb002fea97005b
:10489000047079008140e9000143780075862000aa
:1048a000864a780072fc2f000f01410041fc2f0066
:1048b0008f8040000c00780098f207000004e000b0
:1048c0000b003a0041fc2f008f8040000c00780064
:1048d0001df607000004e00005003a006668ef00de
:1048e000f0c7b30067e8b7000000eb00f706370039
:1048f00021fc2f008f8040002fa0970062f5070059
:1049000000012000f1063700e24f5000c2003a00db
:1049100080d79f0063f30700804678009dd79f00f3
:1049200060f3070080447800a9d79f005df307007b
:10493000c0d79f005bf30700d0d79f0059f3070053
:10494000e0d79f0057f30700f0d79f0055f307000b
:10495000004578000d427800bfa997000b01780050
:104960008940780010c0b30097f207000004e0000f
:1049700005003a003c0037000844e800e44f5400ca
:1049800004003a009f0037002fa99700e183200020
:104990000044eb00510078000000e000f6ff320018
:1049a000e049900083cf5400f3ff3a0040009000ac
:1049b000820f5000f0ff3a00e44f540091003200a3
:1049c0008884fb00098044000d8420008086460016
:1049d0001d0078002050900062c0b3000440bc006d
:1049e00082007800e04080008080400062c0b30018
:1049f000e0cf2000582a070000d020000008eb007c
:104a00001d00780080509000814f55000300310058
:104a10000a5098007344800013688800205090006a
:104a200062c0b3000440bc00e040800000004100d0
:104a300062c0b300e1cf20007b2a07003162800012
:104a40002fa89700808f50006e00320089844400a8
:104a50000084200060807c001050900000454500dc
:104a60008adf9f00b306370060c42000900f560015
:104a700064003200674545008adf9f0048c0b300ec
:104a8000ac063700d41c0700e44f54000700320086
:104a90000884fb00080444000084200060007c00bf
:104aa00050009000a0a79f000800370041fc2f0095
:104ab0008f8040000b007800a3f50700804078004d
:104ac0000000eb000104e000800632006186200057
:104ad000914078000181fb00808a20008fd19700ef
:104ae000037079008140e8000181fb001fd297002c
:104af000047079008140e8000181fb00afd297008b
:104b0000057079008140e8000181fb004fd39700d8
:104b1000067079008140e8000181fb00dfd3970037
:104b2000077079008140e8000181fb006fd4970095
:104b3000087079008140e8000181fb00ffd19700f7
:104b4000037079008140e8000181fb000fda9700d3
:104b5000047079008140e8000143780065862000f8
:104b6000864a780071862000914078000181fb0020
:104b70000e7079008140e9000181fb00afe39700ee
:104b8000077079008140e9000181fb00c859de000f
:104b9000037079008140e9000181fb000b7079000e
:104ba0008140e9000181fb00c861de0003707900eb
:104bb0008140e9000181fb000c7079008140e9002f
:104bc0000181fb006fdc9700087079008140e900eb
:104bd0000181fb00cfe99700037079008140e90073
:104be0008142780074862000054a780021fc2f005d
:104bf0008f8040002fa09700a3f407000001200041
:104c000032063700741c0700608820000048eb0063
:104c1000300720002d0637006f1c07000000eb0056
:104c20002a06370060c42000900f560002003200b0
:104c3000e10f460007003a007b4488005844880092
:104c400021c0b300c0882000014878005003200034
:104c50001e06370000102000c1ba200011006000bd
:104c6000cc0032002fe39700e14f5300c90036001b
:104c70006a08ab00c7003a00cfeb97000781fb0042
:104c80004611de0043fc2f008f8141008c0078002c
:104c90000040eb005af50700000478000800e0002f
:104ca00003003200e10f54005e003a005a00370062
:104cb00071862000914078000181fb00808a2000ed
:104cc0000e7079008140e9000181fb002fe497001c
:104cd0008841e900037079008140e9000181fb000f
:104ce000097079008140e9000181fb00efe997003c
:104cf000037079008140e9000181fb004fe29700d9
:104d0000047079008140e9000181fb00efe2970027
:104d1000057079008140e9000181fb000d70790088
:104d20008140e9000181fb002feb970006707900bc
:104d30008140e9000144780077862000884b7800a4
:104d4000608820001004e0000d003200898a2000f5
:104d500000057800688620001844780051f20700aa
:104d60008880fb0080f478000844e80088407800e0
:104d700060862000014878001a04e000f5ff3a0040
:104d800031fc2f008f8040002fa097003ef40700d9
:104d90000041eb00a2c79f00b05e8000e10f400021
:104da000f7053a0008003700840078000102e800a7
:104db000840178008082eb00928f12000e003a008e
:104dc000a0c79f00010037008001eb00c0ba20009f
:104dd000c218dd0081004000db109800ea8041002d
:104de000c208dd00010040000e4878003fc3970074
:104df000164098000500370001c0e800640141003a
:104e0000e70f5200e8ff3a00a0c79f00f21b07001f
:104e100000012000ad053700ef1b07000000eb008c
:104e2000aa0537007a8620001a457800dbf10700d2
:104e30000a81fb00818a2000807079000a40e90025
:104e40000081fb00a3c0b300837079000040e9003b
:104e50000081fb0073c420009341780083707900c7
:104e60000040e9000081fb0063c42000934178000a
:104e7000837079000040e9000081fb0089707900af
:104e80000040e9000081fb00efeb9700877079009c
:104e90000040e9000081fb008041eb008370790055
:104ea0000040e9000081fb0093c0b30083707900eb
:104eb0000040e90067e8b70066c8bf000081fb005a
:104ec00033c0b300837079000040e800e20f540063
:104ed00007003a008080fb0013c0b300828a2000e4
:104ee00003f178000040e80066e8b70018003700da
:104ef000e30f540007003a008080fb0023c0b3009a
:104f0000828a200003f178000040e80066e8b700dc
:104f10000f003700e40f540007003a008080fb00c8
:104f200043c0b300828a200003f178000040e8000b
:104f300066e8b700060037008080fb008041eb0088
:104f4000828a200003f178000040e80066e8b7009c
:104f500066c8bf000081fb00818a20008b70790049
:104f60000040e8000081fb00c85dde008b70790026
:104f70000040e80066e8b70021fc2f008f80400069
:104f800070448000c0f30700931b0700000120005d
:104f90004e053700901b07000000eb004b05370063
:104fa000d0882000e800400001017800d068780037
:104fb000820f5000fdff3a0080c0b300a0c79f00e1
:104fc000e08820001df30700a0c79f00f84f5000a5
:104fd000060032003867800068448800608820003e
:104fe0000048eb0070012000380537009def0700f6
:104ff0000004e0000c003200daef0700f84f500028
:10500000090032000af507006088200081bf2000f7
:105010009048780031678000614488000048eb00c8
:10502000700120002905370011c0b30060882000fe
:10503000014878000080eb00604488007001200087
:1050400022053700c088200022c0b300904f110015
:1050500065003a00404480001004e00062003a001d
:1050600051448000704480002bf30700f84f50003b
:105070001f003a00bbef0700f84f50005a00320003
:10508000c0ce2000012c2000108870000040eb00f2
:10509000e1cd2000804878008100e8008048780059
:1050a0008100e800804878008100e80080487800ae
:1050b0008100e800804878008100e800804878009e
:1050c0008100e800804878008100e800804878008e
:1050d00080c0b300a0c79f0020cf20001048e80088
:1050e000e2c0b3008080e900c0408000ce28070005
:1050f00000002400e189200011006000040032005b
:10510000c0ce2000f1fc2f001088600005003700a1
:10511000c0ce2000f1fc2f00908060000140a00074
:1051200001087800c0ce2000100278000480a000a2
:1051300004087800424480008281e8009382fb00ea
:105140008507b2008080e900c52add00f60f2f0038
:10515000110363008682720085087800d2437800cc
:105160006fc363004c33dd00f7ff200087826200cd
:10517000868872001281fb004411de0005ff2f00bb
:105180000502620004017100148a2000944878002e
:10519000f1448000cf08de00ca08dd0002a0a100b3
:1051a00082807000010878001381fb004711de0047
:1051b0004b11dd0001b0a10002887000584480004e
:1051c000486788007044800030678800f40052000f
:1051d000e0ce20001148780022c1b300f00050005a
