:020000040000fa
:080000000002040000000000f2
:020000040000fa
:10040000afd221000e7f24000e0188000000000002
:100410000c00070080f729000100200011000700f0
:10042000000020000000e000020032000000020096
:100430000000000046930200000000000040da00c7
:100440000000fe004440a900406220000000e000df
:100450000300320000002000a00188004440a800f2
:100460000000060091018800800078000000eb0089
:1004700015003700e280400032a0b4009101ba00bc
:10048000e280400032a0b4009102ba00e280400055
:1004900032a0b4000002eb00472bde00f507b200eb
:1004a000602ce10004003a000059eb008301e900f0
:1004b000fdff3e00040037006128e100010032002a
:1004c0000082eb00040007001101ba000200e00006
:1004d000e8ff3a00000006003159ba008301e90044
:1004e0000c0032002159ba008301e90008003200f3
:1004f0000400e00003003a00e280400032a0b400b3
:10050000f5ff370011d9ba008301e900faff3a007c
:100510008100e800e180400032a0b4000000060045
:100520000040da000000fe0087c0a90087e0a900b3
:10053000e7416000310b20009140780082cfb3008a
:1005400082c0600083c070008000fd00b3e0b7008f
:100550008000fd0001c7b30081416000310b200025
:1005600091407800f2c8b30082c0600083c0700080
:100570008000fd00b3e0b7008000fd00680160006e
:100580004311de004611dd00710920009140780022
:100590000164a10082c070008000fd0097e0b700f8
:1005a0008000fd000008b2004700de004700dd00cb
:1005b00071092000914078000174a10080c0700092
:1005c0000100780097e0b7000000060003f0a200e9
:1005d000889fbe008a9fbe008c1f7800ac00070079
:1005e000b30033006450e1004f0032006420e100aa
:1005f0005200320003826c0007003b000905d00066
:100600000306d000820f54000c065d000200390082
:1006100002003200890178000306780085825500c7
:1006200004003d000003fd008103fd008502ea0097
:100630008b854200840f720002003b0060001000b6
:10064000e08018006011b8000005eb007a28e10096
:100650000a00390006007800c75ddd00f707b20028
:10066000878075002d003700828171000a017800b3
:10067000610560008180d1000080d3008502e9001f
:10068000f9ff3b00060440008784480002003b005d
:1006900060041400e0841c000988a30007003200f5
:1006a0008a81710082817100610164008904d10036
:1006b0000884d3008b05e800170037000978a300f1
:1006c00013003a000b00e000130034008b05e90032
:1006d0000804440089844c000a4474000978a3008b
:1006e0000d003a000b00e000070034008b05e90024
:1006f0000804440089844c0001003a000b002000eb
:100700000978a300f7ff32000001eb000200370078
:10071000828171000a017800370007000cf0a70001
:1007200001f0a0006b0037006420e10002003a00f5
:10073000838f6c006b0033000801be000200be0016
:1007400064003700f4ff2f0069003700889fbe0067
:100750008a9fbe00010578000100e000040035001a
:1007600008003c000000e0002000320005003700d7
:1007700060001000e080180002003b0001f02c0037
:100780001a0037000004be006011b8006b09200099
:100790000982cf00020039000882cf000441b00076
:1007a000694252000e00320008003b008281710055
:1007b000610164008904d1000884d3008b05e8003e
:1007c0000442e800f9ff3a0005003700080444003d
:1007d00089844c008b05e9000442e900fbff3a00e4
:1007e000050007000af0a70001f0a0004f05be00b9
:1007f0004f04be000000060081002000618055000b
:100800000b003d000b00200061fe2f000100e10005
:100810001d00340082817100610164008904d100ef
:100820000884d3000000e800faff3a0071002000bd
:1008300061006400030070000200600009003200e3
:1008400061044400e0844c000988a50005003200e2
:100850008b05e8006808e10002003a008904d10035
:100860000884d300f20f20000258e10005003d008b
:10087000c75ddd00f907b2008980750008007800c7
:10088000000006000bf827008b0078000000050030
:100890000004be00310007000003be000405be00d6
:1008a0000200be002d000700844f75000000060006
:1008b0000200be006450e100050036006420e10043
:1008c000020036000968a30001003a000800be00db
:1008d0000160a0004f0678004f05be004f04be0027
:1008e00000000600f0ff2f00f1ff2700f9ff37009e
:1008f000889fbe008a9fbe00841f7800e4ff070027
:100900004f00780011003300f0ff2f00838f6c0040
:1009100006003b00040565000a00a7000800370038
:1009200009f0a6001000200008003700820f5400d4
:10093000838f5c00030039001000200001003e009e
:100940000000200009f0a7000000ea004f05be00eb
:100950004f04be000000e00000000600c70ade00f1
:10096000f107b200f50fb20008003200e1cf4200fb
:10097000020032000170a00024000500810f700009
:10098000010032000408050044000500810f7000da
:1009900002003a00140005008502e9000000400052
:1009a00081c04800fcff3b000170a000240005004e
:1009b0000400fa00e0bf9f00e4815700812978001d
:1009c0000002eb000f0037006fb8970090407800ee
:1009d0007fb89700104078000402e80080cf5000f4
:1009e000040032008180fb000080fb00008050008a
:1009f000070037006fb897000000e800e0bf9f00d5
:100a00009309e800820f5200efff3a000000eb006c
:100a10000080fa00000006008001eb0002003700b1
:100a200061f079008301e800828f5100fcff3a00f9
:100a300000000600889fbe008a9fbe008c9fbe00fb
:100a40000001780061d220001100e0000b003a00a4
:100a5000a0d22000306988001069880051698800a0
:100a600021698800214090000004a000a040980067
:100a7000614090000004a000e0409800e7004100c1
:100a8000c208de00c20cdd00246980000dd3200006
:100a9000a0d221000d05500022002000811f780007
:100aa000110009000205d80000067800cf00780088
:100ab000c308dd00e48540008001eb0006d3200080
:100ac00065d2200001003700010278002440900028
:100ad0000008a300020032000a003700110a780063
:100ae00094007800214090000008a300fbff320032
:100af00009014200828f500002003900840f51002a
:100b00004600310094007800848f5000eeff3e00d4
:100b1000868f500002003900858f5000eaff3900af
:100b200010698000800f52004f003a00858f5000fe
:100b30004d003a008301e800e18f5100e2ff3600ea
:100b40008c8f5400040036008a8f5400020031005c
:100b50000b04780012003700614ab8006151b900f7
:100b6000b0ff2f00010020000200500083805800d9
:100b7000800f5200818f5a0002003500090478006e
:100b8000070037000d805400d2d22100020040003f
:100b9000110009000a80d8000a80b900000478001a
:100ba000080078006800070080017800e10f40002d
:100bb0002d0032001069800003087800126980005f
:100bc00064004100a2409000808f5100020032007a
:100bd0000104a000010037000104a1002141980098
:100be0000880410064005000800978001069880086
:100bf00062d2200002087800116980002140900034
:100c00000004a000a0409800234090000004a10030
:100c1000a041980002027800a7ff370022698800ef
:100c2000828f5000090036009200780000d2200028
:100c3000a241900003487800f16888001409780008
:100c40008040eb00206980002140980020698000ee
:100c5000000a7800244090000004a0002042980080
:100c600064004200010037000000eb004f06be00a8
:100c70004f05be004f04be00000006006400500097
:100c800020698800a04090000104a1002140980044
:100c900000000600889fbe008a9fbe000005780005
:100ca000e401500013001000c285de0023409000d4
:100cb0000008a3000400320023698800234090004c
:100cc0000004a100a04198000100780059ff07002e
:100cd000000478000000e000170032008a0f500086
:100ce0001500320060b8970008005000c284de0092
:100cf000898f550001003600890578004259dd00d2
:100d00008a0078000800780043ff07008a0f54002b
:100d1000090031004248dd00000044008a0f500005
:100d2000050036000a00500000004400f268800010
:100d3000036980000288be00080078004f05be00ed
:100d40004f04be0000000600889fbe0080047800ab
:100d5000706980000000e00003003a001000070006
:100d60000000e0000a003500706980000900e00022
:100d700002003a0000047800060037000004780002
:100d800009004000060007000000e00001003d00ef
:100d90000084eb00080078004f04be00000006004d
:100da000800078000000e00004003a0000d320003a
:100db0007069880001017800060037000081eb00af
:100dc000a0d22100808f500002003e00716988008f
:0c0dd0000001eb000200780000000600ab
:020000040000fa
:0200000401f009
:04000c00faff0000f7
:020000040000fa
:0200000401f009
:04001000bdff000030
:020000040000fa
:0200000401f009
:0400140079ff000070
:020000040000fa
:1000080090020000900200009002000090020000a0
:100018009002000090020000900200009002000090
:100028009002000090020000900200009002000080
:100038009002000090020000900200009002000070
:100048009002000090020000900200009002000060
:100058009002000090020000900200009002000050
:100068009002000090020000900200009002000040
:10007800f297000090020000900200009002000039
:100088009002000090020000900200009002000020
:1000980090020000900200003e94000090020000d0
:1000a8009002000090020000900200009002000000
:1000b80090020000900200009002000090020000f0
:1000c80090020000900200009002000090020000e0
:1000d80090020000900200009002000090020000d0
:1000e80090020000900200009002000090020000c0
:1000f80090020000900200009002000090020000b0
:10010800900200009002000090020000900200009f
:10011800900200009002000090020000900200008f
:10012800900200009002000090020000900200007f
:10013800900200009002000090020000900200006f
:10014800900200009002000090020000900200005f
:10015800900200009002000090020000900200004f
:10016800900200009002000090020000900200003f
:10017800900200009002000090020000900200002f
:10018800900200009002000090020000900200001f
:10019800900200009002000090020000900200000f
:1001a80090020000900200009002000090020000ff
:1001b80090020000900200009002000090020000ef
:1001c80090020000900200009002000090020000df
:1001d80090020000900200009002000090020000cf
:1001e80090020000900200009002000090020000bf
:0801f8009002000090020000db
:020000040000fa
:10020800900200009002000090020000900200009e
:10021800900200009002000090020000900200008e
:10022800900200009002000090020000900200007e
:10023800900200009002000090020000900200006e
:10024800900200009002000090020000900200005e
:10025800900200009002000090020000900200004e
:10026800900200009002000090020000900200003e
:10027800f297000090020000900200009002000037
:10028800900200009002000090020000900200001e
:1002980090020000900200003e94000090020000ce
:1002a80090020000900200009002000090020000fe
:1002b80090020000900200009002000090020000ee
:1002c80090020000900200009002000090020000de
:1002d80090020000900200009002000090020000ce
:1002e80090020000900200009002000090020000be
:1002f80090020000900200009002000090020000ae
:10030800900200009002000090020000900200009d
:10031800900200009002000090020000900200008d
:10032800900200009002000090020000900200007d
:10033800900200009002000090020000900200006d
:10034800900200009002000090020000900200005d
:10035800900200009002000090020000900200004d
:10036800900200009002000090020000900200003d
:10037800900200009002000090020000900200002d
:10038800900200009002000090020000900200001d
:10039800900200009002000090020000900200000d
:1003a80090020000900200009002000090020000fd
:1003b80090020000900200009002000090020000ed
:1003c80090020000900200009002000090020000dd
:1003d80090020000900200009002000090020000cd
:1003e80090020000900200009002000090020000bd
:0803f8009002000090020000d9
:020000040000fa
:100ddc00526f000075740000652000005265000021
:100dec00706c0000792000004f4b00000d0a0000d1
:100dfc0000200000526f0000757400006520000098
:100e0c0052650000706c0000792000004661000003
:100e1c00696c0000656400000d0a0000004e0000c3
:100e2c00756d000062650000722000006f660000a6
:100e3c00205a000069670000626500006520000010
:100e4c006e650000747700006f7200006b2000006c
:100e5c006861000076650000206200006565000096
:100e6c006e200000666900006e6400003a200000ed
:100e7c00000d00000a0000005072000065700000b8
:100e8c0061720000652000006a6f0000696e00004e
:100e9c00207400006f2000006e6500007477000065
:100eac006f7200006b3a00002030000078000000e8
:100ebc004e6f000074200000666f0000756e00001d
:100ecc006420000064650000736900007265000016
:100edc00206e000065740000776f0000726b0000dc
:100eec00203000007831000041410000410d00002d
:100efc000a000000466f0000756e000064200000c0
:100f0c00646500007369000072650000206e0000cb
:100f1c0065740000776f0000726b000020300000d9
:100f2c007831000041410000410d00000a00000032
:100f3c004e650000747700006f7200006b28000093
:100f4c0073290000206600006f7500006e640000bd
:100f5c002e20000054720000796900006e670000ba
:100f6c00207400006f2000006a6f0000696e0000a2
:100f7c0020000000207c0000200000004e6f0000cc
:100f8c00206e000065740000776f0000726b00002b
:100f9c0073200000666f0000756e0000642e000068
:100fac002054000072790000696e00006720000078
:100fbc0061670000616900006e2100000d0a0000ed
:100fcc000020000045720000726f000072200000cb
:100fdc00666900006e640000696e00006720000006
:100fec006e650000747700006f7200006b2e0000bd
:100ffc002054000072790000696e00006720000028
:10100c0061670000616900006e2e00002e2e00004a
:10101c000d0a0000004a00006f6900006e200000fd
:10102c00746f0000207400006869000073200000d9
:10103c006e650000747700006f7200006b2000007a
:10104c004f4b0000210d00000a00000053740000fb
:10105c006174000075730000200000002e20000059
:10106c00436f0000756c0000642000006e6f000080
:10107c00742000006a6f0000696e0000206100009f
:10108c00732000006f72000070680000616e000039
:10109c002e2000000054000072790000696e0000e0
:1010ac00672000006a6f0000696e0000206100007c
:1010bc00732000006f72000070680000616e000009
:1010cc002061000067610000696e0000210d0000c6
:1010dc000a0000004d75000073740000206e0000c3
:1010ec006f7700002074000072790000206100000e
:1010fc0073200000612000006e6500007720000066
:10110c006e6f0000646500002e2e00002e0d000096
:10111c000a0000002e200000436f0000756c0000d8
:10112c00642000006e6f0000742000006a6f0000e5
:10113c00696e000020730000656c000065630000a0
:10114c0074650000642000006e6500007477000078
:10115c006f7200006b3a0000200000002e2000008f
:10116c0054720000796900006e670000206e000068
:10117c00657800007420000064690000736300004f
:10118c006f7600006572000065640000206e000040
:10119c0065740000776f0000726b00003a2000004d
:1011ac00002e0000204300006c650000616e000002
:1011bc00696e00006720000075700000206100005f
:1011cc006e640000207200006574000072790000eb
:1011dc00696e000067200000646900007363000002
:1011ec006f76000065720000792100000d0a000086
:1011fc00005200006f750000746500007220000042
:10120c0053740000617200007465000064210000da
:10121c00204500006e610000626c0000696e0000e9
:10122c00672000006a6f0000696e0000732e0000da
:10123c002e2e00000d0a0000005200006f750000f9
:10124c00746500007220000073740000617200006d
:10125c007420000046610000696c000065640000a9
:10126c003a0000002e2000005765000020630000ab
:10127c00616e00006e6f000074200000726f000041
:10128c00757400006520000066720000616d00003e
:10129c00657300000d0a0000004300007572000029
:1012ac00726500006e740000204e00006574000032
:1012bc00776f0000726b0000204100006464000036
:1012cc00726500007373000020690000733a00001f
:1012dc00200000004e650000747700006f72000063
:1012ec006b20000041640000647200006573000014
:1012fc007320000068610000732000006a75000014
:10130c007374000020720000652d000061730000f2
:10131c0073690000676e00006564000020690000be
:10132c0073200000307800003030000030310000b5
:10133c000d0a0000004a00006f6900006e200000da
:10134c0070650000726d0000697300007369000025
:10135c006f6e000020460000616900006c650000a3
:10136c00643a0000200000002e20000057650000a9
:10137c0020630000616e00006e6f0000742000009e
:10138c00616c00006c6f0000772000006a6f000039
:10139c00696e0000730d00000a0000004e6f000023
:1013ac0064650000200000002057000069740000f4
:1013bc00682000004d410000432000004164000003
:1013cc0064720000657300007320000000200000b0
:1013dc006a75000073740000206a00006f690000d9
:1013ec006e650000642e00000d0a0000005700001e
:1013fc00652000006861000076650000206c00002c
:10140c006566000074200000746800006520000010
:10141c006e650000747700006f7200006b0d0000a9
:10142c000a000000416e00006f7400006865000047
:10143c00722000006e6f00006465000020680000e0
:10144c0061730000206c00006566000074200000d1
:10145c0074680000652000006e6500007477000061
:10146c006f7200006b0d00000a0000005a6900004a
:10147c0067420000656500002053000074610000a5
:10148c00636b0000206800006173000020620000a4
:10149c00656500006e200000726500007365000039
:1014ac00740d00000a000000204c00006561000073
:1014bc00766900006e67000020740000686500000b
:1014cc00205a00006967000062650000652000007a
:1014dc006e650000747700006f7200006b0d0000e9
:1014ec000a000000235600004c3a000000230000c4
:1014fc00574300003a000000235300004e3a00000e
:10150c0000230000534300003a0000004e6f00001f
:10151c006e6500002073000075700000706f000095
:10152c0072740000210d00000a000000234a000024
:10153c004e3a000000230000524400003a00000024
:10154c0023410000443a00000023000052430000f5
:10155c003a000000234f00004b3a0000002300002b
:10156c00545200003a000000204500007272000046
:10157c006f72000020730000656e0000646900004b
:10158c006e670000206d0000657300007361000041
:10159c00676500000d0a000000530000656e000036
:1015ac00646900006e670000206d00006573000028
:1015bc007361000067650000204f00004b210000a4
:1015cc000d0a00000050000065720000666f0000fc
:1015dc00726d000020470000726f000075700000f3
:1015ec00204f0000706500007261000074690000fb
:1015fc006f6e00000d0a00000054000072790000ac
:10160c00696e000067200000746f0000206a000003
:10161c006f6900006e2000006e650000747700009a
:10162c006f7200006b2000006173000020610000ed
:10163c006e2000006f72000070680000616e000088
:10164c002e2e00002e0d00000a0000005472000027
:10165c00796900006e670000207400006f200000a4
:10166c006a6f0000696e0000206e00006574000057
:10167c00776f0000726b0000206100007320000087
:10168c00612000006e65000077200000646500009a
:10169c007669000063650000210d00000a0000005f
:1016ac00536c00006565000070200000726500003e
:1016bc007175000065730000742000004f4b000032
:1016cc000d0a0000004e00006f7200006d610000fa
:1016dc006c2000004d6f000064650000207200005b
:1016ec00657100007565000073740000656400008e
:1016fc00204f00004b0d00000a0000002055000098
:10170c006e680000616e0000646c0000656400008f
:10171c0020700000726900006d690000746900009f
:10172c00766500000d0a0000004900006e6900009b
:10173c0074200000486100007264000077610000b2
:10174c00726500000d0a0000004900006e6900007f
:10175c00742000005a690000676200006565000093
:10176c000d0a00000052000026440000205a000020
:10177c006967000042650000652d0000526f000093
:10178c007574000065720000204500004d42000099
:10179c00206200007920000057530000414e0000e9
:1017ac002d4c00006162000034310000310d00004e
:1017bc000a00000054720000616e000073630000a8
:1017cc006569000076650000722d00004d52000026
:1017dc0046320000344a0000343000000d0a00008c
:1017ec0000000000020100000f0f000000050000c7
:1017fc000080000010060000000000000000000047
:10180c0000000000000a00000000000001000000c1
:10181c0002000000030000000400000005000000ae
:10182c000600000020000000210000002200000043
:10183c000a0000000080000001800000028000000f
:10184c00038000000480000005800000068000007a
:10185c00208000002180000022800000f0000000a9
:10186c00030100000000000000050000050000005e
:10187c00080000000a000000060000001a0000002a
:10188c00000000000000000000000000000000004c
:10189c000000000003000000090000000700000029
:1018ac001900000000000000000000000000000013
:1018bc00000000000000000000000000000000001c
:1018cc00f000000003010000000000000005000013
:1018dc0005000000080000000a00000006000000df
:1018ec001a000000000000000000000000000000d2
:1018fc0000000000000000000300000009000000d0
:10190c0007000000190000000000000000000000ab
:10191c0000000000000000000000000000000000bb
:10192c000000000010c1000001400000ce000000cb
:10193c00000000007f000000000000001400000008
:10194c007800000000000000b4000000000000005f
:10195c002c010000000000001c0200000000000030
:10196c00fc03000000000000bc07000000000000a9
:10197c003c0f0000000000003c1e000000000000b6
:10198c003c3c0000000000003c780000000000001f
:10199c003cf00000000000003ce0000001000000f2
:1019ac003cc00000030000003c8000000700000069
:1019bc003c0000000f00000030310000323300000a
:1019cc003435000036370000383900004142000041
:1019dc004344000045460000647300005049000079
:1019ec0043330000334600005f4300006f6e00007d
:1019fc00736f00006c650000496e00006974000094
:101a0c00282900002d000000a000000000000000ac
:081a1c0000a30000040000001b
:020000040000fa
:101a24008000eb00d04e8000f007b20001003200cd
:101a3400110020000100780000000600881f7800d3
:101a440004a9a900942cef00962cef00b063800049
:101a5400906388000044eb009063800022c1b300cf
:101a640081c82000b74607000844e8002001200090
:101a7400722cb400f94f5400f7ff3a007a6cef006f
:101a8400080078007becb700846cef00856cef00f5
:101a9400860ca900c0532a00c0638800a06380009c
:101aa40002c1b30081c72000a64607004f04780096
:101ab40000000600889fbe008a9fbe008c1f78002d
:101ac40000057800010678008205780050638000e4
:101ad400406388008044eb0009447800416380003f
:101ae40062c0b300c0c6200058460700606380008f
:101af4008a0f5000100032000844e8006000200003
:101b0400682cb400ef4f54000e003e000904e000be
:101b1400f2ff320080638000000e78006eccbf00bc
:101b2400804d78000980fb004f0678004f05be0009
:101b34004f04be000000060019c0b300ef4f54006c
:101b4400f2ff36000904e000f2ff3a0030c0b300af
:101b5400804d78000000eb004f0678004f05be0072
:101b64004f04be0000000600f3ff3700484aec00b3
:101b740048eab70002003a0010c0b30048eab700d0
:101b84000080fb000000060088c9bf008000eb0055
:101b9400050032000040e90088e9b700504c80009d
:101ba400b080fb00504c8800010078000000060063
:101bb400889fbe008a1f78000004eb000080fb00b1
:101bc40000004000640540007240b900760cb40087
:101bd4009063880022c1b3008000780080c8200090
:101be4001a46070081648000804c8000808f50007a
:101bf400060032000804e800f90f5400f2ff3a002e
:101c04004f0578004f04be0000000600a09d200090
:101c14006a0078008880fb00f680400080804000e5
:101c2400114090000004a100904098004f057800f6
:101c34004f04be0000000600f4ff3700889fbe007a
:101c44008a9fbe0000437800830578000044eb00bf
:101c5400e59b2000679c2000950178000300e000cc
:101c6400190032000604e0000300320063489000cb
:101c7400814f5000110032008582e800858f5300a7
:101c8400f5ff3a0009c1b3000404e0000100350087
:101c940089c0b3000804e0000400320050638000ef
:101ca400406388000904e0000c003a000000eb00e7
:101cb4004f05be004f04be00000006004300900024
:101cc400820f5000ecff3a0018c0b3008582e80090
:101cd400858f5300e0ff3a00eaff37000045eb0030
:101ce4000a4478004163800062c0b300c0c620008b
:101cf400d6450700606380008b0f50000d00320052
:101d040070638000e30f50000a0032000844e800ca
:101d140060002000682cb40088cf5400f1ff3a0022
:101d24000a80fb004f05be004f04be000000060001
:101d3400e2ff37001ac0b3000844e8006000200046
:101d4400682cb40088cf5400e6ff3a00f4ff370053
:101d5400889fbe008a1f780000057800b063800069
:101d6400906388000004eb009163800022c1b300fb
:101d740080c82000b5450700972cab0009003a0045
:101d840020012000722cb4000804e800f90f54006c
:101d9400f5ff3a00080078004f0578004f04be00b4
:101da40000000600806480008a0f5000f4ff3a00af
:101db4000880fb004f0578004f04be0000000600b9
:101dc400f8ff3700800178000409a80022c0b3009e
:101dd400020078008ee9b70070628000604c8800d1
:101de40084628000844c88000001fd008fe9b70004
:101df4000001fd00004d8800c34c88004accbf00a0
:101e040080487800a2e9b7008b69ef00e18f4100b8
:101e1400080032008b09a80003007800ccff0700fb
:101e2400f94f500003003200970cab0001003a0058
:101e34008b49a80010c0b3008ae9b700000006006f
:101e44000200fa00889fbe008a9fbe0080057800c9
:101e540002047800e4cf5000120032000180fb003d
:101e640000004000e19b200060807800205090003a
:101e740062c0b3000440bc00516380008100410093
:101e84004163880062c0b300c0c620006f450700ec
:101e94006e2cef004063800062c0b300c1c6200016
:101ea400a845070071902000914078000181fb0053
:101eb4008990200020c0b30000f17c000140e800bc
:101ec40007e9b7000080fb001841900002f07c0095
:101ed40001c0e80007e9b7000080fb00284190003a
:101ee40002f07c0063c040000080fb000bf07c002b
:101ef40064c04000485dde000080fb000af07c0006
:101f040065c0400007e9b7000080fb00484190002d
:101f140002f07c0066c0400007e9b7000080fb00c7
:101f24005841900002f07c0067c0400007e9b70008
:101f34000080fb006844900008f07c00e8c040008a
:101f44008000fd0007e9b7008000fd0068902000d4
:101f54001844780005ff07008880fb0080f07c00af
:101f64000840e9000080fb00a1c0b30001f07c0040
:101f740008c0e9000080fb0011c5200011f07c00be
:101f8400634054000080fb0001c5200011f07c0078
:101f9400644054000080fb000af07c00654054005b
:101fa4000080fb000bf07c00664054000080fb00c6
:101fb4008040eb0001f07c00674054000080fb008f
:101fc40091c0b30001f07c0068445400080078001c
:101fd40006e9b700804c8000ea80570079ff0700cb
:101fe4004f05be004f04be000080fa00000006004a
:101ff4000400fa00889fbe008a9fbe008c1f7800f0
:10200400800578000105780002067800516380009d
:102014004163880062c0b300c0c620000b450700be
:102024000044eb00606380008b0f50001b00320003
:102034000844e80041638000e68040004163880072
:1020440062c0b300c0c6200000450700f04f540032
:10205400f4ff3a00516380004163880062c0b3001a
:10206400c0c62000f94407000044eb007063800000
:10207400e30f5000090032000844e8004163800087
:10208400e68040004163880062c0b300c0c62000ff
:10209400ee440700f04f5400f4ff3a00084e780075
:1020a4000000eb00e89b20000801780080407800e5
:1020b400800478001200e000060032008140e8004d
:1020c4000900e8000281e800e40f5000f7ff3a003d
:1020d4008184fb00014d780040c1b300d447070060
:1020e400800078000980440008054000010d780054
:1020f4000100e0001d0032006b638800190020001d
:10210400796388004063800062c0b300c1c62000c8
:102114000c4507009a00780000c0eb00805098003e
:102124001a0478006e805700bd4707001fb8970057
:10213400afb89700008cbe001a0078001c467800e7
:102144002c5098009a0078000000eb00e000980002
:10215400da29a800090078004f0678004f05be0070
:102164004f04be000080fa00000006000100780061
:102174004f0678004f05be004f04be000080fa00f1
:1021840000000600f9ff37000400fa00889fbe0033
:102194008a9fbe008c1f7800000678000000eb00c8
:1021a400e19d200080447800000478001100e000e4
:1021b400080032008944e8000800e8008180e80053
:1021c400e70f5000f7ff3a00e7cf54002f0032002a
:1021d4000984fb0000c3b30095470700880044004e
:1021e400e4854000aa9d200080357d000000e000c9
:1021f40026003200094e7800eb007d0000c0eb00a1
:10220400c04898006b047d006e8057008447070027
:102214001fb89700afb8970070049800010c98009d
:10222400100c9800210c9800eb007d003108900000
:102234000050a100b00898006b017d0032089000a6
:1022440001ff2f00010060000010a0003009980079
:102254000001eb008b00780033c0b30061007d0007
:1022640002004000735098000201e800f90f510089
:10227400faff3a00100020004f0678004f05be0018
:102284004f04be000080fa00000006000000eb00ce
:102294004f0678004f05be004f04be000080fa00d0
:1022a40000000600f9ff37001d4de20005003a006a
:1022b400360cab0019003a000040eb000080fb0034
:1022c4000000060040c8200031c1b30090cf1000c8
:1022d400030036000040eb000080fb000000060015
:1022e4008829ab0018003200c0c7200041c0b300e9
:1022f40090cf1000f7ff3e0050c8200051c0b3003b
:1023040090cf1000f3ff3e00db89ab00f1ff3a00f1
:1023140010c0b3000080fb000000060040c820008d
:1023240031c1b30090cf1000e3ff3e008829ab0019
:1023340009003a00db69ab0007003a0010c0b300a3
:102344000080fb0000000600db69ab00e6ff3a00fa
:1023540010c0b300efff3700c0c7200041c0b30076
:1023640090cf1000d4ff3e0050c8200051c0b300ed
:1023740090cf1000d0ff3e00db89ab00efff3200ae
:102384000040eb00cdff3700889fbe00b0638000a3
:10239400906388000004eb009163800022c1b300c5
:1023a40080c8200029440700972cab0008003200a5
:1023b40020012000722cb4000804e800f90f540036
:1023c400f5ff3a00080078004f04be000000060044
:1023d4000880fb004f04be0000000600fcff37002d
:1023e400d1082000e24f50000800320009003600f6
:1023f40051012000e34f500004003200110020007e
:10240400e44f5000010032008000eb00010078002e
:1024140000000600d14321000004e000fbff32006d
:10242400e14f5000f8ff3a00d035200000000600cc
:10243400f8ff3700889fbe000004be000204e000dd
:102444000a003200810f5000030039000000eb0045
:102454004f04be00000006000240e900e0ff070050
:1024640000004400808f5400f8ff31001000200069
:102474004f04be0000000600f7ff3700889fbe002f
:102484008a9fbe000005be00b06380009063880090
:102494008044eb009163800022c1b30080c8200017
:1024a400ea430700b0648000002cb200012420003d
:1024b400810f50001200320020012000722cb40061
:1024c4008944e800f9cf5400f2ff3a00c2c7200063
:1024d40012417800806280008a007800d5ff0700ee
:1024e4000004e00016003a0040628000800d78008d
:1024f400100020004f05be004f04be00000006007f
:1025040088648000880f5500070032007c4cec0082
:10251400004178008a00780008007800c5ff0700b1
:102524000004e000e4ff3200880d78001000200071
:102534004f05be004f04be0000000600f0ff370048
:102544000000eb004f05be004f04be000000060073
:10255400ebff37000004e0001f003200376cef008f
:1025640010c2b30038ecb700c1c720009140780016
:102574004309dd000200780039ecb70040c82000b0
:1025840033c1b30090cf110013003e00a0c7200058
:1025940083c1b30090cf11000f003e00d34e8000e2
:1025a40003b8a3000d003a00e4cf50000a003e0037
:1025b4000274a0000200780039ecb70050c8200073
:1025c40051c0b30090cf100003003e0003c8a30025
:1025d40001003a00394ca80000000600e4cf500086
:1025e400f6ff360000000600b164800001017800a7
:1025f400020cb20000042000800f510010003200d1
:102604000200e00002003a0090c1b3007becb70086
:10261400972ca900942cef00962cef009063800077
:1026240022c1b30081c82000c64307007a6ced00c4
:10263400a063800002c1b30081c72000c1433700fa
:10264400846ced000103b200f08f50000f003200e3
:1026540010c0b300bfff0700972ca900942cef0013
:10266400962cef009063800022c1b30081c8200043
:10267400b44307007a6ced00a063800002c1b3008c
:1026840081c72000af433700edff3700856ced00b4
:1026940010c0b300afff0700efff370080c8200071
:1026a4000199200007000900315878007462800005
:1026b4009464880098ecef00414c80000118a3005a
:1026c4001d003a00968ca90096aca8000064800016
:1026d400806488000000e80000648800e20f400085
:1026e40039003200c508dd000110b200b06480007a
:1026f4000080a10001007000b064880096cca8009e
:1027040096eca900972ca8009063800022c1b30026
:1027140081c820008b430700846cec007a6cec00c9
:10272400a063800002c1b30081c720008543070075
:1027340010c0b30087ff3700968ca80096aca900a0
:102744001064800080648800856cec00f263800073
:1027540002004000106488006611b90084628000a1
:1027640004014100820f5000deff3600db89a8001f
:10277400c508dd000110b200b06480000080a10033
:1027840001007000b064880096cca80096eca90003
:10279400972ca8009063800022c1b30081c8200058
:1027a40068430700846cec007a6cec00a063800042
:1027b40002c1b30081c720006243070010c0b30008
:1027c40064ff3700dcff3700db69a800c508dd00c3
:1027d4000110b200b06480000080a100010070000c
:1027e400b064880096cca80096eca900972ca800a9
:1027f4009063800022c1b30081c8200051430700c8
:10280400846cec007a6cec00a063800002c1b3001d
:1028140081c720004b43070010c0b3004dff3700b1
:10282400c5ff3700889fbe008a9fbe000005be001a
:10283400b0638000906388000004eb009163800023
:1028440022c1b30080c8200000430700972cab00ce
:1028540009003a0020012000722cb4000804e800aa
:10286400f90f5400f5ff3a00080078004f05be0048
:102874004f04be0000000600806480008a0f5000f0
:10288400f4ff3a00906480008b0f5000f1ff3a008f
:102894000880fb004f05be004f04be000000060088
:1028a400f5ff3700ec874700889fbe008a9fbe0073
:1028b4008c9fbe008e1f780080447800814578008c
:1028c4000000eb00229f2000804078000004780084
:1028d4001200e000080032008140e8000800e8002f
:1028e4000281e800e80f5000f7ff3a00e8cf5000fb
:1028f400920032000184fb00c0c0b300cc45070045
:10290400800078000806440078044600aa9d200050
:1029140000347d000000e000880032000904e0007b
:1029240024003a00c0ff2f008a29b400824c8000a2
:10293400a2009800e8007d008a09ed00504c880050
:1029440010407800f0409800e8007d008a09ed000e
:10295400504c880010407800e04098008aa9ed00af
:1029640088c9bf006840400088e9b700e8007d00de
:10297400a040980068007d0020409000ac4507000e
:10298400800478000000e00074003a0068007d00d4
:10299400a945070009347d00400020004f07780056
:1029a4004f06be004f05be004f04be00cf00b1006d
:1029b4000000060080628000a000980068007d008e
:1029c400c14c80003100980068017d0006c9bf0039
:1029d4000749b50071c8b300014040002041980088
:1029e40068007d0020409000914507008004780035
:1029f4000000e000e5ff320068007d00090878006f
:102a04004658dd000034a000804c780089c9bf001e
:102a140000404000904498008299200012417800c0
:102a2400a244980099c9bf00b044980001c5200091
:102a340091407800c144980012c5200012417800ea
:102a4400d24498000b9920009b457800eb449800f1
:102a5400a2c9bf00f04498006881440006c9bf00c1
:102a6400e1c7b300814f500008003e00839020006e
:102a74000040e80006e9b7000080fb0060d9790057
:102a840006c9bf00814f5000f9ff36000749ed0029
:102a940007e9b700e14f40000900320082007800e6
:102aa4008390200002c050000080fb00e0d8790031
:102ab4000749ed0007e9b700e14f4000f9ff3a008c
:102ac400f8044600ac9d200069047d007680570020
:102ad400534507005fb09700efb09700400498009b
:102ae4005104980069007d003000900078815700ff
:102af400f78057003efd07000004e00038003a006c
:102b040069007d00100078004b45070069007d00d6
:102b1400494507000000eb0080347d0040002000a0
:102b24004f0778004f06be004f05be004f04be009d
:102b3400cf00b100000006009eff370040002000d7
:102b44004f0778004f06be004f05be004f04be007d
:102b5400cf00b1000000060096ff370068007d003a
:102b64000908780008fc0700f043b200c658dd00ed
:102b740080cc700004fc07009044980002fc07001d
:102b8400a044980000fc0700b0449800fefb070036
:102b9400c0449800fcfb0700d0449800fafb0700ef
:102ba4008045e900eb449800f7fb0700f0449800e7
:102bb400688444008849e200c1ff3200f2fb070048
:102bc400005c78008849e200bdff3200eefb07009c
:102bd400005c78008849e200f8ff3a00b8ff37004b
:102be4000409a900f0c7b30006e9b7000047eb00e9
:102bf4000e00780007e9b7001fe897000080fb008b
:102c040000004000ed9b200060847e00e0c0b30023
:102c14000745070000057800600498000000e00004
:102c24001d003a001000200070638800406380009b
:102c340062c0b300c1c62000424207001fe89700eb
:102c44000080fb000000400060807e00fa44070022
:102c54001fe897000080fb00000040000ab07e00df
:102c640069007e0010007800f344070069007e00cc
:102c7400f14407008a347e00400020004f077800aa
:102c84004f06be004f05be004f04be00cf00b1008a
:102c94000000060047ff37001fe897000080fb0094
:102ca4000000400060807e00119f20009140780069
:102cb400614898001fe897000080fb000000400076
:102cc4000d0040009000780082628000c2009800ed
:102cd400100078007e4898001fe897000080fb00f1
:102ce400000040000d00400090017800930890001f
:102cf400f28f2f008280600001a0a000910998004b
:102d0400900078001108900000b0a100900898008d
:102d140010c0b300004d780000c8b30010459800ff
:102d2400f1c9bf00204598000040e800f1e9b70070
:102d340069007e00604090003045980069007e0084
:102d440070409000404598005e45980087fb07005e
:102d5400604598007b45980051ccbf00004d980019
:102d640001c5200091407800114d980000c0eb008f
:102d7400204d9800c0cfb300304d98004e4d9800c0
:102d840090c0b300504d980072805700a4440700cf
:102d94001fe897000080fb000000400060827e0076
:102da4007fb097008fb89700d21f2c00f3ff2f003d
:102db40000004100818049002002980031029800ff
:102dc400100020004f0778004f06be004f05be00dc
:102dd4004f04be00cf00b10000000600f5fe37002e
:102de4000200fa00889fbe008a9fbe0080457800da
:102df400010478000245780083047800010078001b
:102e0400d3fb0700f94f500007003200b164800083
:102e1400010cb20000042000808f50001e0032001c
:102e24000100e0001c0032008262800004c8b3008c
:102e3400880178008040eb00014078007ffb0700a8
:102e44000004e00009003200e24f55002200320085
:102e54006a8157000800be0016fb07000004e0006a
:102e640014003a00e14f5500230032000800be0070
:102e740082fd07000004e00011003a0010cdb30009
:102e840088e9b700200020004f05be004f04be00b3
:102e94000080fa0000000600880c78000000eb00b7
:102ea4004f05be004f04be000080fa00000006007b
:102eb400f9ff37006ff097000004e000ebff3a00e1
:102ec4000000eb004f05be004f04be000080fa0076
:102ed40000000600f0ff370011c0b3000b4078007b
:102ee40070fe07004f05be004f04be000080fa00cc
:102ef40000000600e8ff37008a4078000b407800a5
:102f040068fe07004f05be004f04be000080fa00b3
:102f140000000600e0ff3700881f78003000200022
:102f2400706388006cacef005063800040638800dd
:102f34000044eb004063800062c0b300c1c62000bf
:102f4400804107000844e80060002000682cb400b9
:102f5400f04f5400f7ff3a004f04780000000600d9
:102f6400889fbe008a9fbe0000457800300880001c
:102f740048eab7000469ef00d14e8000da29ef0077
:102f8400dc29ef000000220080806000d04e800029
:102f940000d0a10001007000d04e8800a0a4200041
:102fa400a1aa20000048eb000080e800808f5000b8
:102fb400fcff3a000a04e00004003a0020518000bb
:102fc4000000e000010032001b440700242aef0047
:102fd4008004eb00e89d2000880578000a04e000e6
:102fe40007003a00180078000000e00004003200f6
:102ff4001000780010440700180078000e44070001
:10300400801deb008904e8000884e800e78f540081
:10301400f2ff3a008004eb00289f20008805780026
:103024000a04e00007003a00180078000000e000fd
:103034000400320010007800ff43070018007800f5
:10304400fd430700801deb008904e8000884e800c4
:10305400e88f5400f2ff3a000004eb00e99b2000e3
:10306400890578000a04e00004003a001900780099
:103074000000e00001003200ef430700801deb0078
:103084000804e8008984e800e40f5400f5ff3a00de
:10309400a1ff07004f05be004f04be00000006005c
:1030a40010c0b300aeff0700a163800002c1b300eb
:1030b40080c72000e5400700c1638000c0532a0098
:1030c400808f50000e0032005cfa0700809c2000c4
:1030d400c19d20000048eb0064004000810f5000b7
:1030e400fcff3a0040a0200041a220000088eb0031
:1030f40064004000808f5000fcff3a00000006008e
:10310400b0c7200091c1b30090cf1000efff320090
:1031140004a9a800809c2000c19d2000edff370079
:103124000800fa00881f7800ea805700a2d028001f
:1031340007000900b25878008100b1000004eb00d8
:103144008200200019f607000000e00001003a00a8
:1031540018002000080078004f0478000080fa006e
:1031640000000600889fbe008a1f780000057800d2
:10317400b0638000906388000004eb0091638000da
:1031840022c1b30080c82000b0400700972cab00d8
:1031940009003a0020012000722cb4000804e80061
:1031a400f90f5400f5ff3a00080078004f05780045
:1031b4004f04be00000006008200200081c82000e9
:1031c4000a007800f9f507000000e000f1ff3a007a
:1031d4000880fb004f0578004f04be000000060085
:1031e400f5ff3700af05b000889fbe008a9fbe0080
:1031f4008c9fbe008e1f78000047eb00000478000f
:10320400a0fb2f0000804700854307005f9e9700c6
:10321400ef9e9700da49ab000d003200644f800046
:10322400754f80000402560085825e00029f2000d4
:10323400124178000281fb000300200040422f006d
:103244000010b800800f5200818f5a0035003e00f4
:103254000800e00023003a0004c9bf000008a300ee
:1032640027003a00d24e80000208a30093003a00df
:103274000218a300b9003a000200e0002e01350054
:103284000278a30054073200dae9a900aacabf00f1
:1032940088e9b700abcabf0089e9b700915580003f
:1032a400814c8800d2558000e3558000c24c8800d0
:1032b400d34c8800f455800005568000e44c880007
:1032c400f54c8800c3042000030078004f07780001
:1032d4004f06be004f05be004f04be00af05b1004f
:1032e400000006006140b80071005000e080580002
:1032f40014062000840f5000e08f58000c003600a4
:103304008001eb00030078004f0778004f06be00f1
:103314004f05be004f04be00af05b100000006001b
:10332400f0ff3700360ca900da49a900c8ff3700be
:1033340000600100ee02370064033700f0ff37003d
:10334400efff3700eeff3700b3033700ecff370021
:10335400e8033700eaff3700e9ff3700320337009c
:10336400d6033700e6ff3700e5ff3700e4ff3700f8
:10337400e3ff3700e2ff37006c023700e0ff37005d
:10338400dfff3700be043700ddff3700dcff370006
:10339400dbff37003804370074043700d8ff3700e8
:1033a400d7ff3700d6ff37003c033700d4ff370080
:1033b400d3ff3700d2ff370013043700b9023700b8
:1033c400cfff3700ceff3700cdff3700ccff3700eb
:1033d400cbff3700caff3700c9ff3700c8ff3700eb
:1033e400c7ff3700c6ff3700c5ff3700c4ff3700eb
:1033f400c3ff3700680237005d02370090043700ce
:10340400100437006d043700f9023700a8043700b0
:10341400a003370049043700b9ff3700b8ff37006d
:10342400b7ff3700b6ff3700b5ff3700b4ff3700ea
:10343400b3ff3700b2ff3700b1ff3700b0ff3700ea
:10344400afff3700aeff3700adff3700acff3700ea
:10345400abff3700aaff3700a9ff3700a8ff3700ea
:10346400a7ff3700a6ff3700a5ff3700a4ff3700ea
:10347400a3ff3700a2ff3700a1ff3700a0ff3700ea
:103484009fff37009eff37009dff37009cff3700ea
:103494009bff37009aff370099ff370098ff3700ea
:1034a40097ff370096ff370095ff370094ff3700ea
:1034b40093ff370092ff37000f023700f8af9f00e9
:1034c400eb9d20001b0478000800e000110032008e
:1034d40018089000a80890000001560081815e0041
:1034e400770133000200be0097f4070002a02b000e
:1034f400b375240092f407000000e000e8003400f3
:1035040018007800cc4207001b007800ca4207006c
:10351400800deb007faa97000402e800f4af9f003f
:103524008b85e800e70f5200e6ff3a008040eb008d
:10353400e09d20001000e00005003a008140e80012
:103544000080e800e7cf5000faff3a00da09a9004a
:10355400d24e80000218a30047ff32000002eb00a5
:10356400e99b2000090178000904780092007800a2
:103574000100e0000e003200e10190000300e000d1
:103584000b0032001108900000b8a3007d003a003f
:1035940021009000b10090000000560081805e0080
:1035a40025e02300850f5000e08f58007d003e0089
:1035b4000402e8000884e8000281e800e40f5200f5
:1035c400eaff3a00e89b2000699c2000180278007a
:1035d4000400e0000700320034015600a4815e00bc
:1035e4008096280091002000800f5100818f59009f
:1035f4003c003e000884e800888f5400f3ff3a0042
:103604008041eb00a35f9f0003407800aa9d200047
:103614000007eb00899020000080fb0000004000c0
:1036240078004000a49d200060007a000000e000c3
:103634000d00320030009000a5f92f008f82420067
:103644000581e800e48042001af907000004e00064
:10365400aa0532004f5997000204e000ce0532005b
:10366400e24f5100320132002f5a97000440e80023
:10367400a05f9f00e74f5000e7ff36008042eb0059
:10368400a55f9f0050638000406388004163800011
:1036940062c0b300c0c620006c3f0700786380009e
:1036a400e20f540047053200af5897008140e8000c
:1036b400a15f9f0060002000682cb400efcf500091
:1036c400f2ff36008041eb00a35f9f00f209e200a5
:1036d4007f013200d24e80000200e000e8fe3d008f
:1036e400150037002450900062c0b3000440bc00b1
:1036f40051638000810041004163880062c0b300cf
:10370400c0c62000513f070070638000e10f5000e5
:10371400f500320018007800600090000000e0001e
:1037240001003200444207001800780042420700ba
:10373400000ceb00afff3700e0518000f151800036
:103744000000560081805e0005802700850f500030
:10375400e08f5800cafe3600a0ccb30088e9b70059
:103764008ea9ef00a00320004f0778004f06be008b
:103774004f05be004f04be00af05b10000000600b7
:10378400d8fe370021009000b100900000005600e0
:1037940081805e00f5c32900850f5000e08f58003a
:1037a40083ff36000040eb00a05f9f00859020005f
:1037b40007c9bf008080fb003341780082f07a00a3
:1037c4000040e80007e9b7002f5a97000440e800da
:1037d400a05f9f00e54f5000f5ff36000040eb006e
:1037e400a05f9f006b9020009b4578000b80fb003e
:1037f40033f07a008b45e9000b00780006e9b70046
:103804002f5997000240e800a05f9f00e74f500047
:10381400f6ff3600980078001108900000b0a1006f
:103824009008980098017800130990004810de0071
:1038340067404000670060004800dd00f18f2f0002
:1038440001016100000171009209980018007800dc
:103854002c0098003d009800180178009208900010
:103864000070200080846000a4033200a1f92f00be
:103874008f8040000080eb0052f907000301200014
:10388400030078004f0778004f06be004f05be00c6
:103894004f04be00af05b1000000060091fe3700e2
:1038a400b80c90000902b2001aff3a000e10a100f1
:1038b400484d9000f94f5500d3043200e14f4500c4
:1038c40090003200894178008a84fb000a40780025
:1038d40022c1b3000440bc00b163800081004100f8
:1038e4009163880022c1b30080c82000f3b79f0011
:1038f400d63e0700b2648000820078000120b20046
:10390400ffb1970095043a00768044001b00400004
:10391400114098000a45e800e1c061004208dd005a
:103924000e24a100004777000e28a30002003a00ed
:10393400f84f5500e4ff36001b0478004a4c980009
:103944004208dd000e24a100004777000e28a300e2
:10395400f0fe32000e18a3000d0b3a00ffa89700ea
:103964000184400009c3b3006190200091407800b5
:103974000181fb008590200064004400a49d200088
:10398400e0017a003340900000f17a008145e900bb
:103994000b00780006e9b7000b80fb004341900060
:1039a40002f07a0081c5e9000b00780006e9b7004f
:1039b4000b80fb007342900004f07a00e3c55000d2
:1039c4000b00780006e9b7000b80fb006341900010
:1039d40002f07a00e4c550000b00780006e9b70055
:1039e4000b80fb00134a900004f07a00e5c55000f8
:1039f4000b00780006e9b7000b80fb000349900038
:103a040002f07a00e6c550000b00780006e9b70022
:103a14000b80fb00234a900004f07a00e7c55000b5
:103a24000b00780006e9b7000b80fb0033499000d7
:103a340002f07a00e8c550000b00780006e9b700f0
:103a44000042eb00a45f9f00130178002340900024
:103a54000004e000d0033a007f889700a1f92f000a
:103a64008f804000d7f8070000c3b30080cf540014
:103a7400a30c32008980fb008180400090a42000c8
:103a84002f5997008270780064004400a39d2000a1
:103a940060817900a0a420003241900082707800f7
:103aa400000120004f0778004f06be004f05be00fe
:103ab4004f04be00af05b1000000060009fe370048
:103ac40061006100010020008301d1000281d30064
:103ad40002007000838070001bf307000001be0029
:103ae400baf2070081fe37002000200070638800ce
:103af4004063800062c0b300c1c62000913e07004d
:103b040004ff3700780090008808900000005600f9
:103b140081805e00f2e12400820f5000e08f5800a3
:103b2400fd043e00894078004a4c980084ff370029
:103b34002f5997008281fb000380410078004000e8
:103b440060007d00a000900080628000808f5000a3
:103b54006c043200689020001844780003f80700d1
:103b64008880fb0080f07c008845e9008b80fb00a6
:103b7400a0c0b30080f07c0088c5e9000b80fb0086
:103b840011c5200011f07c00e34554000b80fb00bc
:103b940001c5200011f07c00e44554000b007800be
:103ba40006e9b7000b81fb00a1f92f008f804000cc
:103bb4003180fb00000040007800400060027d007e
:103bc400d442900005f17c00e54554000b007800d8
:103bd40006e9b7000b80fb004441900002f07c0032
:103be400e64554000b80fb000ef07c00e7455400d2
:103bf4000b81fb0090c0b30000f17c00e845540049
:103c04000b00780006e9b70072902000124178009a
:103c14008281fb0030c0b30080f17c000240e800e8
:103c24000080fb000ef07c0002c0e80007e9b7004a
:103c34000080fb00e441900003f07c0063404100fd
:103c440007e9b7000080fb00f442900005f07c0017
:103c5400644141000200780007e9b70024009000a5
:103c640058f80700af5897000180fb00000040009f
:103c74007800400060007d0010007800ee400700ee
:103c84002f5997000280fb0000004000780040009c
:103c940060007d000008eb00e7400700af59970083
:103ca4000380fb0000004000780040000e307d00df
:103cb400000120004f0778004f06be004f05be00ec
:103cc4004f04be00af05b1000000060085fd3700bb
:103cd40003407800419f20000040e800a05f9f005f
:103ce400e84f5000cb0432003100e000faff32000c
:103cf400d24e800078fe370004c9bf000038a3000c
:103d0400a7083a0020ccb30088e9b70030072000a8
:103d14004f0778004f06be004f05be004f04be009b
:103d2400af05b100000006006efd370000992000c9
:103d34000cfd0700a05f9f00f94f500070fd32009a
:103d440081648000c14c880010c0b30088e9b700ca
:103d5400300220004f0778004f06be004f05be001a
:103d64004f04be00af05b100000006005dfd370042
:103d740020ccb30088e9b700700320004f07780017
:103d84004f06be004f05be004f04be00af05b10094
:103d94000000060053fd3700d14e800000002200d1
:103da4000084600056fd3a007bccbf00f94f500000
:103db4001500320022c1b3000440bc00b16380008e
:103dc400810041009163880022c1b30080c82000b3
:103dd4009e3d070096cca80096eca8009063800056
:103de40022c1b30081c82000d63d070090c1b300b2
:103df4007becb700a063800002c1b30081c7200040
:103e0400d03d070004a9a900a85f9f0008407800de
:103e140022c1b3000440bc00b163800081004100b2
:103e24009163880022c1b30080c82000873d070049
:103e3400972cab002b023a00af5997000340e800df
:103e4400a05f9f00f84f5000f1ff36000489a800de
:103e5400205180000000e00002003200764007009c
:103e6400242aef00844c8000954c80004451880043
:103e7400555188008fc9bf002ceab70010c0b300a9
:103e84008ee9b700800220004f0778004f06be007d
:103e94004f05be004f04be00af05b1000000060090
:103ea40010fd370004c9bf00e840600006083a006e
:103eb40020ccb30088e9b7000409a900fbc7b3000c
:103ec4000b00780006e9b7000100780007e9b700a5
:103ed400400320004f0778004f06be004f05be0088
:103ee4004f04be00af05b10000000600fdfc370022
:103ef4008042eb00a55f9f0005407800a39d200051
:103f04000082eb000080fb00c200dd00a202200062
:103f140001014100a59d200062807a00e10f40006c
:103f2400040032000180420010689000a249e300be
:103f34002b003200af5897000140e800a05f9f00bb
:103f4400e74f5000efff36000041eb00a25f9f00f7
:103f540049cabf00a249e30009053200120020004b
:103f6400b3a4200004032000a25f9f00840f51002b
:103f7400e3fc320082007800134078000201e8007c
:103f84008381e800a249e300f7ff3a000180400082
:103f9400a2a42000604079008001eb000004e0004e
:103fa40002003200a2e9b700430320002f5a970011
:103fb4000480fb00000040008040eb0001707900a9
:103fc400030078004f0778004f06be004f05be007f
:103fd4004f04be00af05b10000000600c1fc37006d
:103fe4008849e2002f073a0004b17900d1ff370075
:103ff400009920005bfc0700f94f50000f0b3200c2
:1040040050ccb30088e9b700b00320004f07780014
:104014004f06be004f05be004f04be00af05b10001
:1040240000000600affc3700daa9a900dac9a8002d
:104034004062800046f70700a05f9f00f94f5000e0
:104044000100320068f9070082992000a3d02800fb
:10405400070009003359780020a3200024c0b300ce
:10406400904f12008b083200d04e80004d00de00cd
:104074000000a2006140600088e9b700d00420007d
:104084004f0778004f06be004f05be004f04be0028
:10409400af05b1000000060092fc37009303200036
:1040a4008849e20088fc3a00db09a8000300780094
:1040b4004f0778004f06be004f05be004f04be00f8
:1040c400af05b1000000060086fc3700aef607001d
:1040d400a0ef9f00acf6070080ef9f00aaf6070050
:1040e4000080fb0008f02f0008066600000676003a
:1040f400a5f60700e0e79f004800dd00fc0fb200d2
:1041040000067600a0f607000080fb0008056500a5
:10411400000575009cf60700c0e79f008082fb0045
:10412400e5b79f004828dd00fa0fb20000057500ce
:1041340095f60700a0e79f0093f607000047780074
:104144000fe897000038a3000c0032008040eb0019
:10415400a15f9f0001447800699b20008af6070054
:104164008880fb0080f07c002f5997000244e8000f
:10417400a85f9f00e74f5400f8ff36008fe99700cf
:104184000348a3000c0032000042eb00a45f9f0030
:1041940004447800e99a20007bf607008880fb003d
:1041a40080f07c00af5a97000544e800a85f9f00a8
:1041b400e74f5400f8ff3600c04c8000e10f400088
:1041c40058013200e50f460056013e002fe99700e2
:1041d400e3466100e1cf5600ef06320080628000c2
:1041e400800f5600cc073a008a4c88006c4c88003b
:1041f40020c0b3008ee9b700500320004f077800b9
:104204004f06be004f05be004f04be00af05b1000f
:104214000000060033fc37008041eb00a35f9f00e1
:104224000340780083982000004178000080fb0060
:10423400f000400068004000e0f079000241e8002e
:1042440002407800e74f5100f8ff360080c0b30009
:10425400a05f9f0000992000c2fb0700a05f9f00a1
:10426400f94f5000dd09320084648000744c8800ea
:104274008869ef00700120004f0778004f06be00e8
:104284004f05be004f04be00af05b100000006009c
:1042940014fc370010c0b30088e9b70040022000c6
:1042a4004f0778004f06be004f05be004f04be0006
:1042b400af05b100000006000afc3700e0982000ba
:1042c40025c0b30090cf1200cc01320002290700b0
:1042d4008001eb00030078004f0778004f06be0012
:1042e4004f05be004f04be00af05b100000006003c
:1042f400fcfb37000489a9008849e200ca033a009c
:10430400734c8000836288000469a800fc280700bd
:104314007bccbf0022c1b3000440bc00b163800069
:10432400810041009163880022c1b30080c820004d
:10433400463c070096cca90096eca90084c820004e
:10434400f5c3200007000900355a78009063800007
:1043540022c1b30081c820007a3c07008064800039
:104364004062880004a9a800a06480004800de0020
:104374006f4060000040e8007cecb70018f80700cc
:1043840080007800f063880030648000e101600000
:104394000c003a006608b900826280000000410007
:1043a4000000e800006488000201e800126488004c
:1043b4008001fd0084ecb70085ecb7008001fd00ae
:1043c400860ca80010c0b30062f80700a063800048
:1043d40002c1b30081c720005a3c0700db09a800d2
:1043e40071628000014d8800a00320004f0778000f
:1043f4004f06be004f05be004f04be00af05b1001e
:1044040000000600b7fb370088c9bf00e3032000a3
:10441400adfb3200f54f4000db03320060ccb3004b
:1044240088e9b700030078004f0778004f06be0004
:104434004f05be004f04be00af05b10000000600ea
:10444400a8fb370004c9bf000038a30055033a0095
:1044540020ccb30088e9b700900320004f07780010
:104464004f06be004f05be004f04be00af05b100ad
:10447400000006009bfb37008040eb0030c3b30014
:10448400823907008040eb0040c3b3007f39070046
:10449400f1c0b300f0222000ac390700e0982000fe
:1044a40013c0b30090cf1100aa0332000489a900fd
:1044b4008849e200140732007bccbf0022c1b3005c
:1044c4000440bc00b1638000810041009163880016
:1044d40022c1b30080c82000dc3b070096cca800b2
:1044e40096eca8009063800022c1b30081c820002c
:1044f400143c070090c1b3007becb700a0638000bc
:1045040002c1b30081c720000e3c070004a9a90022
:104514008ea9ef00a0ccb30088e9b700a003200067
:104524004f0778004f06be004f05be004f04be0083
:10453400af05b100000006006afb37008849e200bd
:104544008402320010ccb30088e9b700e0032000f5
:104554004f0778004f06be004f05be004f04be0053
:10456400af05b100000006005efb37008099200013
:10457400fcfa0700a05f9f008849e20060fb3a0054
:10458400f94f50005efb320080648000804c88004c
:1045940026cabf0088e9b7008969ef00c00420007b
:1045a4004f0778004f06be004f05be004f04be0003
:1045b400af05b100000006004afb3700dba9ab00e1
:1045c4004ffb3a0004c9bf000038a3009f02320029
:1045d4008098200022c0b300904f11009b023a0043
:1045e40033a32000249a200007000900b45978005e
:1045f400dbc9a80010c0b3008ee9b700d0c0b30077
:104604008fe9b700a0aa21007062880005a42000e9
:10461400209a200007000900b05a780040280700bb
:10462400800220004f0778004f06be004f05be00f1
:104634004f04be00af05b1000000060029fb37009f
:10464400da49a9008849e20051023a00360ca9006f
:1046540089c9bf00bff707008869ef008303200002
:10466400030078004f0778004f06be004f05be00d8
:104674004f04be00af05b1000000060019fb37006f
:10468400d14e80006880600063053a0034fa070068
:10469400d00320004f0778004f06be004f05be0030
:1046a4004f04be00af05b100000006000dfb37004b
:1046b40004c9bf000038a30049063a0020ccb30067
:1046c40088e9b700c00320004f0778004f06be00fa
:1046d4004f05be004f04be00af05b1000000060048
:1046e40000fb3700976ca9009063800022c1b300df
:1046f40081c82000933b0700cffd37006200900083
:104704004d3e07001800780069009800a1f92f00b9
:104714008f8040000080eb00aaf507000301200011
:1047240057fc37000040eb00a05f9f000041780079
:10473400e39d2000930078000100e00003003200b4
:1047440031009000800f5500660032000241e800fd
:10475400a25f9f008381e800e74f5100f5ff3a0014
:10476400afe8970063c06000e14f500017043200c7
:10477400afe29700e1cf52004e003600d1f92f008e
:104784000180470080f607000004e00007033200c0
:104794005f5897008080fb0081804000e4804000e7
:1047a400a39d200061817900b20890000140a1001e
:1047b40031099800fef407005f5897000080fb0061
:1047c4000000400064004000a49d200060007a00c6
:1047d4008598200095427800254098005f589700fe
:1047e4000080fb00000040006400400060007a008c
:1047f400afe89700314898005f5897000080fb00ad
:10480400000040006400400060007a000fe9970057
:10481400224898005f5897000080fb000000400089
:1048240064004000e0007a00cc009800e0007a00c8
:10483400ba009800e0007a00afe197000340e90075
:10484400c04098005f5897000080fb0000004000c3
:104854006400400060007a003e4098005f58970072
:104864000080fb00000040006400400060047a0007
:1048740088c9bf00ee3d070080047800000c780072
:104884000000e0001a0732000040eb00a05f9f0028
:104894005b4c80008c9820001c4678000c04e000df
:1048a4001e003a005b4c88000c00780088e9b700d1
:1048b400da09a800806280008a0f5000760a32006c
:1048c4008a4c8800500320004f0778004f06be0032
:1048d4004f05be004f04be00af05b1000000060046
:1048e40080fa370031409000804f570097ff3a001c
:1048f40002407800aef4070077270700000020008c
:104904004f0778004f06be004f05be004f04be009f
:10491400af05b1000000060072fa3700af5c9700e3
:104924005f5897000080fb000000400064004000d6
:10493400a19d2000608078000984fb0010044400dd
:1049440091f40700004c78008944e800a95f9f00b7
:104954008849e200d3ff3200af5c97005f589700ac
:104964000080fb000000400064004000a19d200086
:10497400608078000984fb001004440082f407007e
:10498400004c78008944e800a95f9f008849e20050
:10499400e2ff3a00c3ff370007c9bf008080fb0075
:1049a4003242780084f07a000040e80007e9b7005a
:1049b4002f5897008040e800a15f9f00234090009b
:1049c400814f500024fc360007c9bf008080fb00e3
:1049d4003242780084f07a000040e80007e9b7002a
:1049e4002f5897008040e800a15f9f00234090006b
:1049f400814f5000e8ff3e0017fc3700504c800008
:104a04001004e00031fe3a00614c8000804c8000cc
:104a140084f70700f94f500037003200044d80003e
:104a240004e8a300f6043200968ca90096aca90011
:104a3400970ca800534c8000a34090008107b2005b
:104a4400c508dd00a0648000f20f2f0002006000a2
:104a540001007000a064880093409000cc08dd0041
:104a6400f2ff20000200600001007000a0648800d2
:104a740013409000000fb2004400de00b1648000d7
:104a840002ff2f008280600080807000a3c9bf00f5
:104a940094ecb7004f20de004a00dd0001a0a10025
:104aa40080807000b1648800234090004200de00e2
:104ab400610060004b00dd0001b0a1008080700047
:104ac400b1648800614c800091648800824c80004d
:104ad400826488008fc9bf0098ecb700906380009f
:104ae40022c1b30081c82000963a0700fa260700c5
:104af4008001eb00f7fd370023f60700f94f500063
:104b0400f2fd3200972ca80096cca80096eca800e1
:104b14000040eb00a05f9f008ec82000804078001a
:104b24000080fb000e0040000048eb008140e800dc
:104b340001407800e7cf5000f9ff360080c0b30091
:104b4400a05f9f007a6cec00a063800002c1b300f8
:104b540081c720007b3a0700b0ff37001b047800b0
:104b640048009000e40f400012003200e30f4000c0
:104b74000e0032008164800038009000808f500065
:104b84000c0032000288a30062fb3a00f18f9f0000
:104b9400f680440088804000114090000004a10089
:104ba4009040980013c0b3005afb37000288a3005a
:104bb400f0ff3a00890044000040eb00f0509800f8
:104bc40054fb370030002000706388006cacef00a9
:104bd4004063800062c0b300c1c62000593a070098
:104be4000800780088e9b700300720004f077800f4
:104bf4004f06be004f05be004f04be00af05b10016
:104c040000000600b7f937000e00a0000900780084
:104c140088e9b70009017800f70044009141780061
:104c240061c0610007003a00024078000201e80018
:104c34008100e800f90f5100f8ff3a00f84f5000e6
:104c44002c00320000cfb30088e9b7003808900088
:104c54006f0060002700320018089000a808900038
:104c64000000560081805e0034422f00840f500003
:104c7400e08f580016013e000e00a1008041eb00b9
:104c8400e1c061004208dd000e24a1000047770066
:104c94000e08a3002afb3200ffa9970003844100f9
:104ca40064014400a49d2000e2007a003140900099
:104cb400a2e9b700310890000050a000b0089800a5
:104cc40062007a0030089000430320000048a300eb
:104cd4008bf93200030078004f0778004f06be00be
:104ce4004f05be004f04be00af05b1000000060032
:104cf4007cf937008041eb00e1ff37002f5a970021
:104d04008481fb000380410078004000a59d2000c1
:104d1400e0807a001100780070409000a2e9b700aa
:104d24008869ef0011007800c33c0700af58970072
:104d34000180fb000000400078004000a29d20009c
:104d440060007900bc3c0700af5997000380fb006a
:104d54000000400078004000a49d20000e307a003e
:104d64000409a900fbc7b3000b00780006e9b700eb
:104d74000e00780007e9b700400320004f077800d1
:104d84004f06be004f05be004f04be00af05b10084
:104d94000000060053f937002f5897008081fb006c
:104da4000380410078004000a19d200060827800cb
:104db400a400900080628000808f5000e7043200dd
:104dc4008244780014017800be5f9f000380410094
:104dd40078004000a39d2000e080790021409000ed
:104de4000004e0000e00320085902000810178006c
:104df40007c9bf008080fb003242780084f07a004b
:104e04000040e80007e9b7003f5897000040e80079
:104e1400b05f9f00a340900080cf5000f4ff3e009d
:104e24007f889700b5f92f0085804700e5f30700d8
:104e34002f5897008081fb0003804100f801400057
:104e4400a89d200063017c00a20090008062800085
:104e5400808f50001700320063007c00100078003f
:104e6400753c0700af5a97000580fb000000400026
:104e74007800400060007c006f3c0700af5897004a
:104e84000180fb0000004000780040000e307c00f0
:104e940003012000030078004f0778004f06be008e
:104ea4004f05be004f04be00af05b1000000060070
:104eb4000cf937000980fb000000400091a4200099
:104ec4003f5a970004f0780012017800a1a4200052
:104ed4007241900002f0780063007c0010007800ba
:104ee400553c0700af5a97000580fb0000004000c6
:104ef4007800400060007c004f3c0700af589700ea
:104f04000180fb0000004000780040000e307c006f
:104f140003012000dfff37000080eb00f08f9f00cb
:104f24000e10a000e0fb2f00008047003c3c07006f
:104f34007f9a97008fa29700140c9800250c980074
:104f4400094578001b04780011c0b3004a4c98004e
:104f54007bfa37008969ef0072628000024d880095
:104f640020c0b3008fe9b70043628000c34c8800bf
:104f7400100320004f0778004f06be004f05be0007
:104f84004f04be00af05b10000000600d5f837009d
:104f9400360ca80088c9bf00e14f4000acfd3200c8
:104fa400f0e9b70060fd2f00008047001c3c0700bb
:104fb4003fa99700cfa99700624f8800734f8800dc
:104fc400da49a80089c9bf0062f507008869ef00c3
:104fd40083032000a2fd37000238a300c8f8320082
:104fe4000268a300b8043200dac9a90010c0b300f3
:104ff40088e9b700400220004f0778004f06be0042
:105004004f05be004f04be00af05b100000006000e
:10501400b4f837000042eb00a45f9f00be09e20031
:10502400acf93a0004407800019c20000040e800fc
:10503400a05f9f00e44f5000910432003100e00073
:10504400faff3200d24e8000a3f937000489a80089
:105054008849e200ea06320035a32000209a2000a5
:1050640007000900b05a780004c9bf000058a30023
:105074002b003200dbc9ab0029003200dbc9a900d8
:1050840010c0b3008ee9b70080c0b3008fe9b70049
:10509400024d80007262880003a42000249a20003c
:1050a40007000900b45978009d25070083022000f9
:1050b400030078004f0778004f06be004f05be007e
:1050c4004f04be00af05b1000000060085f83700ac
:1050d4000e00a1000080eb00f08f9f0038089000c4
:1050e400ef404000ef80600002ff2f0002006000ec
:1050f40001007000300c98001b04780020fc2f0085
:1051040000804700c63b07001fa09700afa0970090
:10511400100c9800210c980013c0b300d8fe37007f
:1051240004c9bf000058a300040032008098200086
:1051340011c0b30090cf10000d00320010c0b300b6
:105144008ee9b70080c0b3008fe9b700024d80003c
:105154007262880003a42000249a2000070009003a
:10516400b45978006e25070083022000d0ff370071
:1051740030c0b3008ee9b70080c0b3008fe9b70038
:10518400024d80007262880003a42000249a20004b
:1051940007000900b4597800612507008302200044
:1051a400c3ff37008ec9bf00a05f9f007bccbf0048
:1051b40022c1b3000440bc00b163800081004100ff
:1051c4009163880022c1b30080c820009f38070083
:1051d400db09a90093648000634c880098ccbf006d
:1051e4008ee9b700f0c0b30094e9b70095e9b700c1
:1051f4008869ef00d3022000af5897000104e00053
:1052040031f832008829a800030078004f0778009d
:105214004f06be004f05be004f04be00af05b100ef
:10522400000006002ff837000469a9004eacef0017
:105234003b25070004a9a9007bccbf0022c1b30011
:105244000440bc00b1638000810041009163880088
:1052540022c1b30080c820007c380700976ca900e5
:1052640090c1b3007becb7009063800022c1b3000f
:1052740081c82000b338070090c1b3007becb700ad
:105284008041eb00a35f9f0080c4eb0003407800e3
:1052940008e0200022c1b3000440bc00b1638000d8
:1052a400810041009163880022c1b30080c82000be
:1052b40066380700b064800008006000880f500062
:1052c400140032002f5a97000440e800a05f9f00aa
:1052d400f84f5000efff36007bccbf00f94f500071
:1052e4003b003a000489a9008ea9ef0030ccb3003a
:1052f40088e9b700a00320004f0778004f06be00de
:105304004f05be004f04be00af05b100000006000b
:10531400f4f7370091648000004d8000808f5000c6
:10532400e8ff3a00f0c2b300944ce300e5ff360016
:10533400a06480004800de006f406000894f500088
:10534400e0ff3100804478002f5897007becb700d1
:10535400dcff37008849e200420032000489a900da
:10536400600320004f0778004f06be004f05be00c3
:105374004f04be00af05b10000000600d9f73700a6
:105384008000eb0001fb37008869ef00e003200098
:105394004f0778004f06be004f05be004f04be0005
:1053a400af05b10000000600cef73700ca2407009d
:1053b400000020004f0778004f06be004f05be00d6
:1053c4004f04be00af05b10000000600c5f737006a
:1053d40022c1b3000440bc00b163800081004100dd
:1053e4009163880022c1b30080c8200017380700e9
:1053f400014d80007162880002a42000239a2000dd
:105404000700090033597800c5240700c1628000f1
:105414008180e80012c0b300a0f92f000f00400003
:105424000a38070098ccbf008ee9b70020c0b3004b
:105434008fe9b70081648000c14c88002f58970021
:1054440088e9b700500120004f0778004f06be00de
:105454004f05be004f04be00af05b10000000600ba
:10546400a0f737008969ef008a29ef00624c8000b9
:105474000200e00013003200504c80000000e00005
:105484007900320092009000908f500005003200a5
:10549400700090000000e00073003200908f500014
:1054a400feff3a00624c8000620c9000020078001b
:1054b400e13a070008017800684c88000800e00021
:1054c400edff3a008949e20001003a000489a9008d
:1054d40063032000dbc9ab007bf73200dbc9a90002
:1054e40072902000124178008280fb008590200099
:1054f40060c0b30080f07a000240e8000080fb0046
:10550400e1ccb30001f07a0002c1e80002007800a7
:1055140007e9b700a0bc2000a1d0280007000900bb
:10552400315878000041eb00a25f9f0002407800f0
:105534006b9020009b457800a3bc20008b44e900bd
:105544000b4578008b80fb000080fb006700100097
:1055540060c0790080f07a00894578008944e900c8
:105564000241e80002407800e74f5100f4ff3600a2
:1055740080c0b300a05f9f008005fd0006e9b7006e
:105584008005fd0085bf9f0078f107008b80fb003c
:105594008fba970080f07a008980fb0010c0b300b6
:1055a40080f07a00e34555000b80fb0011c5200014
:1055b40011f07a00e44555000b80fb0001c5200082
:1055c40011f07a00e54555000b80fb0011c920005d
:1055d40011f07a00e64555000b80fb0001c920005c
:1055e40011f07a00e74555008b80fb0000c1b30041
:1055f40080f07a00e84555008b80fb0090c0b30032
:1056040080f07a00e94555000b00780006e9b70000
:1056140080648000a1f92f008f804000e9f1070029
:10562400dbe9a80020fd2f00008047007c3a07003a
:105634001faa9700afaa9700e4518800f55188008b
:105644008564800045628800000120004f077800cf
:105654004f06be004f05be004f04be00af05b100ab
:10566400000006001ff73700120278006100620094
:105674005200320064004100baf60700a05f9f00a8
:10568400af5a9700f9cf520086ff3200dbc9ab0056
:1056940005003200624c8000a2589000f0c8b300ac
:1056a40080cf500080ff360000c1b300603a07008d
:1056b400800178000000e0007aff3200604c800036
:1056c4001000900080097800604c80001040900029
:1056d400a0419800a1648000cc08de00c808dd0069
:1056e40013009000f20f2f00020060000100700010
:1056f40090019800b1648000cc08dd00f2ff200026
:10570400020060000100700090019800604c80006d
:10571400200990006f0161002300900001ff2f0019
:105724000100600002007000a0019800614c80003c
:10573400a1089000010fb200f2f02f0002006000f7
:1057440001007000a0019800614c8000a108900045
:10575400cf08de00c808dd000080a1000100700051
:10576400a0019800e6804100604c80006c0040007d
:105774001002be008488be0020029000b002900097
:10578400a4009800b5009800554c8000f5019800dd
:10579400534c88008969ec00624c8000620c9000d4
:1057a40002007800243a070008017800684c880059
:1057b4000800e00030ff3a0042ff3700220090006a
:1057c40063f10700a05f9f00adff3700eef0070014
:1057d400a05f9f00e14f50000c0032002f5897004b
:1057e400e44f500061003200bb230700000020009a
:1057f4004f0778004f06be004f05be004f04be00a1
:10580400af05b10000000600b6f63700db09ab00b7
:10581400f2ff3200806280008a0f50004f0732008e
:1058240018c0b30088679f00d7f0070090679f00f7
:10583400d5f00700a0679f00d3f00700c0679f0062
:10584400d1f00700d0679f00cff0070080457800b3
:105854008040e800e1679f0070cdb300a349e300f6
:1058640002003e000140e800e0679f0030cbb30037
:10587400a349e30003003e006f6097000040e80086
:10588400e0679f00f0c8b300a349e30003003e00b3
:105894006f6097000040e800e0679f00b0c6b30067
:1058a400a349e30003003e006f6097000040e80056
:1058b400e0679f0070c4b300a349e30003003e0007
:1058c4006f6097000040e800e0679f0030c2b300bb
:1058d400a349e30003003e006f6097000040e80026
:1058e400e0679f00af6097001f629700af91970039
:1058f4000a01780008407800d0f007000004e000b6
:1059040003003200c04c8000e10f40001c0732004d
:10591400804c80000ef10700f94f50000500320062
:10592400b0648000000cb20001042000810f50001c
:10593400370b3200884c800040628000800f540096
:10594400b40b3200642307008001eb0003007800ed
:105954004f0778004f06be004f05be004f04be003f
:10596400af05b100000006005ef6370086f00700c0
:105974008045780080628000800f55001b0b320048
:10598400afe09700e1cf500053003600d2f92f006a
:1059940002804700fcf107000004e0008f0432009d
:1059a4005f5897008080fb0081804000e4804000c5
:1059b400a39d200061817900b20890000140a100fc
:1059c400310998007af007005f5897000080fb00c7
:1059d4000000400064004000a49d200060007a00a4
:1059e4008598200095427800254098005f589700dc
:1059f4000080fb00000040006400400060007a006a
:105a0400afe89700314898005f5897000080fb008a
:105a1400000040006400400060007a000fe9970035
:105a2400224898005f5897000080fb000000400067
:105a340064004000e0007a00cc009800e0007a00a6
:105a4400ba009800e0007a00afe197000340e90053
:105a5400c04098005f5897000080fb0000004000a1
:105a64006400400060007a003e4098005f58970050
:105a74000080fb00000040006400400060047a00e5
