:020000040000fa
:080000000002040000000000f2
:020000040000fa
:100400008f1322000e7f22000e01880000000000e2
:100410000c00070040a92a00010020000f0007007f
:10042000000020000000e000020032000000020096
:100430000000000002990200000000000040da0005
:100440000000fe00e07120000000e0000200320029
:10045000002020009001880000000600a102880012
:10046000800078000000eb001a003700e2804000b6
:1004700054a0b4009101ba00e280400054a0b4003e
:100480009102ba00e280400054a0b4000002eb00e8
:10049000472bde00f507b200a6018800602ce100c2
:1004a00008003a000049eb000201e80002003900b0
:1004b0003420ec0002f0a0008301e900f9ff3e00c7
:1004c000040037006128e100010032000082eb00e7
:1004d000040007001101ba000200e000e3ff3a0047
:1004e0000000060004d0a300e20f49001c00390000
:1004f000810278003549ba000201e80002003900a3
:100500003420ec0002f0a0008301e9000f0032006b
:100510002549ba000201e800020039003420ec004d
:1005200002f0a0008301e900080032000400e000ae
:100530000600320015c9ba000201e80002003900c5
:100540003420ec0002f0a0008301e9008180e80083
:1005500054a0b4000300e000e2ff3a0000000600ef
:100560009102ba00055978008301e900f7ff3200d3
:10057000c82ade00055978008301e900f3ff320044
:100580000400e000f1ff320011d9ba00eeff37009d
:100590000040da000000fe0003f0a200889fbe00c9
:1005a0008a9fbe008c1f7800ac000700b3003300a8
:1005b0006450e1004f0032006420e100520032003c
:1005c00003826c0007003b000905d0000306d00041
:1005d000820f54000c065d00020039000200320058
:1005e00089017800030678008582550004003d00eb
:1005f0000003fd008103fd008502ea008b854200b7
:10060000840f720002003b0060001000e0801800c0
:100610006011b8000005eb007a28e1000a003900fb
:1006200006007800c75ddd00f707b200878075001f
:100630002d003700828171000a0178006105600099
:100640008180d1000080d3008502e900f9ff3b00e2
:10065000060440008784480002003b006004140048
:10066000e0841c000988a300070032008a81710021
:1006700082817100610164008904d1000884d30083
:100680008b05e800170037000978a30013003a0033
:100690000b00e000130034008b05e900080444005f
:1006a00089844c000a4474000978a3000d003a00c4
:1006b0000b00e000070034008b05e900080444004b
:1006c00089844c0001003a000b0020000978a30047
:1006d000f7ff32000001eb00020037008281710059
:1006e0000a017800370007000cf0a70001f0a00015
:1006f0006b0037006420e10002003a00838f6c0039
:100700006b0033000801be000200be006400370029
:10071000f4ff2f009d003700889fbe008a9fbe0017
:10072000010578000100e0000400350008003c00ed
:100730000000e000200032000500370060001000db
:10074000e080180002003b0001f02c001a00370086
:100750000004be006011b8006b0920000982cf00c0
:10076000020039000882cf000441b0006942520003
:100770000e00320008003b008281710061016400bc
:100780008904d1000884d3008b05e8000442e80006
:10079000f9ff3a00050037000804440089844c0042
:1007a0008b05e9000442e900fbff3a000500070061
:1007b0000af0a70001f0a0004f05be004f04be00e4
:1007c0000000060081002000618055000b003d0004
:1007d0000b00200061fe2f000100e1001d0034002d
:1007e00082817100610164008904d1000884d30012
:1007f0000000e800faff3a00710020006100640088
:10080000030070000200600009003200610444002f
:10081000e0844c000988a500050032008b05e80043
:100820006808e10002003a008904d1000884d3007e
:10083000f20f20000258e10005003d00c75ddd0019
:10084000f907b200898075000800780000000600f2
:100850000bf827008b007800000005000004be00a4
:10086000650007000003be000405be000200be00d4
:1008700061000700844f7500000006000200be0002
:100880006450e100050036006420e10002003600fb
:100890000968a30001003a000800be000160a00042
:1008a0004f0678004f05be004f04be000000060052
:1008b000f0ff2f00f1ff2700f9ff3700889fbe00ef
:1008c0008a9fbe008c1f7800e4ff0700ebff330017
:1008d00003866c006450e100240032006420e100d3
:1008e000270032006150e100220032006120e10067
:1008f000210032008b854200eb07b1000134b800c3
:10090000003ab8000804420089844a00013ab8005d
:100910000030b8008880400009014a00040033001c
:100920000000400081804800020149008b05e90079
:10093000c909dd00830170000100320013002000ae
:10094000c814de004814dd004709de001200b200c2
:10095000c808de00088470009aff070001f0a100bb
:100960000cf0a70001f0a000cdff37006120e100ee
:10097000cfff32000801be000200be00f7ff3700c3
:100980006150e100fcff3a00c9ff3700889fbe00bc
:100990008a9fbe00841f7800b0ff07004f007800d8
:1009a00011003300f0ff2f00838f6c0006003b0026
:1009b000040565000a00a7000800370009f0a6003a
:1009c0001000200008003700820f5400838f5c0065
:1009d000030039001000200001003e00000020004c
:1009e00009f0a7000000ea004f05be004f04be005a
:1009f0000000e00000000600c70ade00f107b200b8
:100a0000f50fb20008003200e1cf420002003200d0
:100a10000170a00024000500810f70000100320069
:100a20000408050044000500810f700002003a0030
:100a3000140005008502e9000000400081c0480064
:100a4000fcff3b000170a000240005000400fa0038
:100a5000e0bf9f00e4815700812978000002eb008d
:100a60000f0037006fb89700904078007fb897006c
:100a7000104078000402e80080cf500004003200eb
:100a80008180fb000080fb000080500007003700e1
:100a90006fb897000000e800e0bf9f009309e800ee
:100aa000820f5200efff3a000000eb000080fa00d6
:100ab000000006008001eb000200370061f07900c1
:100ac0008301e800828f5100fcff3a00000006001d
:100ad000889fbe008a9fbe008c9fbe0000017800e8
:100ae00061d421001100e0000b003a00a0d42100e5
:100af00030ea880010ea880051ea880021ea88007c
:100b0000214090000004a000a040980061409000a7
:100b10000004a000e0409800e7004100c208de00a9
:100b2000c20cdd0024ea80000dd5210080132200d4
:100b30000d05500022002000811f780011000900df
:100b40000205d80000067800cf007800c308dd0059
:100b5000e48540008001eb0006d5210065d421002a
:100b60000100370001027800244090000008a30033
:100b7000020032000a003700110a78009400780061
:100b8000214090000008a300fbff32000901420051
:100b9000828f500002003900840f5100460031005e
:100ba00094007800848f5000eeff3e00868f500046
:100bb00002003900858f5000eaff390010ea8000fa
:100bc000800f52004f003a00858f50004d003a00d0
:100bd0008301e800e18f5100e2ff36008c8f540062
:100be000040036008a8f5400020031000b047800a4
:100bf00012003700614ab8006151b900b0ff2f0000
:100c0000010020000200500083805800800f520035
:100c1000818f5a0002003500090478000700370070
:100c20000d805400b21322000200400011000900a0
:100c30000a80d8000a80b900000478000800780013
:100c40006800070080017800e10f40002d003200ad
:100c500010ea80000308780012ea80006400410076
:100c6000a2409000808f5100020032000104a000d9
:100c7000010037000104a1002141980008804100d3
:100c8000640050008009780010ea880062d42100d6
:100c90000208780011ea8000214090000004a000c2
:100ca000a0409800234090000004a100a0419800bb
:100cb00002027800a7ff370022ea8800828f5000e6
:100cc000090036009200780000d42100a241900073
:100cd00003487800f1e98800140978008040eb00af
:100ce00020ea80002140980020ea8000000a780075
:100cf000244090000004a0002042980064004200bc
:100d0000010037000000eb004f06be004f05be009b
:100d10004f04be00000006006400500020ea880076
:100d2000a04090000104a1002140980000000600ae
:100d3000889fbe008a9fbe0000057800e401500035
:100d400013001000c285de00234090000008a300bd
:100d50000400320023ea8800234090000004a10030
:100d6000a04198000100780059ff070000047800b6
:100d70000000e000170032008a0f5000150032001a
:100d800060b8970008005000c284de00898f5500cb
:100d900001003600890578004259dd008a0078009c
:100da0000800780043ff07008a0f54000900310053
:100db0004248dd00000044008a0f50000500360064
:100dc0000a00500000004400f2e9800003ea8000bd
:100dd0000288be00080078004f05be004f04be0028
:100de00000000600889fbe008004780070ea800042
:100df0000000e00003003a00100007000000e000df
:100e00000a00350070ea80000900e00002003a00a4
:100e10000004780006003700000478000900400054
:100e2000060007000000e00001003d000084eb0028
:100e3000080078004f04be00000006008000780023
:100e40000000e00004003a0000d5210070ea8800ac
:100e500001017800060037000081eb0080132200ba
:100e6000808f500002003e0071ea88000001eb0014
:080e70000200780000000600fa
:020000040000fa
:020000040002f8
:04aff400ffff00005b
:020000040000fa
:020000040002f8
:04aff8002ef800002f
:020000040000fa
:020000040002f8
:04affc00d93f000039
:020000040000fa
:10000800c8020000c8020000c8020000c8020000c0
:10001800c8020000c8020000c8020000c8020000b0
:10002800c8020000c8020000c8020000c8020000a0
:10003800c8020000c8020000c8020000c802000090
:10004800648e0000c8020000c80200000e8f000085
:10005800c8020000e68e0000c8020000c8020000c6
:10006800c8020000c8020000c8020000c802000060
:10007800909d0000c8020000c8020000c8020000ed
:10008800c8020000c8020000c8020000c802000040
:10009800c8020000c8020000c8020000c802000030
:1000a800c8020000c8020000c8020000c802000020
:1000b800c8020000c8020000c8020000c802000010
:1000c800c8020000c8020000c8020000c802000000
:1000d800c8020000c8020000c8020000c8020000f0
:1000e800c8020000c8020000c8020000c8020000e0
:1000f800c8020000c8020000c8020000c8020000d0
:10010800c8020000c8020000c8020000c8020000bf
:10011800c8020000c8020000c8020000c8020000af
:10012800c8020000c8020000c8020000c80200009f
:10013800c8020000c8020000c8020000c80200008f
:10014800c8020000c8020000c8020000c80200007f
:10015800c8020000c8020000c8020000c80200006f
:10016800c8020000c8020000c8020000c80200005f
:10017800c8020000c8020000c8020000c80200004f
:10018800c8020000c8020000c8020000c80200003f
:10019800c8020000c8020000c8020000c80200002f
:1001a800c8020000c8020000c8020000c80200001f
:1001b800c8020000c8020000c8020000c80200000f
:1001c800c8020000c8020000c8020000c8020000ff
:1001d800c8020000c8020000c8020000c8020000ef
:1001e800c8020000c8020000c8020000c8020000df
:0801f800c8020000c80200006b
:020000040000fa
:10020800c8020000c8020000c8020000c8020000be
:10021800c8020000c8020000c8020000c8020000ae
:10022800c8020000c8020000c8020000c80200009e
:10023800c8020000c8020000c8020000c80200008e
:10024800648e0000c8020000c80200000e8f000083
:10025800c8020000e68e0000c8020000c8020000c4
:10026800c8020000c8020000c8020000c80200005e
:10027800909d0000c8020000c8020000c8020000eb
:10028800c8020000c8020000c8020000c80200003e
:10029800c8020000c8020000c8020000c80200002e
:1002a800c8020000c8020000c8020000c80200001e
:1002b800c8020000c8020000c8020000c80200000e
:1002c800c8020000c8020000c8020000c8020000fe
:1002d800c8020000c8020000c8020000c8020000ee
:1002e800c8020000c8020000c8020000c8020000de
:1002f800c8020000c8020000c8020000c8020000ce
:10030800c8020000c8020000c8020000c8020000bd
:10031800c8020000c8020000c8020000c8020000ad
:10032800c8020000c8020000c8020000c80200009d
:10033800c8020000c8020000c8020000c80200008d
:10034800c8020000c8020000c8020000c80200007d
:10035800c8020000c8020000c8020000c80200006d
:10036800c8020000c8020000c8020000c80200005d
:10037800c8020000c8020000c8020000c80200004d
:10038800c8020000c8020000c8020000c80200003d
:10039800c8020000c8020000c8020000c80200002d
:1003a800c8020000c8020000c8020000c80200001d
:1003b800c8020000c8020000c8020000c80200000d
:1003c800c8020000c8020000c8020000c8020000fd
:1003d800c8020000c8020000c8020000c8020000ed
:1003e800c8020000c8020000c8020000c8020000dd
:0803f800c8020000c802000069
:020000040000fa
:100e7800656e000064000000546500006d7000009d
:100e88006572000061740000757200006520000042
:100e98002868000065780000293a0000200000005a
:100ea8000d0a000000480000756d0000696400002c
:100eb8006974000079200000286800006578000047
:100ec800293a0000200000004a75000073740000f1
:100ed80020730000656e000074200000646100004b
:100ee80074610000207000006f73000069740000d6
:100ef800696f0000206600006f7200002072000019
:100f0800657100007565000073740000206f0000b3
:100f180066200000526f00007574000065720000c2
:100f28005f4500004d4200000d0a00000056000019
:100f38006f6c0000746100006765000020280000e5
:100f480068650000782900003a200000004400008d
:100f58006574000065630000746900006e67000036
:100f6800206c00006f770000207000006f77000091
:100f7800657200000d0a0000005200006f75000045
:100f88007465000020520000657000006c79000054
:100f9800204f00004b0d00000a0000002052000006
:100fa8006f75000074650000205200006570000035
:100fb8006c79000020460000616900006c65000043
:100fc800640d00000a0000004e7500006d6200000c
:100fd80065720000206f0000662000005a6900005a
:100fe8006762000065650000206e000065740000ff
:100ff800776f0000726b00002068000061760000c7
:101008006520000062650000656e00002066000033
:10101800696e0000643a0000200000005072000071
:101028006570000061720000652000006a6f0000b2
:10103800696e0000207400006f2000006e650000db
:10104800747700006f7200006b3a000020300000d7
:10105800780000004e6f000074200000666f0000ea
:10106800756e00006420000064650000736900006c
:1010780072650000206e000065740000776f000044
:10108800726b000020300000783100004141000000
:10109800410d00000a000000466f0000756e000058
:1010a8006420000064650000736900007265000038
:1010b800206e000065740000776f0000726b0000fe
:1010c800203000007831000041410000410d00004f
:1010d8000a0000004e650000747700006f7200007f
:1010e8006b28000073290000206600006f7500005f
:1010f8006e6400002e200000547200007969000020
:101108006e670000207400006f2000006a6f000006
:10111800696e000020000000207c00002000000014
:101128004e6f0000206e000065740000776f0000ad
:10113800726b000073200000666f0000756e00007f
:10114800642e00002054000072790000696e0000cf
:101158006720000061670000616900006e210000df
:101168000d0a00000020000045720000726f0000a8
:1011780072200000666900006e640000696e00005d
:10118800672000006e650000747700006f72000031
:101198006b2e00002054000072790000696e000078
:1011a8006720000061670000616900006e2e000082
:1011b8002e2e00000d0a0000004a00006f69000092
:1011c8006e2000004f4b0000210d00000a000000b7
:1011d8005374000061740000757300003a20000029
:1011e800002e0000204300006f7500006c640000b2
:1011f800206e00006f740000206a00006f69000014
:101208006e20000061730000206f00007270000003
:10121800686100006e2e000020000000547200007b
:10122800796900006e6700002061000067610000b6
:10123800696e0000210d00000a0000004d750000d5
:1012480073740000207400007279000020610000af
:10125800732000006e650000772000006e6f0000ac
:1012680064650000210d00000a0000002e20000027
:10127800436f0000756c0000642000006e6f000072
:10128800742000006a6f0000696e0000207300007f
:10129800656c000065630000746500006420000050
:1012a8006e650000747700006f7200006b3a0000f2
:1012b800200000002e200000547200007969000010
:1012c8006e670000206e0000657800007420000042
:1012d80064690000736300006f76000065720000a7
:1012e80065640000206e000065740000776f0000e0
:1012f800726b00003a200000002e0000204300001e
:101308006c650000616e0000696e000067200000d7
:1013180075700000206100006e64000020720000fb
:101328006574000072790000696e00006720000093
:1013380064690000736300006f7600006572000046
:10134800792100000d0a0000005200006f750000ae
:101358007465000072200000537400006172000080
:101368007465000064210000204500006e610000e3
:10137800626c0000696e0000672000006a6f000060
:10138800696e0000732e00002e2e00000d0a00006a
:1013980000200000526f00007574000065720000a4
:1013a8002073000074610000727400002046000081
:1013b800616900006c650000642e00002057000081
:1013c80065200000636100006e6e00006f7400000d
:1013d800207200006f750000746500002066000030
:1013e800726100006d650000730d00000a000000c6
:1013f8004a6f0000696e0000696e000067200000f7
:1014080070650000726d000069740000746500006a
:10141800642100000d0a00000043000075720000fe
:10142800726500006e740000204e000065740000b4
:10143800776f0000726b00002041000064640000b8
:10144800726500007373000020690000733a0000a1
:1014580020000000204a00006f6900006e20000094
:1014680070650000726d0000697300007369000008
:101478006f6e000020460000616900006c65000086
:10148800642e000020570000652000006361000002
:101498006e6e00006f740000206100006c6c00002c
:1014a8006f770000206a00006f6900006e7300000b
:1014b8000d0a0000004e00006f6400006520000067
:1014c800002000005769000074680000204d0000eb
:1014d8004143000020410000646400007265000080
:1014e8007373000020000000206a0000757300007c
:1014f800742000006a6f0000696e000065640000d7
:101508002e0d00000a00000057650000206800004a
:1015180061760000652000006c65000066740000bc
:101528002074000068650000206e000065740000eb
:10153800776f0000726b00000d0a00000041000088
:101548006e6f00007468000065720000206e000075
:101558006f640000652000006861000073200000cf
:101568006c65000066740000207400006865000067
:10157800206e000065740000776f0000726b000039
:101588000d0a0000005a000069670000426500006b
:101598006520000053740000616300006b200000a8
:1015a800686100007320000062650000656e00003d
:1015b8002072000065730000657400000d0a0000c9
:1015c800002000004c65000061760000696e000094
:1015d8006720000074680000652000005a69000058
:1015e8006762000065650000206e000065740000f9
:1015f800776f0000726b00000d0a000000430000c6
:10160800686100006e67000065200000746f0000cc
:10161800206d00006f640000652000005361000029
:1016280076650000456e000065720000677900006d
:101638000d0a000000430000686100006e670000aa
:1016480065200000746f0000206d00006f640000ca
:1016580065200000416300007469000076650000a1
:101668000d0a0000004a0000757300007420000095
:10167800736500006e74000020640000617400004f
:1016880061200000666f0000722000007265000093
:101698007175000065730000742000006f6600001b
:1016a800205200006f75000074650000725f000032
:1016b800454d0000420d00000a000000435900009b
:1016c800434c0000455f00004c45000056450000b3
:1016d8004c2000003d20000000530000656e000013
:1016e800646900006e670000206c00006f6f0000e6
:1016f8007020000062610000636b00000d0a0000aa
:10170800002000004e6f00006e2d00007375000071
:10171800707000006f72000074200000436c0000bd
:10172800757300007465000072490000442e0000c3
:101738002e2e00000d0a0000002000004572000057
:10174800726f000072200000736500006e64000074
:10175800696e0000672000006d650000737300006b
:1017680061670000650d00000a0000005365000075
:101778006e640000696e0000672000006d6500005f
:101788007373000061670000652000004f4b000084
:10179800210d00000a00000050650000726600007c
:1017a8006f7200006d200000477200006f75000026
:1017b800702000004f700000657200006174000026
:1017c800696f00006e0d00000a00000054720000ee
:1017d800796900006e670000207400006f20000027
:1017e8006a6f0000696e0000206e000065740000da
:1017f800776f0000726b000020610000732000000a
:10180800616e0000206f00007270000068610000c7
:101818006e2e00002e2e00000d0a0000005400005d
:1018280072790000696e000067200000746f000084
:10183800206a00006f6900006e2000006e650000dd
:10184800747700006f7200006b2000006173000065
:1018580020610000206e0000657700002064000011
:101868006576000069630000652e00002e2e0000da
:101878000d0a000000530000656e00006469000056
:101888006e67000020770000617200006e6900003a
:101898006e670000206c00006f7700002d7000005c
:1018a8006f77000065720000207400006f20000050
:1018b800524500000d0a000000530000656e00004c
:1018c800646900006e670000207000006572000007
:1018d800696f00006420000064610000746100000a
:1018e800207400006f20000052450000200d000009
:1018f8000a000000426100007420000064610000da
:10190800752000006e670000752000000d0a0000b9
:10191800004200006174000020640000617500004e
:101928002074000068750000632000000d0a0000a4
:1019380000200000556e0000686100006e64000021
:101948006c6500006420000070720000696d000082
:101958006974000069760000650d00000a00000047
:10196800496e0000697400002055000041520000d3
:10197800543200000d0a0000004900006e690000a2
:101988007420000048610000726400007761000064
:10199800726500000d0a0000005a00006967000027
:1019a8006265000065200000496e0000697400004f
:1019b8000d0a0000002d00005f2d00005f2d0000c3
:1019c8005f2d00005f2d00005f2d00005f2d0000df
:1019d8005f2d00005f2d00005f2d00005f2d0000cf
:1019e8005f2d00005f2d00005f2d00005f2d0000bf
:1019f8005f2d00005f2d00005f2d00005f0d0000cf
:101a08000a0000005a69000067420000656500008e
:101a1800205200006f7500007465000072200000fd
:101a2800536500006e7300006f72000039000000fb
:101a3800202d0000205200002644000020620000f3
:101a48007920000057530000414e00002d4c000043
:101a58006162000034310000310d00000a0000000e
:101a680054720000616e0000736300006569000035
:101a780076650000722d00004d52000046320000cd
:101a8800344a0000343000000d0a00000000000055
:101a9800020100000f0f0000000500000080000098
:101aa8001006000000000000000000000000000018
:101ab800000a000000000000010000000200000011
:101ac80003000000040000000500000006000000fc
:101ad8002000000021000000220000000a00000091
:101ae80000800000018000000280000003800000e8
:101af80004800000058000000680000020800000af
:101b08002180000022800000f00000000301000096
:101b1800ffff00000003000009000000190000009a
:101b280007000000000000000000000000000000a6
:101b3800000000000000000000000000000000009d
:101b48000600000005000000060000000a00000072
:101b58001a0000000800000001000000000000005a
:101b6800000000000000000000000000000000006d
:101b7800000000000000000000000000000000005d
:101b8800000000000000000000000000000000004d
:101b9800000000000000000000000000000000003d
:101ba800000000000000000000000000000000002d
:101bb800000000000000000000000000000000001d
:101bc800000000000000000000000000000000000d
:101bd80010c1000000400000ce000000000000001e
:101be8007f000000000000000000000078000000f6
:101bf80000000000b4000000000000002c010000fc
:101c0800000000001c02000000000000fc030000af
:101c180000000000bc070000000000003c0f0000ae
:101c2800000000003c1e0000000000003c3c0000da
:101c3800000000003c780000000000003cf00000bc
:101c4800000000003ce00000010000003cc0000073
:101c5800030000003c800000070000003c0000007a
:101c68000f0000003031000032330000343500002e
:101c78003637000038390000414200004344000074
:101c8800454600007374000061720000740a000089
:101c9800006500006e6400000000000009000000fc
:0c1ca8000004000000a300000400000085
:020000040000fa
:101cb4008000eb0010d58000f007b2000100320074
:101cc400110020000100780000000600881f780041
:101cd400ccb8a900ac3cef00ae3cef0070e480004f
:101ce40050e488000044eb0050e4800022c1b300bb
:101cf40001ca2100d94a07000844e8002001200055
:101d04008a3cb400f94f5400f7ff3a00927cef008c
:101d14000800780093fcb7009c7cef009d7cef00ea
:101d24009e1ca900c0532a0080e4880060e480005f
:101d340002c1b30001c92100c84a07004f0478005a
:101d440000000600889fbe008a9fbe008c1f78009a
:101d540000057800010678008205780010e4800010
:101d640000e488008044eb000944780001e480002a
:101d740062c0b30040c821007a4a070020e4800012
:101d84008a0f5000100032000844e8006000200070
:101d9400803cb400ef4f54000e003e000904e00004
:101da400f2ff320040e48000000e780086dcbf00c1
:101db400804d78000980fb004f0678004f05be0077
:101dc4004f04be000000060019c0b300ef4f5400da
:101dd400f2ff36000904e000f2ff3a0030c0b3001d
:101de400804d78000000eb004f0678004f05be00e0
:101df4004f04be0000000600f3ff3700045bec0054
:101e040004fbb70002003a0010c0b30004fbb700a3
:101e14000080fb000000060050d9bf008000eb00ea
:101e2400050032000040e90050f9b70090ca800074
:101e3400b080fb0090ca8800010078000000060012
:101e4400889fbe008a1f78000004eb000080fb001e
:101e540000004000640540007240b9008e1cb400cc
:101e640050e4880022c1b3008000780000ca210039
:101e74003c4a070041e58000c0ca8000808f5000c2
:101e8400060032000804e800f90f5400f2ff3a009b
:101e94004f0578004f04be000000060020aa210070
:101ea4006a0078008880fb00f68040008080400053
:101eb400114090000004a100904098004f05780064
:101ec4004f04be0000000600f4ff3700889fbe00e8
:101ed4008a9fbe0000437800830578000044eb002d
:101ee40065a82100e7a82100950178000300e0001f
:101ef400190032000604e000030032006348900039
:101f0400814f5000110032008582e800858f530014
:101f1400f5ff3a0009c1b3000404e00001003500f4
:101f240089c0b3000804e0000400320010e480001b
:101f340000e488000904e0000c003a000000eb0013
:101f44004f05be004f04be00000006004300900091
:101f5400820f5000ecff3a0018c0b3008582e800fd
:101f6400858f5300e0ff3a00eaff37000045eb009d
:101f74000a44780001e4800062c0b30040c8210034
:101f8400f849070020e480008b0f50000d00320058
:101f940030e48000e30f50000a0032000844e800f7
:101fa40060002000803cb40088cf5400f1ff3a0068
:101fb4000a80fb004f05be004f04be00000006006f
:101fc400e2ff37001ac0b3000844e80060002000b4
:101fd400803cb40088cf5400e6ff3a00f4ff370099
:101fe400889fbe008a1f78000005780070e4800096
:101ff40050e488000004eb0051e4800022c1b300e7
:1020040000ca2100d7490700af3cab0009003a00e1
:10201400200120008a3cb4000804e800f90f5400b1
:10202400f5ff3a00080078004f0578004f04be0021
:102034000000060040e580008a0f5000f4ff3a00db
:102044000880fb004f0578004f04be000000060026
:10205400f8ff370080017800cc18a80022c0b30034
:102064000200780056f9b70070df8000a0ca88002b
:1020740084df8000c4ca88000001fd0057f9b7005e
:102084000001fd0040cb880003cb8800eadbbf00e1
:10209400804878006af9b7005379ef00e18f410076
:1020a400080032005319a80003007800ccff070091
:1020b400f94f500003003200af1cab0001003a009e
:1020c4005359a80010c0b30052f9b700000006002d
:1020d4000200fa00889fbe008a9fbe008005780037
:1020e40002047800e4cf5000120032000180fb00ab
:1020f4000000400061a8210060807800205090001a
:1021040062c0b3000440bc0011e4800081004100bf
:1021140001e4880062c0b30040c82100914907006f
:10212400863cef0000e4800062c0b30041c8210097
:10213400ca490700f18c2100914078000181fb001d
:10214400098d210020c0b30000f17c000140e800ab
:10215400cff8b7000080fb001841900002f07c002b
:1021640001c0e800cff8b7000080fb0028419000d0
:1021740002f07c0063c040000080fb000bf07c0098
:1021840064c04000485dde000080fb000af07c0073
:1021940065c04000cff8b7000080fb0048419000c4
:1021a40002f07c0066c04000cff8b7000080fb005e
:1021b4005841900002f07c0067c04000cff8b7009f
:1021c4000080fb006844900008f07c00e8c04000f8
:1021d4008000fd00cff8b7008000fd00e88c2100ee
:1021e4001844780005ff07008880fb0080f07c001d
:1021f4000840e9000080fb00a1c0b30001f07c00ae
:1022040008c0e9000080fb0011bf210011f07c0030
:10221400634054000080fb0001bf210011f07c00ea
:10222400644054000080fb000af07c0065405400c8
:102234000080fb000bf07c00664054000080fb0033
:102244008040eb0001f07c00674054000080fb00fc
:1022540091c0b30001f07c00684454000800780089
:10226400cef8b700c0ca8000ea80570079ff0700a3
:102274004f05be004f04be000080fa0000000600b7
:102284000400fa00889fbe008a9fbe008c1f78005d
:1022940080057800010578000206780011e48000ca
:1022a40001e4880062c0b30040c821002d49070042
:1022b4000044eb0020e480008b0f50001b00320030
:1022c4000844e80001e48000e680400001e488005e
:1022d40062c0b30040c8210022490700f04f5400f7
:1022e400f4ff3a0011e4800001e4880062c0b30006
:1022f40040c821001b4907000044eb0030e4800083
:10230400e30f5000090032000844e80001e48000b3
:10231400e680400001e4880062c0b30040c82100a8
:1023240010490700f04f5400f4ff3a00084e7800bb
:102334000000eb0068a821000801780080407800c4
:10234400800478001200e000060032008140e800ba
:102354000900e8000281e800e40f5000f7ff3a00aa
:102364008184fb00014d780040c1b3000a4d070091
:10237400800078000980440008054000010d7800c1
:102384000100e0001d0032002be488001900200049
:1023940039e4880000e4800062c0b30041c8210031
:1023a4002e4907009a00780000c0eb008050980086
:1023b4001a0478006e805700e84c07001fb8970095
:1023c400afb89700008cbe001a0078001c46780055
:1023d4002c5098009a0078000000eb00e000980070
:1023e400a23aa800090078004f0678004f05be0005
:1023f4004f04be000080fa000000060001007800cf
:102404004f0678004f05be004f04be000080fa005e
:1024140000000600f9ff37000400fa00889fbe00a0
:102424008a9fbe008c1f7800000678000000eb0035
:1024340061aa210080447800000478001100e000c3
:10244400080032008944e8000800e8008180e800c0
:10245400e70f5000f7ff3a00e7cf54002f00320097
:102464000984fb0000c3b300cb4c07008800440080
:10247400e48540002aaa210080357d000000e000a8
:1024840026003200094e7800eb007d0000c0eb000e
:10249400c04898006b047d006e805700af4c070065
:1024a4001fb89700afb8970070049800010c98000b
:1024b400100c9800210c9800eb007d00310890006e
:1024c4000050a100b00898006b017d003208900014
:1024d40001ff2f00010060000010a00030099800e7
:1024e4000001eb008b00780033c0b30061007d0075
:1024f40002004000735098000201e800f90f5100f7
:10250400faff3a00100020004f0678004f05be0085
:102514004f04be000080fa00000006000000eb003b
:102524004f0678004f05be004f04be000080fa003d
:1025340000000600f9ff37003d5de20005003a00a7
:10254400d61bab0019003a000040eb000080fb00f2
:1025540000000600c0c9210031c1b30090cf1000b3
:10256400030036000040eb000080fb000000060082
:102574005039ab001800320040c9210041c0b300fb
:1025840090cf1000f7ff3e00d0c9210051c0b30026
:1025940090cf1000f3ff3e00a39aab00f1ff3a0086
:1025a40010c0b3000080fb0000000600c0c9210079
:1025b40031c1b30090cf1000e3ff3e005039ab00af
:1025c40009003a00a37aab0007003a0010c0b30038
:1025d4000080fb0000000600a37aab00e6ff3a008f
:1025e40010c0b300efff370040c9210041c0b30061
:1025f40090cf1000d4ff3e00d0c9210051c0b300d9
:1026040090cf1000d0ff3e00a39aab00efff320042
:102614000040eb00cdff3700889fbe0070e48000cf
:1026240050e488000004eb0051e4800022c1b300b0
:1026340000ca21004b480700af3cab000800320041
:10264400200120008a3cb4000804e800f90f54007b
:10265400f5ff3a00080078004f04be0000000600b1
:102664000880fb004f04be0000000600fcff37009a
:10267400d1082000e24f5000080032000900360063
:1026840051012000e34f50000400320011002000eb
:10269400e44f5000010032008000eb00010078009c
:1026a40000000600d14321000004e000fbff3200db
:1026b400e14f5000f8ff3a00d0352000000006003a
:1026c400f8ff3700889fbe000004be000204e0004b
:1026d4000a003200810f5000030039000000eb00b3
:1026e4004f04be00000006000240e900e0ff0700be
:1026f40000004400808f5400f8ff310010002000d7
:102704004f04be0000000600f7ff3700889fbe009c
:102714008a9fbe000005be0070e4800050e488007b
:102724008044eb0051e4800022c1b30000ca2100c0
:102734000c48070070e58000002cb2000124200042
:10274400810f500012003200200120008a3cb400a6
:102754008944e800f9cf5400f2ff3a0042c921004d
:102764001241780080df80008a007800d5ff0700de
:102774000004e00016003a0040df8000800d78007d
:10278400100020004f05be004f04be0000000600ec
:1027940048e58000880f550007003200945cec0087
:1027a400004178008a00780008007800c5ff07001f
:1027b4000004e000e4ff3200880d780010002000df
:1027c4004f05be004f04be0000000600f0ff3700b6
:1027d4000000eb004f05be004f04be0000000600e1
:1027e400ebff37000004e0001f003200d77bef004e
:1027f40010c2b300d8fbb70041c921009140780052
:102804004309dd0002007800d9fbb700c0c92100ec
:1028140033c1b30090cf110013003e0020c9210042
:1028240083c1b30090cf11000f003e0013d5800088
:1028340003b8a3000d003a00e4cf50000a003e00a4
:102844000274a00002007800d9fbb700d0c92100af
:1028540051c0b30090cf100003003e0003c8a30092
:1028640001003a00d95ba80000000600e4cf500044
:10287400f6ff36000000060071e5800001017800d3
:10288400020cb20000042000800f5100100032003e
:102894000200e00002003a0090c1b30093fcb700cc
:1028a400af3ca900ac3cef00ae3cef0050e480002c
:1028b40022c1b30001ca2100e8470700927ced0061
:1028c40060e4800002c1b30001c92100e34737007e
:1028d4009c7ced000103b200f08f50000f00320029
:1028e40010c0b300bfff0700af3ca900ac3cef0031
:1028f400ae3cef0050e4800022c1b30001ca2100c5
:10290400d6470700927ced0060e4800002c1b3006a
:1029140001c92100d1473700edff37009d7ced0050
:1029240010c0b300afff0700efff370000ca21005b
:1029340081952100070009003158780074df800078
:1029440054e58800b0fcef0081ca80000118a300a0
:102954001d003a00ae9ca900aebca800c0e48000f3
:1029640040e588000000e800c0e48800e20f400071
:1029740039003200c508dd000110b20070e58000a6
:102984000080a1000100700070e58800aedca800a2
:10299400aefca900af3ca80050e4800022c1b30003
:1029a40001ca2100ad4707009c7cec00927cec003e
:1029b40060e4800002c1b30001c92100a7470700f9
:1029c40010c0b30087ff3700ae9ca800aebca900be
:1029d400d0e4800040e588009d7cec00b2e48000f7
:1029e40002004000d0e488006611b90084df800052
:1029f40004014100820f5000deff3600a39aa800b4
:102a0400c508dd000110b20070e580000080a1005f
:102a14000100700070e58800aedca800aefca900df
:102a2400af3ca80050e4800022c1b30001ca2100d9
:102a34008a4707009c7cec00927cec0060e48000f8
:102a440002c1b30001c921008447070010c0b300cc
:102a540064ff3700dcff3700a37aa800c508dd0057
:102a64000110b20070e580000080a1000100700038
:102a740070e58800aedca800aefca900af3ca8005d
:102a840050e4800022c1b30001ca2100734707004b
:102a94009c7cec00927cec0060e4800002c1b300fa
:102aa40001c921006d47070010c0b3004dff370076
:102ab400c5ff3700889fbe008a9fbe000005be0088
:102ac40070e4800050e488000004eb0051e48000ce
:102ad40022c1b30000ca210022470700af3cab006b
:102ae40009003a00200120008a3cb4000804e800f0
:102af400f90f5400f5ff3a00080078004f05be00b6
:102b04004f04be000000060040e580008a0f50001c
:102b1400f4ff3a0050e580008b0f5000f1ff3a00bb
:102b24000880fb004f05be004f04be0000000600f5
:102b3400f5ff3700ec874700889fbe008a9fbe00e0
:102b44008c9fbe008e1f78008044780081457800f9
:102b54000000eb00a2ab2100804078000004780064
:102b64001200e000080032008140e8000800e8009c
:102b74000281e800e60f5000f7ff3a00e6cf50006c
:102b8400920032000184fb00c0c0b300024b070076
:102b94008000780008064400780446002aaa210030
:102ba40000347d000000e000880032000904e000e9
:102bb40024003a00c0ff2f005239b400c2ca80007a
:102bc400a2009800e8007d005219ed0090ca880028
:102bd40010407800f0409800e8007d005219ed00a4
:102be40090ca880010407800e040980052b9ed0087
:102bf40050d9bf006840400050f9b700e8007d009c
:102c0400a040980068007d0020409000e24a070040
:102c1400800478000000e00074003a0068007d0041
:102c2400df4a070009347d00400020004f07780088
:102c34004f06be004f05be004f04be00cf00b100da
:102c44000000060080df8000a000980068007d007e
:102c540001cb80003100980068017d00ced8bf0010
:102c6400cf58b50071c8b30001404000204198001e
:102c740068007d0020409000c74a07008004780067
:102c84000000e000e5ff320068007d0009087800dc
:102c94004658dd000034a000804c780051d9bf00b4
:102ca40000404000904498000296210012417800b0
:102cb400a244980061d9bf00b044980001bf21002c
:102cc40091407800c144980012bf2100124178005d
:102cd400d24498008b9521009b457800eb449800e2
:102ce4006ad9bf00f044980068814400ced8bf0080
:102cf400e1c7b300814f500008003e00038d21005e
:102d04000040e800cef8b7000080fb0060d97900ed
:102d1400ced8bf00814f5000f9ff3600cf58ed00e8
:102d2400cff8b700e14f400009003200820078007c
:102d3400038d210002c050000080fb00e0d8790020
:102d4400cf58ed00cff8b700e14f4000f9ff3a004b
:102d5400f80446002caa210069047d0076805700ff
:102d64007e4a07005fb09700efb0970040049800d8
:102d74005104980069007d0030009000788157006c
:102d8400f78057003efd07000004e00038003a00d9
:102d940069007d0010007800814a070069007d0009
:102da4007f4a07000000eb0080347d0040002000d3
:102db4004f0778004f06be004f05be004f04be000b
:102dc400cf00b100000006009eff37004000200045
:102dd4004f0778004f06be004f05be004f04be00eb
:102de400cf00b1000000060096ff370068007d00a8
:102df4000908780008fc0700f043b200c658dd005b
:102e040080cc700004fc07009044980002fc07008a
:102e1400a044980000fc0700b0449800fefb0700a3
:102e2400c0449800fcfb0700d0449800fafb07005c
:102e34008045e900eb449800f7fb0700f044980054
:102e4400688444005059e200c1ff3200f2fb0700dd
:102e5400005c78005059e200bdff3200eefb070031
:102e6400005c78005059e200f8ff3a00b8ff3700e0
:102e7400cc18a900f0c7b300cef8b7000047eb00a8
:102e84000e007800cff8b7001fe897000080fb0021
:102e9400000040006da8210060847e00e0c0b30003
:102ea4003d4a070000057800600498000000e00037
:102eb4001d003a001000200030e4880000e4800087
:102ec40062c0b30041c82100644607001fe89700b0
:102ed4000080fb000000400060807e00304a070054
:102ee4001fe897000080fb00000040000ab07e004d
:102ef40069007e0010007800294a070069007e00fe
:102f0400274a07008a347e00400020004f077800db
:102f14004f06be004f05be004f04be00cf00b100f7
:102f24000000060047ff37001fe897000080fb0001
:102f34000000400060807e0091ab21009140780049
:102f4400614898001fe897000080fb0000004000e3
:102f54000d0040009000780082df8000c2009800dd
:102f6400100078007e4898001fe897000080fb005e
:102f7400000040000d00400090017800930890008c
:102f8400f28f2f008280600001a0a00091099800b8
:102f9400900078001108900000b0a10090089800fb
:102fa40010c0b300004d780000c8b300104598006d
:102fb400b9dabf00204598000040e800b9fab7002c
:102fc40069007e00604090003045980069007e00f2
:102fd40070409000404598005e45980087fb0700cc
:102fe400604598007b459800f1dbbf00004d9800d8
:102ff40001bf210091407800114d980000c0eb0002
:10300400204d9800c0cfb300304d98004e4d98002d
:1030140090c0b300504d980072805700cf4907000c
:103024001fe897000080fb000000400060827e00e3
:103034007fb097008fb89700d21f2c00f3ff2f00aa
:10304400000041008180490020029800310298006c
:10305400100020004f0778004f06be004f05be0049
:103064004f04be00cf00b10000000600f5fe37009b
:103074000200fa00889fbe008a9fbe008045780047
:103084000104780002457800830478000100780088
:10309400d3fb0700f94f50000700320071e58000b0
:1030a400010cb20000042000808f50001e0032008a
:1030b4000100e0001c00320082df800004c8b3007d
:1030c400880178008040eb00014078007ffb070016
:1030d4000004e00009003200e24f550022003200f3
:1030e4006a8157000800be0016fb07000004e000d8
:1030f40014003a00e14f5500230032000800be00de
:1031040082fd07000004e00011003a0010cdb30076
:1031140050f9b700200020004f05be004f04be0048
:103124000080fa0000000600880c78000000eb0024
:103134004f05be004f04be000080fa0000000600e8
:10314400f9ff37006ff097000004e000ebff3a004e
:103154000000eb004f05be004f04be000080fa00e3
:1031640000000600f0ff370011c0b3000b407800e8
:1031740070fe07004f05be004f04be000080fa0039
:1031840000000600e8ff37008a4078000b40780012
:1031940068fe07004f05be004f04be000080fa0021
:1031a40000000600e0ff3700881f78003000200090
:1031b40030e4880084bcef0010e4800000e4880060
:1031c4000044eb0000e4800062c0b30041c8210069
:1031d400a24507000844e80060002000803cb400d9
:1031e400f04f5400f7ff3a004f0478000000060047
:1031f400889fbe008a9fbe0000457800300880008a
:1032040004fbb700cc78ef0011d58000a23aef00a0
:10321400a43aef00000022008080600010d58000f6
:1032240000d0a1000100700010d5880060b021001a
:1032340021b521000048eb000080e800808f500099
:10324400fcff3a000a04e00004003a0000d78000c2
:103254000000e0000100320051490700e03aef00ad
:103264008004eb0068aa2100880578000a04e000c5
:1032740007003a00180078000000e0000400320063
:1032840010007800464907001800780044490700f8
:10329400801deb008904e8000884e800e78f5400ef
:1032a400f2ff3a008004eb00a8ab21008805780007
:1032b4000a04e00007003a00180078000000e0006b
:1032c4000400320010007800354907001800780027
:1032d40033490700801deb008904e8000884e800f6
:1032e400e68f5400f2ff3a000004eb0069a82100c5
:1032f400890578000a04e00004003a001900780007
:103304000000e0000100320025490700801deb00a9
:103314000804e8008984e800e40f5400f5ff3a004b
:10332400a1ff07004f05be004f04be0000000600c9
:1033340010c0b300aeff070061e4800002c1b30017
:1033440000c921000745070081e48000c0532a001a
:10335400808f50000e0032005cfa070000a92100a3
:1033640041aa21000048eb0064004000810f500096
:10337400fcff3a0080ac210001ae21000088eb0084
:1033840064004000808f5000fcff3a0000000600fb
:1033940030c9210091c1b30090cf1000efff32007b
:1033a400ccb8a80000a9210041aa2100edff3700f4
:1033b4000800fa00881f7800ea80570022e52800f8
:1033c40007000900b25878008100b1000004eb0046
:1033d400820020009cf507000000e00001003a0094
:1033e40018002000080078004f0478000080fa00dc
:1033f40000000600889fbe008a1f78000005780040
:1034040070e4800050e488000004eb0051e4800084
:1034140022c1b30000ca2100d2440700af3cab0074
:1034240009003a00200120008a3cb4000804e800a6
:10343400f90f5400f5ff3a00080078004f057800b2
:103444004f04be00000006008200200001ca2100d3
:103454000a0078007cf507000000e000f1ff3a0064
:103464000880fb004f0578004f04be0000000600f2
:10347400f5ff37004f05b000889fbe008a9fbe004d
:103484008c9fbe008e1f78000047eb00000478007c
:1034940000fc2f0000804700b04807000fa69700eb
:1034a4009fa69700a25aab000d003200a4d580005d
:1034b400b5d580000402560085825e0082ab2100ef
:1034c400124178000281fb000300200040422f00db
:1034d4000010b800800f5200818f5a0035003e0062
:1034e4000800e00023003a00ccd8bf000008a30085
:1034f40027003a0012d580000208a30093003a0086
:103504000218a300b9003a000200e0002e013500c1
:103514000278a30053073200a2faa90052dbbf00cd
:1035240050f9b70053dbbf0051f9b700d1da80007e
:10353400c1ca880012db800023db800002cb880034
:1035440013cb880034db800045db800024cb88006b
:1035540035cb8800c3042000030078004f077800af
:103564004f06be004f05be004f04be004f05b1001c
:10357400000006006140b80071005000e08058006f
:1035840014062000840f5000e08f58000c00360011
:103594008001eb00030078004f0778004f06be005f
:1035a4004f05be004f04be004f05b10000000600e9
:1035b400f0ff3700d61ba900a25aa900c8ff3700a4
:1035c40000600100ee02370064033700f0ff3700ab
:1035d400efff3700eeff3700b2033700ecff370090
:1035e400e7033700eaff3700e9ff3700320337000b
:1035f400d5033700e6ff3700e5ff3700e4ff370067
:10360400e3ff3700e2ff37006c023700e0ff3700ca
:10361400dfff3700bd043700ddff3700dcff370074
:10362400dbff37003704370073043700d8ff370057
:10363400d7ff3700d6ff37003c033700d4ff3700ed
:10364400d3ff3700d2ff370012043700b902370026
:10365400cfff3700ceff3700cdff3700ccff370058
:10366400cbff3700caff3700c9ff3700c8ff370058
:10367400c7ff3700c6ff3700c5ff3700c4ff370058
:10368400c3ff3700680237005d0237008f0437003c
:103694000f0437006c043700f9023700a704370021
:1036a4009f03370048043700b9ff3700b8ff3700dd
:1036b400b7ff3700b6ff3700b5ff3700b4ff370058
:1036c400b3ff3700b2ff3700b1ff3700b0ff370058
:1036d400afff3700aeff3700adff3700acff370058
:1036e400abff3700aaff3700a9ff3700a8ff370058
:1036f400a7ff3700a6ff3700a5ff3700a4ff370058
:10370400a3ff3700a2ff3700a1ff3700a0ff370057
:103714009fff37009eff37009dff37009cff370057
:103724009bff37009aff370099ff370098ff370057
:1037340097ff370096ff370095ff370094ff370057
:1037440093ff370092ff37000f02370088b79f00be
:103754006baa21001b0478000800e000110032006d
:1037640018089000a80890000001560081815e00ae
:10377400770133000200be00e6f3070002a02b002d
:10378400b3752400e1f307000000e000e800340012
:1037940018007800024807001b0078000048070062
:1037a400800deb000fb297000402e80084b79f007d
:1037b4008b85e800e70f5200e6ff3a008040eb00fb
:1037c40060aa21001000e00005003a008140e800f2
:1037d4000080e800e7cf5000faff3a00a21aa900df
:1037e40012d580000218a30047ff32000002eb004c
:1037f40069a8210009017800090478009200780082
:103804000100e0000e003200e10190000300e0003e
:103814000b0032001108900000b8a3007d003a00ac
:1038240021009000b10090000000560081805e00ed
:1038340025e02300850f5000e08f58007d003e00f6
:103844000402e8000884e8000281e800e40f520062
:10385400eaff3a0068a82100e9a8210018027800cc
:103864000400e0000700320034015600a4815e0029
:103874008096280091002000800f5100818f59000c
:103884003c003e000884e800888f5400f3ff3a00af
:103894008041eb0083679f00034078002aaa21003f
:1038a4000007eb00098d21000080fb0000004000b0
:1038b4007800400024aa210060007a000000e000a3
:1038c4000d0032003000900005fa2f008f82420074
:1038d4000581e800e48042001af907000004e000d2
:1038e400a90532002f6197000204e000cd053200e3
:1038f400e24f5100320132000f6297000440e800a9
:1039040080679f00e54f5000e7ff36008042eb00e0
:1039140085679f0010e4800000e4880001e48000d3
:1039240062c0b30040c821008e43070038e4800021
:10393400e20f5400460532008f6097008140e80092
:1039440081679f0060002000803cb400efcf5000ee
:10395400f2ff36008041eb0083679f00ba1ae20051
:103964007f01320012d580000200e000e8fe3d0035
:10397400150037002450900062c0b3000440bc001e
:1039840011e480008100410001e4880062c0b300ba
:1039940040c821007343070030e48000e10f500069
:1039a400f500320018007800600090000000e0008c
:1039b400010032007a4707001800780078470700b2
:1039c400000ceb00afff3700c0d78000d1d78000d8
:1039d4000000560081805e0005802700850f50009e
:1039e400e08f5800cafe3600a0ccb30050f9b700ef
:1039f40056b9ef00a00320004f0778004f06be0021
:103a04004f05be004f04be004f05b1000000060084
:103a1400d8fe370021009000b1009000000056004d
:103a240081805e0015832c00850f5000e08f5800c4
:103a340083ff36000040eb0080679f00058d210066
:103a4400cfd8bf008080fb003341780082f07a0039
:103a54000040e800cff8b7000f6297000440e80088
:103a640080679f00e54f5000f5ff36000040eb00f3
:103a740080679f00eb8c21009b4578000b80fb0046
:103a840033f07a008b45e9000b007800cef8b700dc
:103a94000f6197000240e80080679f00e74f5000e5
:103aa400f6ff3600980078001108900000b0a100dd
:103ab4009008980098017800130990004810de00df
:103ac40067404000670060004800dd00f18f2f0070
:103ad400010161000001710092099800180078004a
:103ae4002c0098003d00980018017800920890007e
:103af4000070200080846000a303320001fa2f00cc
:103b04008f8040000080eb0052f907000301200081
:103b1400030078004f0778004f06be004f05be0033
:103b24004f04be004f05b1000000060091fe3700af
:103b3400b80c90000902b2001aff3a000e10a1005e
:103b4400484d9000f94f5500d2043200e14f450032
:103b540090003200894178008a84fb000a40780092
:103b640022c1b3000440bc0071e480008100410024
:103b740051e4880022c1b30000ca2100f3b79f00ba
:103b8400f842070072e58000820078000120b2004c
:103b9400ffb1970094043a00768044001b00400073
:103ba400114098000a45e800e1c061004208dd00c8
:103bb4000e24a100004777000e28a30002003a005b
:103bc400f84f5500e4ff36001b0478004a4c980077
:103bd4004208dd000e24a100004777000e28a30050
:103be400f0fe32000e18a300920a3a008fb097003c
:103bf4000184400069c2b300e18c21009140780047
:103c04000181fb00058d21006400440024aa2100e9
:103c1400e0017a003340900000f17a008145e90028
:103c24000b007800cef8b7000b80fb0043419000f6
:103c340002f07a0081c5e9000b007800cef8b700e5
:103c44000b80fb007342900004f07a00e3c550003f
:103c54000b007800cef8b7000b80fb0063419000a6
:103c640002f07a00e4c550000b007800cef8b700eb
:103c74000b80fb00134a900004f07a00e5c5500065
:103c84000b007800cef8b7000b80fb0003499000ce
:103c940002f07a00e6c550000b007800cef8b700b9
:103ca4000b80fb00234a900004f07a00e7c5500023
:103cb4000b007800cef8b7000b80fb00334990006e
:103cc40002f07a00e8c550000b007800cef8b70087
:103cd4000042eb0084679f001301780023409000aa
:103ce4000004e000cf033a002f90970001fa2f0060
:103cf4008f804000d7f8070060c2b30080cf540023
:103d0400ab1032008980fb008180400050b021005c
:103d14000f619700827078006400440023aa210098
:103d24006081790060b02100324190008270780097
:103d3400000120004f0778004f06be004f05be006b
:103d44004f04be004f05b1000000060009fe370015
:103d540061006100010020008301d1000281d300d1
:103d640002007000838070006af207000001be0048
:103d740009f2070081fe37002000200030e48800ab
:103d840000e4800062c0b30041c82100b3420700d0
:103d940004ff370078009000880890000000560067
:103da40081805e0082412600820f5000e08f58001f
:103db400fc043e00894078004a4c980084ff370098
:103dc4000f6197008281fb0003804100780040006e
:103dd40060007d00a000900080df8000808f500094
:103de4006b043200e88c21001844780003f80700c3
:103df4008880fb0080f07c008845e9008b80fb0014
:103e0400a0c0b30080f07c0088c5e9000b80fb00f3
:103e140011bf210011f07c00e34554000b80fb002e
:103e240001bf210011f07c00e44554000b00780030
:103e3400cef8b7000b81fb0001fa2f008f80400001
:103e44003180fb00000040007800400060027d00eb
:103e5400d442900005f17c00e54554000b00780045
:103e6400cef8b7000b80fb004441900002f07c00c8
:103e7400e64554000b80fb000ef07c00e74554003f
:103e84000b81fb0090c0b30000f17c00e8455400b6
:103e94000b007800cef8b700f28c210012417800b4
:103ea4008281fb0030c0b30080f17c000240e80056
:103eb4000080fb000ef07c0002c0e800cff8b700e1
:103ec4000080fb00e441900003f07c00634041006b
:103ed400cff8b7000080fb00f442900005f07c00ae
:103ee4006441410002007800cff8b700240090003c
:103ef40058f807008f6097000180fb000000400025
:103f04007800400060007d0010007800244607001f
:103f14000f6197000280fb00000040007800400021
:103f240060007d000008eb001d4607008f619700cc
:103f34000380fb0000004000780040000e307d004c
:103f4400000120004f0778004f06be004f05be0059
:103f54004f04be004f05b1000000060085fd370088
:103f640003407800c1ab21000040e80080679f0057
:103f7400e64f5000ca0432003100e000faff32007c
:103f840012d5800078fe3700ccd8bf000038a300db
:103f9400a4083a0020ccb30050f9b7003007200041
:103fa4004f0778004f06be004f05be004f04be0009
:103fb4004f05b100000006006efd3700809521001a
:103fc4000cfd070080679f00f94f500070fd320020
:103fd40041e5800001cb880010c0b30050f9b70060
:103fe400300220004f0778004f06be004f05be0088
:103ff4004f04be004f05b100000006005dfd370010
:1040040020ccb30050f9b700700320004f077800ac
:104014004f06be004f05be004f04be004f05b10061
:104024000000060053fd370011d580000000220077
:104034000084600056fd3a0093dcbf00f94f500045
:104044001500320022c1b3000440bc0071e48000ba
:104054008100410051e4880022c1b30000ca21005c
:10406400c0410700aedca800aefca80050e480000c
:1040740022c1b30001ca2100f841070090c1b30076
:1040840093fcb70060e4800002c1b30001c92100c1
:10409400f2410700ccb8a90088679f000840780067
:1040a40022c1b3000440bc0071e4800081004100df
:1040b40051e4880022c1b30000ca2100a9410700cd
:1040c400af3cab002a023a008f6197000340e8003e
:1040d40080679f00f84f5000f1ff3600cc98a8008d
:1040e40000d780000000e00002003200ac45070069
:1040f400e03aef00c4ca8000d5ca800024d7880003
:1041040035d7880057d9bf00e8fab70010c0b3000c
:1041140056f9b700800220004f0778004f06be0012
:104124004f05be004f04be004f05b100000006005d
:1041340010fd3700ccd8bf00e840600003083a0007
:1041440020ccb30050f9b700cc18a900fbc7b300ca
:104154000b007800cef8b70001007800cff8b70064
:10416400400320004f0778004f06be004f05be00f5
:104174004f04be004f05b10000000600fdfc3700ef
:104184008042eb0085679f000540780023aa210048
:104194000082eb000080fb00c200dd006202200010
:1041a4000101410025aa210062807a00e10f40004c
:1041b4000400320001804200506090006a59e3001c
:1041c4002b0032008f6097000140e80080679f0059
:1041d400e54f5000efff36000041eb0082679f007f
:1041e40005dbbf006a59e300080532001200200015
:1041f40073b021006402200082679f00840f510085
:10420400e3fc320082007800134078000201e800e9
:104214008381e8006a59e300f7ff3a000180400017
:1042240062b02100604079008001eb000004e000ee
:10423400020032006af9b700430320000f629700be
:104244000480fb00000040008040eb000170790016
:10425400030078004f0778004f06be004f05be00ec
:104264004f04be004f05b10000000600c1fc37003a
:104274005059e2002e073a0004b17900d1ff37000b
:10428400809521005bfc0700f94f5000220a3200a0
:1042940050ccb30050f9b700b00320004f077800aa
:1042a4004f06be004f05be004f04be004f05b100cf
:1042b40000000600affc3700a2baa900a2daa800e9
:1042c40040df800046f7070080679f00f94f5000e9
:1042d4000100320068f907000296210023e5280056
:1042e4000700090033597800e0ae210024c0b30070
:1042f400904f12008808320010d580004d00de0077
:104304000000a2006140600050f9b700d004200012
:104314004f0778004f06be004f05be004f04be0095
:104324004f05b1000000060092fc37009303200003
:104334005059e20088fc3a00a31aa8000300780050
:104344004f0778004f06be004f05be004f04be0065
:104354004f05b1000000060086fc3700aef60700ea
:10436400c0ef9f00acf60700a0ef9f00aaf607007d
:104374000080fb0008f02f000806660000067600a7
:10438400a5f6070080ef9f004800dd00fc0fb20097
:1043940000067600a0f607000080fb000805650013
:1043a400000575009cf60700f0e79f008086fb007f
:1043b4004868dd00fa0fb2000005750096f60700a4
:1043c400b0e79f0094f6070000477800afea970033
:1043d4000538a3000c0032000040eb0080679f000a
:1043e40000447800e9a721008bf607008880fb00d1
:1043f40080f07c008f6097000144e80088679f008c
:10440400e74f5400f8ff36002fe997000248a30055
:104414000c0032008041eb0083679f000344780066
:1044240069a721007cf607008880fb0080f07c00ef
:104434000f6297000444e80088679f00e74f540028
:10444400f8ff360000cb8000e10f40005801320035
:10445400e50f460056013e004fe9970063446100b2
:10446400e14f5400ef06320080df8000800f5600d9
:10447400c2073a00caca8800acca880020c0b30088
:1044840056f9b700500320004f0778004f06be00ce
:104494004f05be004f04be004f05b10000000600ea
:1044a40034fc37008041eb0083679f0003407800b1
:1044b40003952100004178000080fb00f0004000db
:1044c40068004000e0f079000241e8000240780012
:1044d400e74f5100f8ff360080c0b30080679f00ab
:1044e40080952100c3fb070080679f00f94f5000af
:1044f4001209320044e58000b4ca88005079ef0004
:10450400700120004f0778004f06be004f05be0023
:104514004f04be004f05b1000000060015fc370033
:1045240010c0b30050f9b700400220004f077800d4
:104534004f06be004f05be004f04be004f05b1003c
:10454400000006000bfc37006095210025c0b30075
:1045540090cf1200cc013200b12807008001eb009b
:10456400030078004f0778004f06be004f05be00d9
:104574004f04be004f05b10000000600fdfb3700ec
:10458400cc98a9005059e200ca033a00b3ca80008b
:1045940083df8800cc78a800ab28070093dcbf0039
:1045a40022c1b3000440bc0071e4800081004100da
:1045b40051e4880022c1b30000ca21006940070009
:1045c400aedca900aefca90004ca2100f5bd21009f
:1045d40007000900355a780050e4800022c1b30076
:1045e40001ca21009d40070040e5800040df8800ab
:1045f400ccb8a80060e580004800de006f40600091
:104604000040e80094fcb70019f807008000780027
:10461400b0e48800f0e48000e10160000c003a009e
:104624006608b90082df8000000041000000e80055
:10463400c0e488000201e800d2e488008001fd00a3
:104644009cfcb7009dfcb7008001fd009e1ca800e7
:1046540010c0b30063f8070060e4800002c1b30037
:1046640001c921007d400700a31aa80071df800062
:1046740041cb8800a00320004f0778004f06be00fe
:104684004f05be004f04be004f05b10000000600f8
:10469400b8fb370050d9bf00e3032000aefb320063
:1046a400f54f4000db03320060ccb30050f9b70093
:1046b400030078004f0778004f06be004f05be0088
:1046c4004f04be004f05b10000000600a9fb3700ef
:1046d400ccd8bf000038a30055033a0020ccb30067
:1046e40050f9b700900320004f0778004f06be0032
:1046f4004f05be004f04be004f05b1000000060088
:104704009cfb37008040eb0030c3b300ae3b070096
:104714008040eb0040c3b300ab3b0700f1c0b300e3
:10472400f0222000d83b07006095210013c0b3009d
:1047340090cf1100aa033200cc98a9005059e2008e
:104744002307320093dcbf0022c1b3000440bc0045
:1047540071e480008100410051e4880022c1b3006b
:1047640000ca2100ff3f0700aedca800aefca80091
:1047740050e4800022c1b30001ca21003740070081
:1047840090c1b30093fcb70060e4800002c1b300a1
:1047940001c9210031400700ccb8a90056b9ef0087
:1047a400a0ccb30050f9b700a00320004f07780055
:1047b4004f06be004f05be004f04be004f05b100ba
:1047c400000006006bfb37005059e20084023200ff
:1047d40010ccb30050f9b700e00320004f07780075
:1047e4004f06be004f05be004f04be004f05b1008a
:1047f400000006005ffb370000962100fdfa070069
:1048040080679f005059e20061fb3a00f94f500065
:104814005ffb320040e58000c0ca8800e2dabf00d6
:1048240050f9b7005179ef00c00420004f07780019
:104834004f06be004f05be004f04be004f05b10039
:10484400000006004bfb3700a3baab0050fb3a0054
:10485400ccd8bf000038a3009f023200009521008d
:1048640022c0b300904f11009b023a00f3ae210026
:10487400a496210007000900b4597800a3daa8001f
:1048840010c0b30056f9b700d0c0b30057f9b70051
:10489400a0aa210070df8800c5af2100a0962100e6
:1048a40007000900b05a7800ef27070080022000b3
:1048b4004f0778004f06be004f05be004f04be00f0
:1048c4004f05b100000006002afb3700a25aa900d8
:1048d4005059e20051023a00d61ba90051d9bf0039
:1048e400c0f707005079ef0083032000030078002d
:1048f4004f0778004f06be004f05be004f04be00b0
:104904004f05b100000006001afb370011d58000e6
:104914006880600063053a0035fa0700d003200080
:104924004f0778004f06be004f05be004f04be007f
:104934004f05b100000006000efb3700ccd8bf00c5
:104944000038a30047063a0020ccb30050f9b70062
:10495400c00320004f0778004f06be004f05be007d
:104964004f04be004f05b1000000060001fb3700f4
:10497400af7ca90050e4800022c1b30001ca210029
:10498400b63f0700d0fd3700620090008443070063
:10499400180078006900980001fa2f008f80400009
:1049a4000080eb00abf507000301200058fc370042
:1049b4008042eb0085679f000541780063aa2100cf
:1049c400930078000100e000030032003100900001
:1049d400800f5500660032000241e80082679f00a4
:1049e4008381e800e74f5100f5ff3a00cfe89700d4
:1049f40063c06000e14f500017043200bfe297002b
:104a0400e1cf52004e00360031fa2f0001804700fa
:104a140081f607000004e000070332003f609700be
:104a24008080fb0081804000e480400023aa2100b4
:104a340061817900b20890000140a1003109980019
:104a4400fff407003f6097000080fb000000400077
:104a54006400400024aa210060007a00059521002a
:104a640095427800254098003f6097000080fb0045
:104a7400000040006400400060007a00cfe8970026
:104a8400314898003f6097000080fb000000400020
:104a94006400400060007a002fe9970022489800e3
:104aa4003f6097000080fb0000004000640040006d
:104ab400e0007a00cc009800e0007a00ba00980088
:104ac400e0007a00bfe197000340e900c04098008d
:104ad4003f6097000080fb0000004000640040003d
:104ae40060007a003e4098003f6097000080fb0021
:104af400000040006400400060047a0050d9bf0008
:104b04002543070080047800000c78000000e000d2
:104b1400740732000040eb0080679f009bca80004e
:104b24000c9521001c4678000c04e0001e003a009d
:104b34009bca88000c00780050f9b700a21aa8009c
:104b440080df80008a0f5000c30a3200caca88007e
:104b5400500320004f0778004f06be004f05be00eb
:104b64004f04be004f05b1000000060081fa370073
:104b740031409000804f570097ff3a000240780080
:104b8400aff4070026270700000020004f07780035
:104b94004f06be004f05be004f04be004f05b100d6
:104ba4000000060073fa37008f6497003f60970097
:104bb4000080fb00000040006400400021aa2100a6
:104bc400608078000984fb001004440092f407001c
:104bd400004c78008944e80089679f005059e2003e
:104be400d3ff32008f6497003f6097000080fb0082
:104bf400000040006400400021aa21006080780089
:104c04000984fb001004440083f40700004c78007e
:104c14008944e80089679f005059e200e2ff3a00a6
:104c2400c3ff3700cfd8bf008080fb00324278003a
:104c340084f07a000040e800cff8b7000f609700d6
:104c44008040e80081679f0023409000814f50001e
:104c540025fc3600cfd8bf008080fb0032427800ac
:104c640084f07a000040e800cff8b7000f609700a6
:104c74008040e80081679f0023409000814f5000ee
:104c8400e8ff3e0018fc370090ca80001004e000e2
:104c940031fe3a00a1ca8000c0ca800085f707002f
:104ca400f94f50003700320044cb800004e8a300e1
:104cb400f4043200ae9ca900aebca900af1ca8004d
:104cc40093ca8000a34090008107b200c508dd00ac
:104cd40060e58000f20f2f00020060000100700008
:104ce40060e5880093409000cc08dd00f2ff2000ce
:104cf400020060000100700060e58800134090002d
:104d0400000fb2004400de0071e5800002ff2f00b6
:104d140082806000808070006bd9bf00acfcb7005b
:104d24004f20de004a00dd0001a0a1008080700059
:104d340071e58800234090004200de0061006000bd
:104d44004b00dd0001b0a1008080700071e5880097
:104d5400a1ca800051e58800c2ca800042e58800eb
:104d640057d9bf00b0fcb70050e4800022c1b300a3
:104d740001ca2100b93e0700a92607008001eb0003
:104d8400f7fd370024f60700f94f5000f2fd32001a
:104d9400af3ca800aedca800aefca8000040eb00cd
:104da40080679f000eca2100804078000080fb00cd
:104db4000e0040000048eb008140e800014078000c
:104dc400e7cf5000f9ff360080c0b30080679f0032
:104dd400927cec0060e4800002c1b30001c92100b0
:104de4009e3e0700b0ff37001b0478004800900087
:104df400e40f400012003200e30f40000e003200c6
:104e040041e5800038009000808f50000c00320093
:104e14000288a30063fb3a00a1979f00f680440038
:104e240088804000114090000004a1009040980048
:104e340013c0b3005bfb37000288a300f0ff3a0005
:104e4400890044000040eb00f050980055fb370007
:104e54003000200030e4880084bcef0000e48000cf
:104e640062c0b30041c821007c3e070008007800fe
:104e740050f9b700300720004f0778004f06be00f6
:104e84004f05be004f04be004f05b10000000600f0
:104e9400b8f937000e00a0000900780050f9b700f7
:104ea40009017800f70044009141780061c0610075
:104eb40007003a00024078000201e8008100e8009f
:104ec400f90f5100f8ff3a00f84f50002c0032005f
:104ed40000cfb30050f9b700380890006f006000ad
:104ee4002700320018089000a8089000000056001f
:104ef40081805e0034422f00840f5000e08f580000
:104f040016013e000e00a1008041eb00e1c06100eb
:104f14004208dd000e24a100004777000e08a3001c
:104f24002bfb32008fb197000384410064014400dd
:104f340024aa2100e2007a00314090006af9b70007
:104f4400310890000050a000b008980062007a0078
:104f540030089000430320000048a3008cf932007d
:104f6400030078004f0778004f06be004f05be00cf
:104f74004f04be004f05b100000006007df9370064
:104f84008041eb00e1ff37000f6297008481fb0052
:104f9400038041007800400025aa2100e0807a00c7
:104fa40011007800704090006af9b7005079ef0062
:104fb40011007800fa4107008f6097000180fb0020
:104fc400000040007800400022aa2100600079001f
:104fd400f34107008f6197000380fb00000040004d
:104fe4007800400024aa21000e307a00cc18a900d1
:104ff400fbc7b3000b007800cef8b7000e007800b2
:10500400cff8b700400320004f0778004f06be00da
:105014004f05be004f04be004f05b100000006005e
:1050240054f937000f6097008081fb000380410032
:105034007800400021aa210060827800a40090003a
:1050440080df8000808f50000405320082447800a5
:10505400140178009e679f0003804100780040009f
:1050640023aa2100e0807900214090000004e000a0
:105074000e003200058d210081017800cfd8bf00d9
:105084008080fb003242780084f07a000040e8001f
:10509400cff8b7001f6097000040e80090679f00ba
:1050a400a340900080cf5000f4ff3e002f90970063
:1050b40015fa2f0085804700e6f307000f6097007c
:1050c4008081fb0003804100f801400028aa2100f0
:1050d40063017c00a200900080df8000808f50007c
:1050e4001700320063007c0010007800ac41070018
:1050f4008f6297000580fb000000400078004000ac
:1051040060007c00a64107008f6097000180fb00cf
:1051140000004000780040000e307c0003012000b5
:10512400030078004f0778004f06be004f05be000d
:105134004f04be004f05b100000006000df9370012
:105144000980fb000000400051b021001f6297005d
:1051540004f078001201780061b0210072419000df
:1051640002f0780063007c00100078008c41070096
:105174008f6297000580fb0000004000780040002b
:1051840060007c00864107008f6097000180fb006f
:1051940000004000780040000e307c000301200035
:1051a400dfff37000080eb00a0979f000e10a000e7
:1051b40040fc2f0000804700684107002fa29700a1
:1051c400bfa29700140c9800250c9800094578009c
:1051d4001b04780011c0b3004a4c98007cfa3700d5
:1051e4005179ef0072df800042cb880020c0b30009
:1051f40057f9b70043df800003cb88001003200079
:105204004f0778004f06be004f05be004f04be0096
:105214004f05b10000000600d6f83700d61ba800e1
:1052240050d9bf00e14f4000acfd3200b8fab700de
:1052340080fd2f0000804700484107004fa99700d8
:10524400dfa99700a2d58800b3d58800a25aa80088
:1052540051d9bf0063f507005079ef0083032000a4
:10526400a2fd37000238a300c9f832000268a30087
:1052740012053200a2daa90010c0b30050f9b70039
:10528400400220004f0778004f06be004f05be00c5
:105294004f04be004f05b10000000600b5f837000a
:1052a4000042eb0084679f00861ae200adf93a00e1
:1052b4000440780081a821000040e80080679f0036
:1052c400e44f5000460432003100e000faff32009f
:1052d40012d58000a4f93700cc98a8005059e200f8
:1052e4001a063200f5ae2100a0962100070009003d
:1052f400b05a7800ccd8bf000058a3002b0032006d
:10530400a3daab0029003200a3daa90010c0b3006d
:1053140056f9b70080c0b30057f9b70042cb8000fc
:1053240072df8800c3af2100a496210007000900a2
:10533400b45978004c25070083022000030078004c
:105344004f0778004f06be004f05be004f04be0055
:105354004f05b1000000060086f837000e00a100da
:105364000080eb00a0979f0038089000ef404000b9
:10537400ef80600002ff2f00020060000100700057
:10538400300c98001b04780080fc2f00008047003c
:10539400f24007004fa09700dfa09700100c980080
:1053a400210c980013c0b300d8fe3700ccd8bf003e
:1053b4000058a300040032000095210011c0b3007e
:1053c40090cf10000d00320010c0b30056f9b700a2
:1053d40080c0b30057f9b70042cb800072df880069
:1053e400c3af2100a496210007000900b459780036
:1053f4001d25070083022000d0ff370030c0b30012
:1054040056f9b70080c0b30057f9b70042cb80000b
:1054140072df8800c3af2100a496210007000900b1
:10542400b45978001025070083022000c3ff370019
:1054340056d9bf0080679f0093dcbf0022c1b30030
:105444000440bc0071e480008100410051e4880004
:1054540022c1b30000ca2100c23c0700a31aa9005c
:1054640053e58000a3ca8800b0dcbf0056f9b7003a
:10547400f0c0b3005cf9b7005df9b7005079ef00f4
:10548400d30220008f6097000104e00032f832005c
:105494005039a800030078004f0778004f06be007b
:1054a4004f05be004f04be004f05b10000000600ca
:1054b40030f83700cc78a900eebbef00ea240700ef
:1054c400ccb8a90093dcbf0022c1b3000440bc00e7
:1054d40071e480008100410051e4880022c1b300de
:1054e40000ca21009f3c0700af7ca90090c1b30013
:1054f40093fcb70050e4800022c1b30001ca21002c
:10550400d63c070090c1b30093fcb7008041eb0088
:1055140083679f0080c4eb000340780008e020000c
:1055240022c1b3000440bc0071e48000810041004a
:1055340051e4880022c1b30000ca2100893c07005d
:1055440070e5800008006000880f500014003200ed
:105554000f6297000440e80080679f00f84f5000f6
:10556400efff360093dcbf00f94f50003b003a00d8
:10557400cc98a90056b9ef0030ccb30050f9b7006d
:10558400a00320004f0778004f06be004f05be0061
:105594004f04be004f05b10000000600f5f73700c8
:1055a40051e5800040cb8000808f5000e8ff3a0036
:1055b400f0c2b300ac5ce300e5ff360060e58000b8
:1055c4004800de006f406000894f5000e0ff31006a
:1055d400804478000f60970093fcb700dcff37002d
:1055e4005059e20042003200cc98a9006003200028
:1055f4004f0778004f06be004f05be004f04be00a3
:105604004f05b10000000600daf737008000eb0018
:1056140002fb37005079ef00e00320004f077800c9
:105624004f06be004f05be004f04be004f05b1003b
:1056340000000600cff7370079240700000020009f
:105644004f0778004f06be004f05be004f04be0052
:105654004f05b10000000600c6f7370022c1b300b1
:105664000440bc0071e480008100410051e48800e2
:1056740022c1b30000ca21003a3c070041cb80009c
:1056840071df8800c2af2100a39621000700090042
:10569400335978007424070081e380008180e80096
:1056a40012c0b30000fa2f000f0040002d3c070089
:1056b400b0dcbf0056f9b70020c0b30057f9b700fb
:1056c40041e5800001cb88000f60970050f9b700d6
:1056d400500120004f0778004f06be004f05be0062
:1056e4004f04be004f05b10000000600a1f73700cb
:1056f4005179ef005239ef00a2ca80000200e000a5
:105704001300320090ca80000000e00079003200eb
:1057140092009000908f50000500320070009000bd
:105724000000e00073003200908f5000feff3a004a
:10573400a2ca8000620c90000200780018400700a2
:1057440008017800a8ca88000800e000edff3a00cc
:105754005159e20001003a00cc98a90063032000eb
:10576400a3daab007cf73200a3daa900f28c2100a3
:10577400124178008280fb00058d210060c0b300d7
:1057840080f07a000240e8000080fb00e1ccb30026
:1057940001f07a0002c1e80002007800cff8b700f7
:1057a400a0b6210021e5280007000900315878003f
:1057b4000041eb0082679f0002407800eb8c2100df
:1057c4009b457800a3b621008b44e9000b45780083
:1057d4008b80fb000080fb006700100060c0790034
:1057e40080f07a00894578008944e9000241e800a4
:1057f40002407800e74f5100f4ff360080c0b30048
:1058040080679f008005fd00cef8b7008005fd008d
:1058140085bf9f0079f107008b80fb008fba97004a
:1058240080f07a008980fb0010c0b30080f07a0019
:10583400e34555000b80fb0011bf210011f07a00f5
:10584400e44555000b80fb0001bf210011f07a00f4
:10585400e54555000b80fb0091ca210011f07a0048
:10586400e64555000b80fb0081ca210011f07a0047
:10587400e74555008b80fb0000c1b30080f07a003f
:10588400e84555008b80fb0090c0b30080f07a009f
:10589400e94555000b007800cef8b70040e58000dc
:1058a40001fa2f008f804000eaf10700a3faa80054
:1058b40040fd2f0000804700a83f07002faa970053
:1058c400bfaa9700c4d78800d5d7880045e58000d3
:1058d40045df8800000120004f0778004f06be0016
:1058e4004f05be004f04be004f05b1000000060086
:1058f40020f7370012027800610062005200320083
:1059040064004100bbf6070080679f008f62970028
:10591400f9cf520086ff3200a3daab000500320053
:10592400a2ca8000a2589000f0c8b30080cf5000f3
:1059340080ff360000c1b300973f07008001780064
:105944000000e0007aff3200a0ca8000100090003e
:1059540080097800a0ca800010409000a0419800ff
:1059640061e58000cc08de00c808dd00130090006b
:10597400f20f2f00020060000100700090019800f7
:1059840071e58000cc08dd00f2ff20000200600019
:105994000100700090019800a0ca800020099000c6
:1059a4006f0161002300900001ff2f0001006000df
:1059b40002007000a0019800a1ca8000a108900014
:1059c400010fb200f2f02f0002006000010070002d
:1059d400a0019800a1ca8000a1089000cf08de00b1
:1059e400c808dd000080a10001007000a00198003b
:1059f400e6804100a0ca80006c0040001002be0096
:105a04008488be0020029000b0029000a400980098
:105a1400b500980095ca8000f501980093ca8800e3
:105a24005179ec00a2ca8000620c90000200780058
:105a34005b3f070008017800a8ca88000800e0005e
:105a440030ff3a0042ff37002200900064f1070063
:105a540080679f00adff3700eff0070080679f006d
:105a6400e14f50000c0032000f609700e44f5000eb
:105a7400610032006a230700000020004f0778000d
